:1000000000000120E5910008353100083931000871
:100010003D31000841310008453100080000000072
:100020000000000000000000000000004D3100084A
:10003000493100080000000051310008E932000891
:1000400055310008593100085D3100086131000860
:1000500065310008693100086D3100087131000810
:1000600075310008793100087D310008000000007A
:100070000000000000000000000000000000000080
:100080000000000000000000553200089D3100080B
:10009000A1310008A5310008A9310008AD310008E0
:1000A000B1310008B5310008B9310008BD31000890
:1000B00061320008C1310008C5310008C9310008AB
:1000C000CD310008D1310008D5310008D931000800
:1000D000DD31000849320008E13100083D320008F6
:1000E000E5310008E9310008ED310008F131000880
:1000F000F5310008F9310008FD310008013200082F
:1001000005320008093200080D32000811320008DB
:100110001532000831320008193200081D3200087B
:100120002132000825320008293200082D3200084B
:100130005FF800007047C046FEE7C046FEE7C046D5
:10014000FEE7C046FEE7C0467047C0467047C0465F
:100150007047C0467047C0467047C0467047C046AB
:100160007047C0467047C0467047C0467047C0469B
:100170007047C0467047C0467047C0467047C0468B
:100180007047C0467047C0467047C0467047C0467B
:100190007047C0467047C0467047C0467047C0466B
:1001A0007047C0467047C0467047C0467047C0465B
:1001B0007047C0467047C0467047C0467047C0464B
:1001C0007047C0467047C0467047C0467047C0463B
:1001D0007047C0467047C0467047C0467047C0462B
:1001E0007047C0467047C0467047C0467047C0461B
:1001F0007047C0467047C0467047C0467047C0460B
:100200007047C0467047C0467047C0467047C046FA
:100210007047C0467047C0467047C0467047C046EA
:100220007047C0467047C0467047C0467047C046DA
:1002300000B581B000F018FE01B000BD00B581B07E
:1002400000F00CFE01B000BD00B581B000F012FE60
:1002500001B000BD00B581B000F014FD01B000BDDB
:1002600000B54FF0804081B0102105F02DFD002831
:1002700031D010214FF0804005F032FD00F002FD3A
:100280004FF0804005F008FD144B18601968144BBE
:100290004FF080401B88C91889B205F0B1FC114BA2
:1002A0001B8813F0030F01D100F0F8FC0D4B1B88E5
:1002B00013F01F0F03D100F0E3FD02F085FE094BA0
:1002C0001B8813F0FF0F01D100F0E0FD054A1388F1
:1002D00001339BB2138001B000BDC046AC030020C7
:1002E000E2010020B203002000B581B002F00CFA58
:1002F00001B000BD00B581B002F0A8F9002002F005
:100300001BFA012000F016FE002002F0B1FB0220D3
:1003100002F0AEFB012002F0ABFB02F017FF1C481D
:100320001C490022835C8B540132182AFAD11A4BE3
:1003300008221A700121072001F040FD322002F04E
:1003400015FA0021072001F039FD322002F00EFAE3
:100350000121072001F032FD322002F007FA0021CE
:10036000072001F02BFD322002F000FA01210720C6
:1003700001F024FD322002F0F9F90720002101F0FC
:100380001DFD322002F0F2F901F09AF8FEE7C046B6
:1003900012010020E00A00203B0B002010B512499A
:1003A000022000F03FFC114C022001F06FFD00F034
:1003B000A9FA0220214600F035FC02205D2102F05E
:1003C0000BFD0B49022000F02DFC002001F05EFD2A
:1003D00000F098FA0220214600F024FC0220054992
:1003E00000F020FC10BDC046CC940008D594000855
:1003F000DB940008E19400087047C046044B0022DB
:100400001A60044B044A1B680A331B1813607047B8
:10041000BC030020C4030020C0030020094A00B52B
:10042000136881B001331360074B12681B689A424E
:1004300001D9012004E0054B186802F04FF90020B3
:1004400001B000BDBC030020C0030020B8030020A1
:1004500030B5054681B00024002002F033FB10B90E
:10046000204601B030BD002002F050FB2855013479
:10047000F2E7C04670B506460D46002404E0315D43
:10048000002002F0A9FC0134AC42F8DB204670BD2C
:1004900000B5002081B002F0EBFA01B000BDC0460B
:1004A00010B50C4610B14FF0FF3008E0002001F00D
:1004B000C3FE034B034AB3FBF4F31360002010BDEB
:1004C000001BB700B8030020014B18687047C046F6
:1004D00000000020014B98707047C046C803002000
:1004E000014B18717047C046C8030020014B1B1810
:1004F00059717047C8030020014BD8707047C0463F
:10050000C8030020034B1B7918420CBF00200120B8
:100510007047C04668040020014BD8787047C04639
:1005200068040020014B1B185879704768040020AC
:1005300000EB012080B27047C0B2704700F47F40EA
:10054000000A704730B5534981B00B68002B00F0AA
:100550009F80514B514A9B78FE2B00F0958012688A
:1005600022B94F4B1A704F4B06221A704C4D4D4C0E
:100570002B7821784C48C91AC018FFF769FF2B78EF
:10058000C0182378C0B28342287003D9FFF746FF12
:10059000012808D0424B00201A78434902F1FF3C61
:1005A000A2F1020E19E02B783C4A0BB9062300E0B9
:1005B000072313600022374B4FE00B5CFF2B04D165
:1005C00001EB00035B78FF2B09D0704503D111F8D4
:1005D0000C30FF2B03D0431CD8B26045EDDB88B153
:1005E0000021C0EB020CDFF8C0E006E00EEB0103D7
:1005F0001B5C0EF801304B1CD9B26145F6DB284B71
:10060000121A1A70264D274C95F800C023786345BE
:1006100021D8214B24489A7883789A4203D01F4BE3
:1006200007221A60C6E7C3780433D9B28C4521701B
:100630000BD26044CCEB0101FFF70AFF2B78C01806
:100640002378C0B28342287005D8174B0021D87890
:1006500000229C460AE0114B05221A6018E00CEBC0
:1006600001039B781344DAB24B1CD9B28842F6DA04
:100670000D4B6FEA02021B18DB78D2B29342054998
:10068000064A01D0072300E00123136000230B601A
:1006900001B030BDB0040020C803002000000020DD
:1006A000AF040020AE0400206804002030B52D49BE
:1006B00081B00B68012B52D02B48012390F803C066
:1006C0000B60BCF1980F0BD803795A1ED2B2833B52
:1006D00018BF0123052A94BF002303F001032BB1A7
:1006E000224A0423136000230B6038E04FF0FF33ED
:1006F000037043700021002206E000EB01039B78A9
:100700001344DAB24B1CD9B28C45F6DA164B6FEAB9
:1007100002026344DA70154B1B68063B012B01D8BB
:10072000FFF7B6FE104DEC7828460434E4B22146BB
:10073000FFF7A0FEC0B2844205D00C4B02221A6023
:100740000022084B0AE02B79022B02D1A87906304F
:1007500000E00620FFF752FE044B00221A6001B0B1
:1007600030BDC046B0040020C803002000000020B7
:1007700010B5FFF79BFF054A13682BB91446FFF726
:10078000E1FE2368052BFAD010BDC0460000002012
:1007900000B50B4B81B01B6894467BB9094A032313
:1007A00013711FFA8CF393711B0AD3710523907098
:1007B0005171D370FFF7DCFF01B000BDFEE7C0460A
:1007C000B0040020C803002000B50B4B81B01B68AB
:1007D0008BB90A4A022313719371042390705171EB
:1007E000D370FFF7C5FF064B9A79587900EB0220CA
:1007F00080B201B000BDFEE7B0040020C8030020B5
:100800006804002000B5094B81B01B68944663B9A9
:10081000074B03221A7104229870597183F806C09D
:10082000DA70FFF7A5FF01B000BDFEE7B0040020BD
:10083000C803002000B50A4B81B01B6873B9094A90
:10084000022313710123937104239070D3705171AB
:10085000FFF78EFF044B587901B000BDFEE7C0469C
:10086000B0040020C80300206804002000B5074B36
:1008700081B01B684BB9064B01221A710222987095
:10088000DA70FFF775FF01B000BDFEE7B00400208D
:10089000C803002000B581B0FFF7AEFD01B000BD78
:1008A00000B581B0FFF7FCFD01B000BDF0B583B02D
:1008B000009100210746019142F210750426009B29
:1008C000B7FBF5F4B3420DDD44B104F13001C9B218
:1008D000022002F081FA0121019103E0022030217F
:1008E00002F07AFA013E08D305FB147304499FB263
:1008F000A5FB0123DB089DB2E1E703B0F0BDC046D4
:10090000CDCCCCCCF0B5002883B0044605DAC0F1DC
:1009100000042D21022002F05FFA0027144E0197F7
:1009200094FBF6F3DDB245B105F13001C9B2022006
:1009300002F052FA0121019105E0019B1BB1022056
:10094000302102F049FA0B4906FB154486FB0123CE
:10095000F117C1EBA3067B1CDFB2092FE0D194FB9A
:10096000F6F13031C9B2022002F036FA03B0F0BD20
:1009700000CA9A3B67666666F0B5002883B00546F4
:1009800002DB0021019104E0C0F1000301221DB24D
:10099000019200230093002742F2107695FBF6F3B4
:1009A0009CB287F00103002C0CBF002303F001036D
:1009B0006BB1019919B102202D2102F00DFA04F159
:1009C0003001C9B2022002F007FA01270FE027B177
:1009D00004F13001C9B2022007E0009A042A02D0D3
:1009E0000220202101E00220302102F0F5F90099D7
:1009F0004B1CDBB2052B009308D006FB14530449B3
:100A00001DB2A6FB0123DB089EB2C7E703B0F0BD11
:100A1000CDCCCCCCF0B5002883B0054602DB00215C
:100A2000019104E0C0F1000301225DB201920023B4
:100A300000930027642695FBF6F39CB287F0010330
:100A4000002C0CBF002303F001036BB1019919B115
:100A500002202D2102F0C0F904F13001C9B20220B8
:100A600002F0BAF9012709E027B104F13001C9B257
:100A7000022001E00220202102F0AEF9009A531C6E
:100A8000DBB2032B009308D006FB145304495DB27C
:100A9000A6FB0123DB089EB2CDE703B0F0BDC04644
:100AA000CDCCCCCCF0B5002683B0134C07460196D4
:100AB000B7FBF4F545B105F13001C9B2022002F0EF
:100AC0008BF9012101910AE0019B23B9032E02D881
:100AD0000220202101E00220302102F07DF9731C68
:100AE000DEB20A2E06D0054904FB1577A4FB0123CC
:100AF000DC08DDE703B0F0BD00CA9A3BCDCCCCCC1E
:100B0000F0B5002683B00746019642F21074B7FB99
:100B1000F4F545B105F13001C9B2022002F05CF9EB
:100B2000012101910AE0019B23B9042E02D0022089
:100B3000202101E00220302102F04EF9731CDEB2C8
:100B4000052E08D004FB157304499FB2A4FB0123B2
:100B5000DB089CB2DBE703B0F0BDC046CDCCCCCC0B
:100B6000174A30B5A0FB02235C09E4B204F130015E
:100B700081B00546C9B2022002F02EF9C4EB4463ED
:100B800004EB8303C4EBC30405EB84050D4AEDB20B
:100B9000A5FB0223DC08E4B204F130010220C9B253
:100BA00002F01AF9C4EB44733035C4EB830405EB4F
:100BB0004405EDB20220294602F00EF901B030BD25
:100BC0001F85EB51CDCCCCCC030903F00F0303F10F
:100BD0003001392988BF073110B5C9B20446022057
:100BE00002F0FAF804F00F0303F13000392888BF4F
:100BF0000730C1B2022002F0EFF810BD10B5044674
:100C0000E4B2000AFFF7E0FF2046FFF7DDFF10BD6A
:100C100010B50446A4B2000CFFF7F0FF2046FFF722
:100C2000EDFF10BD70B506460D46002402E03046CB
:100C300002F0D2F8295D01340029F8D170BDC04618
:100C4000024A13780133DBB213707047DF0A0020C9
:100C50007047C046024A13880BB1013B13807047AE
:100C6000B40300207047C0467047C04600B581B04D
:100C700001F094FE01B000BD00B581B001F0BAFEF4
:100C800001B000BD00B581B001F04EFE01B000BD65
:100C900000B581B001F038FD01B000BD10B5634B67
:100CA00082B000248DF807401A784FF400510132C9
:100CB000D2B21A701A785E4802F01F021A7003F05E
:100CC000EDFA01280CBF8DF807008DF807409DF85C
:100CD0000730DFF860C119465748002B40D18CF827
:100CE0000030564B1F221A70554B19700378DBB138
:100CF000544A1388013B9BB21380138899B299B967
:100D00000378013BDBB2037040F2124313804E4A7A
:100D100013780BB1117001E001231370464B1B785F
:100D20001A460BB9484B1A70474B1B784BB98021B8
:100D3000464803F0C7FA45484FF4807103F0C2FA01
:100D400008E04248802103F0BDFA40484FF480712A
:100D500003F0BAFA3D484FF4007103F0B3FA30E003
:100D60000A230370374B40F212421A802F4B1A7835
:100D70009CF800309A4204D33448802103F0A2FA50
:100D800003E03248802103F09FFA284B1A782B4B5E
:100D90001B789A4205D32D484FF4807103F092FAE4
:100DA00004E02A484FF4807103F08EFA1F4B1A7842
:100DB000234B1B789A42CDD224484FF4007103F0A4
:100DC00083FA1A4B1A78224B1B789A4205D318489B
:100DD0004FF4807103F076FA04E015484FF4807107
:100DE00003F072FA114B1A781A4B1B789A4205D30A
:100DF0000F484FF4006103F065FA04E00C484FF42B
:100E0000006103F061FA094B1A78134B1B789A4280
:100E100005D307484FF4805103F054FA04E0044826
:100E20004FF4805103F050FA02B010BD420B002085
:100E3000000801403C0B0020B40400203D0B0020C2
:100E40003E0B0020B6040020B80400200010014032
:100E50003F0B0020400B0020410B002000B581B06B
:100E600001F02CFF01B000BD00B581B001F082FEA1
:100E700001B000BD00B581B001F09AFE01B000BD27
:100E800000B581B002F0B0FA01B000BD70B51F4CE2
:100E90001F4E23780133DBB22370356801F03EFC2E
:100EA000401930602378642B12D132681949A2FBB3
:100EB00001235B0933603368174A6A2B01D8012389
:100EC00000E000231370124A002313600F4A1370CE
:100ED0000E4B124A1978A1FB02231B09C3EB031323
:100EE000A1EB430111F0FF0F0ED10B4B1B78012B2F
:100EF0000AD101F0D5FF38B9FF2001F0B9FF162063
:100F000001F0C2FF01F0DCFF70BDC046C00400204C
:100F1000BC0400201F85EB51C1040020898888880B
:100F2000024B00221A70024B18887047CE04002032
:100F3000CC04002000B5012881B00AD100F1804026
:100F400000F5843000F57F700330082103F0BCF910
:100F500003E00348082103F0B5F901B000BDC04625
:100F6000000C014030B5264B4FF0000281B01A80D2
:100F700002241D4631E00020FFF7DCFF022001F0D3
:100F8000F5FB012001F074FD0120FFF7D3FF0A20DB
:100F900001F0ECFB0120212101F01EFF01202121A5
:100FA00001F01AFF40F2311001F0E0FB0DE00120EA
:100FB00001F088FD0028FAD0012001F0A7FD2128CA
:100FC00003D14FF001032B8004E0012001F07AFDF2
:100FD0000028ECD1631EDCB214B12B88002BCAD0E0
:100FE000322001F0C3FB0020FFF7A4FF022001F034
:100FF000BDFB0120FFF79EFF014B188801B030BDFB
:10100000D004002010B5394B1B78012B01D10120F1
:101010006BE0374C2378052B0BD83648C3F106011B
:10102000C01800F0B1F8B0F1FF3F1EBF2378C3181D
:1010300023702F4B1C78012C30D90021DFF8B4C06D
:10104000601E0DE01CF801300CEB0102FF2B06D1F5
:10105000884204DD5378552B01D1F9B102E001310A
:10106000A142EFDBA14204D1224B4A1E9B5CFF2B25
:1010700000D00A461F4B114603EB020C184604E051
:101080001CF8013C013100F8013C0130A1420CF197
:10109000010CF5DB164BC2EB04021A70144B1B78E3
:1010A000062B20D1134A1378FF2B17D15378552BD9
:1010B00014D1D37890786FEA0303DBB298420DD154
:1010C000537911796FEA0303DBB2994206D10A4BD7
:1010D00000EB01221A80054B01221A70054A0023F9
:1010E0001370034A1370014B187810BDCE04002012
:1010F000CA040020C4040020CC04002000B580B243
:1011000083B0C2B2000A8DF806004FF0FF336FEAD9
:1011100000008DF802308DF8042055236FEA02029A
:101120008DF8070006210DF102008DF803308DF8CF
:10113000052000F043F8062814BF0020012003B06A
:1011400000BDC04600B581B000F01CF801B000BD84
:1011500000B54FF4614181B000F03EF848B1064B54
:1011600000221A70054B4FF000011980044B01203A
:101170001A7001B000BDC046CE040020CC0400208F
:10118000CA0400207047C04670B5064601200D46CF
:1011900001F098FC10B94FF0FF340CE0002401205E
:1011A00001F090FC0028FAD0012001F0AFFC30558E
:1011B0000134AC42F3DB204670BDC04670B5064634
:1011C0000D46002404E0315D012001F005FE0134EC
:1011D000AC42F8DB002070BD00B5012081B04FF4B7
:1011E000614101F029F8012001B000BD70B5154B37
:1011F000154A1978535C13B3144B1C7802EB0403A3
:101200005B1813F8023C022B19D00120104E114D2F
:1012100010E05A2913D8325C15F811308C469342ED
:101220000DD84B1CD9B205EB4C03325C5B78013016
:10123000934204D3C3B2A342EBD3002000E00820C2
:1012400070BDC046D20B0020B8000020440B002027
:10125000460B002004000020F0B5002581B03A4E76
:101260003A4F69E03A4A13782B441C2B34D006DC01
:10127000192B12D01A2B1DD0182B5BD106E0522B44
:101280004DD0532B52D0512B54D135E0314C207ED0
:1012900001F052FA227E304B2CE02E4C0121607E70
:1012A00000F08CFD607E00216FEA0000C0B200F00B
:1012B00085FD3FE029492A4A0B7803F01F0313708C
:1012C0000988284A4B0903F01F031370890A264B2B
:1012D00001F01F0119702DE03378244A03F01F0339
:1012E00013703288530903F01F033B70920A204B9E
:1012F00002F01F021A701DE0164C94F8520001F023
:10130000B7FD01F0CDFD18B194F85230FE2B11D18C
:1013100094F8510001F0B8FD01F0D2FD0AE00D4B48
:1013200093F8523033B901F011FF03E0114B1888E4
:10133000FFF7E4FE6B1CDDB20F4A1378013B9D42C0
:1013400090DB01B0F0BDC046FC0A0020400B00203D
:10135000D20B0020E00A0020650C0020FA0A0020D1
:101360003C0B00203D0B00203E0B00203F0B0020DB
:10137000410B0020330B0020440B002030B52C4BD8
:1013800081B01B78012B07D02A4B1B78FE2B4CD049
:10139000294B1B7C012B48D9284B294993F800C0C5
:1013A000254C284D40EA0C0CE0780B784FF0FF32CA
:1013B000EA540133DBB20B700B780230EA5401338C
:1013C000DBB20B700A78E3786044AB540132D2B2DE
:1013D0000A700B780222EA540133DBB20B700B78EF
:1013E0006FEA000005F803C00133DBB20B700B7825
:1013F000C0B2E8540133DBB2134A0B70137883B9DF
:1014000001231370114A12481378E95C0133DBB2EF
:10141000137004F077FD0E4840F22661012204F0BB
:1014200005FD094A1378002BFCD101B030BDC04640
:10143000450B0020430B0020E00A0020D30B0020C6
:10144000DC0A0020DA090020DE0A0020DD0A002084
:1014500000480040F0B5012481B0144F144E154DE2
:101460001EE0154A1378013B2344D8B23B5C022BA3
:101470000BD12B5B1728335204D80130800019465A
:1014800002F05CFB631CDCB208E02B5D17283354D0
:1014900004D801308000295B02F050FB631CDCB2F1
:1014A000064A1378A342DCD801B0F0BDB800002092
:1014B000E00A0020460B0020D20B0020440B002045
:1014C000F0B5DFF844446FF03703E370DFF83C34E5
:1014D00000224FF478704FF4F841A18360831A70B2
:1014E000DFF82C341F211970DFF8283485B01A700A
:1014F000DFF824341A70DFF824341A70DFF820344F
:101500001970FFF72FFDA4F858000021DFF814240C
:1015100000231370DFF810C4104602E00378642B38
:10152000F3D8DFF808341A789CF800309A42F5D0E6
:10153000FE48FF4A0378D25C01331046FD4ADBB215
:101540001070FA4AFF28137002D14B1CD9B2DDE7A4
:101550000129DAD9EC4BDB78984201D0FE28D4D1AE
:10156000F04A00231370DFF8C0C3114602E00B7885
:10157000642BCAD8ED4B1A789CF800309A42F6D00A
:10158000EA49EB4A0B78D25C0133DBB20B70931E55
:101590005FFA83FCE84BBCF18F0F174683F800C05D
:1015A000B3D8E04A00231370DFF87CE3114602E071
:1015B0000B78642BA9D8DD4B1A789EF800309A423C
:1015C000F6D0DA49DA4A0B78DFF858E3D15CDB4A27
:1015D00001331170D54ADBB2137007EB0003C91851
:1015E000CDB20020D04C1BE000238EF8003003E089
:1015F0009EF80030642B88D8CC4B1A7823789A4216
:10160000F6D0CA49CA4B0A78CD499B5C01320B54CB
:101610000B5CD2B25B19DDB2C44B1A70431CD8B25A
:101620008445E1DAC64B00241A78C64BB64E1A70D0
:1016300004E0022001F052F8631CDCB273799C4292
:10164000F7D3FF2DBD4909D0B848B74A03781370C6
:101650000B78012B3FF459AF102052E10D7805F1C2
:101660007D03DBB2012B2AD8B54A02215378A7F1BA
:10167000030E18461646A44C03F1010C1DE0725CE3
:10168000E3789A4216D10122DFF8B4C205E01CF8D3
:1016900003300CF80230531CDAB202EB0103824231
:1016A000DBB2F4D9A54B05F07F021A70A24B421CA5
:1016B0001A7004E001EB0C03D9B27145DFDB9F4BDC
:1016C0001B78032B0CD1FFF791FD0446FFF756FE64
:1016D000082C3FF41AAFFFF7BDFEFFF7BDFD14E77E
:1016E000022B40F0D480934B1B78FE2B3FF40DAFC0
:1016F000854E337C002B3FF408AF9149914A4B78DB
:10170000127800249B18013BDBB202934B78002532
:101710000233DBB20393F37801938B4B1F7800F015
:10172000FDFF86F832003336631CDCB2204601F040
:10173000F3F8800826F8150001350F2CF4D1019933
:10174000039A07EB01031344DFB201F005FE7F4C5F
:10175000208001F007FE24F8020C01F009FE24F8B5
:10176000040C01F00BFE608001F00EFEA08001F081
:1017700011FE7749E0800B7876484FF0FF32C25473
:101780000133DBB20B700B782A3CC2540133DBB25D
:101790000B700A78E3780E4683540132D2B20A7095
:1017A0000B78039AC2540133DBB2674A0B700B7893
:1017B0001278C2540133DBB20B70624B1D7840E0EB
:1017C0001E2D03D100F0D2F8A0770DE0572D05D1E2
:1017D000FFF718FCC0B284F8570005E0552D03D17F
:1017E000FFF79EFB5C4B18805C480299425D8D427E
:1017F0002CBF00230123022A14BF002303F001039E
:10180000A3B1615B33785348CAB2C2540133DBB22F
:1018100033703378090AC154D2190133DBB2D2B222
:10182000337052186B1CD7B2DDB208E0625D4949D3
:101830003378CA540133DBB2D2193370D7B26B1C80
:10184000DDB2029A9542BBD941496FEA07020B7893
:101850004048D2B2C2540133DBB2414A0B70137814
:1018600083B9012313703F4A1378C15C0133DBB2A3
:1018700013703D4804F046FB3B4840F226610122CC
:1018800004F0D4FA364A1378002BFCD13DE60D2B38
:1018900020D12B4A9378F02B7FF437AED378552B99
:1018A0007FF433AE13790F2B7FF42FAE5379AA2B2D
:1018B0007FF42BAE204B1B78062B7FF426AE214BFA
:1018C000187859283FF621AE01305178800002F097
:1018D00035F91AE6012B09D1164B1B78FE2B03D1E3
:1018E000094BD87800F042FF00200AE0062B01D017
:1018F000072B05D10020FFF741FD02F091FE04E621
:101900004020FFF73BFD00E6E00A00203C0B0020F2
:101910003D0B00203E0B00203F0B0020400B002021
:10192000410B0020DF0A0020D2060020D306002051
:10193000D2040020430B0020440B0020450B002064
:10194000460B0020D20B0020D30B00200A0B0020F6
:10195000DC0A0020DA090020350B0020B800002046
:10196000DE0A0020DD0A00200048004010B54FF4D8
:101970008041094802F092FC4FF40041441E18BF18
:101980000124054802F08AFC01281CBF44F0020330
:10199000DCB2204610BDC04600080140124B1A8838
:1019A00003F500631B880AB9002312E083B1AB2062
:1019B0000DE0BCF80030834204D13CF8023C00202A
:1019C0000B8004E0ACF1040C9445F2D80120704780
:1019D000012303F58032FE320133DFF810C0D2025A
:1019E000DB029C440232EFE700F00708FEEF070835
:1019F00030B51C4B0546188803F500631A8881B082
:101A000052B903F17843A3F5E023A3F51163023B38
:101A1000C21A18BF012208E008B1AB2020E04EF640
:101A2000EE639A4214BF0022012202F58033FE3396
:101A3000DC02531C0C4ADB021A440EE02368B3F1AB
:101A4000FF3F09D1204602F00FFB042808D1A01C5B
:101A5000294602F009FB03E004349442EED38020CF
:101A600001B030BD00F00708FEEF0708F0B583B005
:101A700007460C46FFF7BCFF802841D1214900F101
:101A8000006000F5FE200B8800F5F060028813B9B5
:101A90000191064604E00AB1AB2031E001900E4608
:101AA00030464EF6EE6102F0DFFA042828D13846BF
:101AB0002146FFF79DFF0428009020D10024124BFF
:101AC000185B03EB0405B8420BD01049FFF766FF23
:101AD000012806D00D4B28881988FFF789FF0428B4
:101AE0000ED10234B02CEAD1019802F057FB042841
:101AF00006D10021304602F0B7FA042800D1009840
:101B000003B0F0BD00F007082A010020660C002099
:101B100000B50E4881B002F041FB042814D100F159
:101B20001060A0F57800A0F580500438002102F084
:101B30009BFA042808D100F11060A0F57800A0F508
:101B40000060043802F02AFB01B000BD00F0070875
:101B5000F0B54B4C4B4D21884EF6EE60814281B082
:101B60002A8813D04FF6FF73994202D000294ED035
:101B700081E00AB9204639E082427CD1204602F059
:101B80000DFB042808BF284677D13CE0002A30D15D
:101B900000244FF6FF7600253B4A13883B4A505BF2
:101BA00002EB0507834208BF2646B3B29C420BD026
:101BB0003749FFF7F3FE012806D0354B38881988DE
:101BC000FFF716FF042858D1631C9CB20235582C2D
:101BD000E2D100212A4802F047FA04284DD100F151
:101BE0001060A0F57800A0F50060043802F0D6FA85
:101BF00043E04FF6FF739A423DD1284602F0CEFAF9
:101C000004283AD12046002102F02EFA35E0002ABD
:101C100031D09A4208BF2846E8D000241E4600254D
:101C20001C4A1388194A505B02EB0507834208BF20
:101C30002646B3B29C420BD01549FFF7AFFE0128F0
:101C400006D0134B38881988FFF7D2FE042814D128
:101C5000631C9CB20235582CE2D10021094802F0E5
:101C600003FA042802BF00F11060A0F57800A0F587
:101C7000805002D1B9E7FFF74BFF01B0F0BDC0467D
:101C800000F0070800F8070806F007082A010020FE
:101C9000660C002006F8070870B50B4C8021204622
:101CA00002F006FB4FF480710646204602F000FB6E
:101CB0004FF400710546204602F0FAFA800040EA2F
:101CC00045003043C0B270BD0010014000B501288E
:101CD00081B009D100F1804000F5863000F57F70B9
:101CE00003304FF4004132E0022809D100F1804076
:101CF00000F5843000F57F7002304FF4805126E00B
:101D0000042807D100F1804000F5863000F57F708F
:101D100040211CE0082808D100F1804000F5863001
:101D200000F57E704FF4005111E0102808D100F149
:101D3000804000F5863000F57C704FF4804106E06D
:101D4000402801D0002007E004484FF4807102F0E1
:101D5000AFFA013818BF012001B000BD00080140F2
:101D600010F0010F10B5044604D01348802102F092
:101D7000ABFA03E01048802102F0A4FA14F0020F3D
:101D800005D00D484FF4807102F09EFA04E00A4835
:101D90004FF4807102F096FA14F0040F05D0064853
:101DA0004FF4007102F090FA04E003484FF4007120
:101DB00002F088FA10BDC04600100140012910B59C
:101DC00000F0010304462DD123B12D484FF400410A
:101DD00002F07AFA14F0020F04D02A484FF480512E
:101DE00002F072FA14F0040F03D02548402102F0EB
:101DF0006BFA14F0080F04D021484FF4005102F0A0
:101E000063FA14F0100F04D01D484FF4804102F023
:101E10005BFA14F0400F32D01B484FF4807102F08F
:101E200053FA2CE023B116484FF4004102F04AFA6D
:101E300014F0020F04D013484FF4805102F042FA1C
:101E400014F0040F03D00E48402102F03BFA14F0C6
:101E5000080F04D00A484FF4005102F033FA14F08E
:101E6000100F04D006484FF4804102F02BFA14F012
:101E7000400F04D004484FF4807102F023FA10BDE3
:101E800000100140000C01400008014008B9064B59
:101E900008E0012808BF054B04D0022801D000202B
:101EA00001E0034B18687047E4010020E8010020BE
:101EB000EC01002070B54FF4405182B04FF000604B
:101EC00002F0A4FB01AD4FF4C06002F001FB01245D
:101ED0000026252328468DF804308DF805608DF8FE
:101EE00006408DF8074002F0FDFA35238DF80430E6
:101EF000284602238DF806308DF805608DF80740DE
:101F000002F0F0FA27238DF80430284603238DF8D9
:101F100006308DF805608DF8074002F0E3FA1C23C7
:101F200028468DF804308DF805408DF806608DF850
:101F3000074002F0D7FA02B070BDC046F0B583B0DA
:101F400001AC5F4D204602F0A1F94FF4C8530326BF
:101F5000ADF8043028464FF0100321468DF80730C5
:101F60008DF8066002F03EF94FF40053ADF80430EE
:101F70002846282321468DF8073002F033F94FF424
:101F80008063ADF8043028464FF0040321468DF8F5
:101F9000073002F027F94FF0FF03ADF80430284670
:101FA0004FF00003214618278DF8073002F01AF988
:101FB0004FF4007328462146ADF804308DF80660D2
:101FC0008DF8077002F00EF94CF20003ADF8043002
:101FD00028464823214605F580658DF8073002F034
:101FE00001F941F23C13ADF8043028464FF01003DC
:101FF00021468DF807308DF8066002F0F3F84FF4B3
:102000000863ADF8043028464FF0040321468DF8EC
:10201000073002F0E7F84EF2406328462146ADF85B
:1020200004308DF806608DF8077002F0DBF84FF091
:102030000303ADF8043028464FF00003214605F5B0
:1020400080658DF8073002F0CDF84EF6C073ADF81C
:10205000043028464FF0100321468DF807308DF8E4
:10206000066002F0BFF84FF4805328462146ADF8D1
:1020700004308DF806608DF8077002F0B3F84FF069
:102080003F03ADF8043028464FF0000321468DF899
:10209000073002F0A7F84FF0040321460948ADF8D5
:1020A00004308DF8073002F09DF80420012102F081
:1020B00033F90548012102F02FF903B0F0BDC04605
:1020C00000080140001401400004300010B51E4C0F
:1020D00086B020464FF4006102F0F4F820464FF439
:1020E000806102F0EFF84FF00003ADF806304FF4D6
:1020F0008273ADF808304FF00003ADF80A304FF0AE
:102100000203ADF80C304FF00103ADF80E304FF480
:102110000073ADF810304FF00803ADF81230A4F59D
:1021200058444FF00003ADF8143020464FF0070339
:102130000DF10601ADF8163002F09CFD204601219C
:1021400002F0D6FD06B010BD0010014010B586B0FB
:1021500001AC204601F022FB012100224FF4602354
:102160008DF809108DF814103148214601928DF830
:1021700008200393049201F0EDFA2E48214601F065
:10218000E9FA07232A480A21012201F06BFB2848BB
:102190004FF40871002201F01FFB0723254804219A
:1021A000012201F05FFB002222484FF4087101F088
:1021B00013FB1F48012101F0FBFA1E48012101F029
:1021C000F7FA1B4801F014FB194801F017FB00282F
:1021D000FAD100F1804000F5943001F009FB154878
:1021E00001F00CFB0028FAD100F1804000F592309C
:1021F00001F00AFB0E4801F00DFB0028FAD100F1B6
:10220000804000F5943001F0FFFA0A4801F002FB2B
:102210000028FAD100F18040012100F5923001F050
:10222000FFFA0448012101F0FBFA06B010BDC046D8
:10223000002401400028014070B584B0044668467F
:102240000D4603F0B9FD4FF00003ADF80430ADF8D2
:102250000630ADF80830ADF80C304FF00C036E4688
:102260000095ADF80A3084B91D4B1E481D6003F07F
:1022700037FF1C48694603F0E5FE1A4840F2255135
:10228000012203F0D3FD174824E0012C10D1164B96
:1022900016481D6003F024FF1448694603F0D2FE7F
:1022A000124840F22551012203F0C0FD0F4811E011
:1022B000022C12D10E4B0F481D6003F011FF0D4888
:1022C000694603F0BFFE0B4840F22551012203F09E
:1022D000ADFD0848012103F09BFD04B070BDC04670
:1022E000E401002000380140E801002000500040D7
:1022F000EC0100200048004000B581B002F0E8FA8F
:102300004FF4803002F004FB02F01CFB012824D1C2
:10231000102001F0EBFC022001F0D0FC002002F0C4
:102320005BFB002002F06CFB4FF4806002F05EFB70
:102330004FF480304FF4E01102F02CFB012002F04A
:1023400033FB392002F05CFC0028FAD0022002F0B6
:1023500031FB02F039FB0828FBD1012146F63D6034
:1023600002F004FC0448012102F00EFC012002F0FE
:102370003FFA01B000BDC0460F40141800B542F24C
:10238000283081B002F010FE012002F029FE01B0D9
:1023900000BDC04630B583B0684601F05BFC00204C
:1023A0000D2101F0E9FF00238DF8043010234FF4D4
:1023B00000548DF805306846012300948DF80630EE
:1023C00001F004FC20466D4601F04CFC03B030BD2A
:1023D00070B588B00DF1160528460DF106064FF0D0
:1023E000804403F01DF9304603F026F9204603F03F
:1023F0007DFC4FF0FF33ADF81A3020464FF000035C
:102400002946ADF81630ADF81C30ADF8183002F0A2
:102410000FFE0122204640F2D22103F0FBF94FF0DB
:102420000003ADF80630ADF80830ADF80E300B4BB8
:1024300020461B883146ADF80C3002F031FF2046B3
:10244000002103F095FA20461021012203F032F911
:102450002046012103F012F908B070BDE20100200E
:10246000F0B585B00DF10604204603F0D9F84FF021
:102470000003ADF80630ADF8083040F6FF73ADF854
:102480000A304FF00003444FADF80C3021460023D2
:1024900042488DF80E30424E02F0CAFD21464148B6
:1024A00002F0C6FD404D3846214602F0C1FD3046DF
:1024B000214602F0BDFD2846214602F0B9FD00F09C
:1024C0000FFA00200021002200F09EF900200121D7
:1024D000002200F099F901200021002200F094F977
:1024E00001200121002200F08FF9022000210022AA
:1024F00000F08AF902200022012100F085F9032072
:102500000021002200F080F903200121002200F0C8
:102510007BF904200021002200F076F9042001213B
:10252000002200F071F905200021002200F06CF972
:1025300005200121002200F067F900220620002179
:1025400000F062F90121154803F098F801211548BF
:1025500003F094F83846012103F090F80121304649
:1025600003F08CF82846012103F088F801210B487C
:1025700003F092F801210B4803F08EF83846012150
:1025800003F08AF83046012103F086F8284601213D
:1025900003F082F805B0F0BD00080040002C0140B7
:1025A000000C0040000400400034014070B588B0C9
:1025B0000DF11605244C28460DF1060603F030F8FF
:1025C000304603F039F8204603F090FB4FF0470304
:1025D000ADF816304FF00003ADF818304FF4FA6341
:1025E000ADF81A304FF00003ADF81C302046002340
:1025F00029468DF81E3002F01BFD4FF06003ADF848
:1026000006304FF00103ADF808304FF00003ADF88D
:102610000A30BDF81A3020465B08ADF80C30314660
:102620004FF00203ADF80E3002F03AFE20460021D2
:1026300003F09EF92046012103F020F820460121F5
:1026400003F02AF808B070BD0008004010B503F090
:10265000B6FDFFF751FEFFF72DFCFFF779FAFFF704
:102660006DFC01F04FFB194B00201968FEF718F9BB
:102670000020FEF76DFD164B164C19680220FFF77F
:10268000DBFDFFF763FDFFF779FEFFF7A1FEFFF724
:102690001DFDFFF78BFF2046102101F015FE20469F
:1026A000202104F5806401F00DFE20464FF4806186
:1026B00001F008FE4FF40061204601F003FE03F034
:1026C00080FD00F0AFFF00F015FF10BDE401002019
:1026D000EC010020000C01407047C046084B00226E
:1026E000196805E00023C91801330A2BFBD1013218
:1026F0008242F7D3024B1960024B19607047C04603
:10270000680C00206C0C0020034A136813B1136896
:10271000013B13607047C046700C002000B50020DC
:1027200081B000F0F9F8034B000980B2185C01B0E9
:1027300000BDC046F001002000B5012881B00BD1DA
:1027400000F1804000F5843000F57F7003304FF4D5
:10275000807101F0B7FD04E003484FF4807101F08F
:10276000B3FD01B000BDC046000C014010B50446E9
:10277000012002F01FFC074B1C601A461368002B57
:10278000FCD16FF0010002F015FC002002F012FCF9
:1027900010BDC046700C00207B2010B502F030FA4E
:1027A000012801D1022422E07A2002F029FA01282E
:1027B00001D101241BE07C2002F022FA012801D182
:1027C000032414E07D2002F01BFA012801D1042427
:1027D0000DE07E2002F014FA012801D1052406E064
:1027E0007F2002F00DFA01280CBF0624002402F01D
:1027F00029FA204610BDC046024B01EB400133F8D8
:1028000011007047840C00202E4B10B50C4601EBD4
:10281000400123F811202C49CA8038B924B900F1AD
:10282000804000F5406049E0284815E0012808D1C3
:102830002CB900F1804000F57E70073030E024486C
:1028400032E002280BD134B900F1804000F5983015
:1028500000F57F7031E01F4802F06CFC30E0032887
:102860000AD13CB900F1804000F5983000F57F7046
:10287000013015E0174817E0042809D134B900F1F8
:10288000804000F5943000F57F7017E012480BE0AF
:1028900005280CD13CB900F1804000F5FE600B30FA
:1028A00002F0A4FC0CE00D4802F0FAFC08E0062857
:1028B00006D100F1804000F57E70023002F0E2FBAC
:1028C00010BDC046840C0020740C0020000C004099
:1028D0000004004000340140002C0140000800408A
:1028E00010B50C4C204602F0A7FE4FF07003238079
:1028F0004FF0010363804FF00003A3804FF0020309
:10290000238163814FF48073A3814FF00003E3813F
:1029100010BDC046740C0020024B33F8100080B28A
:102920007047C046A20C002070B5174E1748347887
:1029300000F0EEFF164D25F814001648347800F02C
:10294000E7FF083425F8140033780133DBB2337025
:102950003378082B01D1002333700B4D0E4C2B78AC
:10296000012254F8231009480723C9B200F07AFF66
:102970002B780848083354F823100122C9B20723E2
:1029800000F070FF70BDC046A00C00200024014084
:10299000A20C002000280140F00200200F4A13780A
:1029A0004BB1012B02D9013B137004E000231370DB
:1029B0000B4B01221A700B4803786BB10A4A13784B
:1029C000C82B07D909490A4B0A781A7000230B70E3
:1029D000037001E0013313707047C046C60C00203D
:1029E00030030020C20C0020C30C0020C40C0020C7
:1029F000C50C00200D4B1B78B3B10D48DFF834C077
:102A000002780D4922B9012303708CF8002004E0FC
:102A100000238CF800300B7801330B70074B142225
:102A20001A70024B00221A707047C0463003002013
:102A3000C20C0020C30C0020C40C0020C60C0020D7
:102A4000014B18787047C046C40C0020014B187029
:102A50007047C046C40C0020014B18787047C04630
:102A6000C50C0020014B18707047C046C50C0020F3
:102A700038B90E4B4FF000021A801B880C4A9BB2EB
:102A800012E0012807D10B4B4FF000021A801B887F
:102A9000094A9BB208E0022807D1084B4FF0000218
:102AA0001A801B88064A9BB213807047CA14002004
:102AB000C8140020CE1C0020CC1C0020D2240020F2
:102AC000D024002018B90B4B1A880B4B0CE00128BE
:102AD00003D10A4B1A880A4B06E0022801D0FF20D6
:102AE00006E0084B1A88084B1B88981A18BF01206B
:102AF0007047C046C8140020CA140020CC1C002017
:102B0000CE1C0020D0240020D224002048B9134A33
:102B1000138801339BB213801388114A9B059B0DC8
:102B200018E0012809D10F4A138801339BB21380A2
:102B300013880D4A9B059B0D0CE0022801D0FF2055
:102B40000BE00A4A138801339BB213801388084AAA
:102B50009B059B0D32F81330D8B27047C814002083
:102B6000C80C0020CC1C0020CC140020D024002055
:102B7000D01C002000B50B4881B040F2255103F075
:102B800033FA68B1074803F0C1F9074A13880133E3
:102B90009BB213801388054A9B059B0D22F81300F6
:102BA00001B000BD00500040CE1C0020CC1400201D
:102BB00010B5354840F2255103F016FA00283AD0F6
:102BC000314803F0A3F9012104461020FFF7F6F87D
:102BD000DFF8B8C02E489CF800102E4A0378E4B203
:102BE000D454D35CDFF8B0E02C4A0EF801300378FF
:102BF0000133DBB203709CF800300133DBB28CF898
:102C000000301378002B3ED101231370244B1B7826
:102C1000012B06D1234B24481B781EF8031003F028
:102C200071F9204A2048137840F226610133DBB263
:102C30001370012225E0144840F2266103F0D4F914
:102C400008B31A481A4A03781278934209D00378D5
:102C5000184AD15C0133DBB203700B4803F052F920
:102C600011E01548102101F02FFB1348202101F03D
:102C700029FB08200021FFF7A1F8034840F2266154
:102C8000002203F0D3F810BD00380140DC0A002018
:102C9000D6080020D6060020DA090020DE0A00202F
:102CA000650C0020DD0A002000480040D908002003
:102CB000D8080020D6070020000C014070B5384825
:102CC00040F2255103F090F90446002845D03448DD
:102CD00003F01CF9012104460820FFF76FF8314E7C
:102CE000DFF8C4C0314D3078314A9CF800102B78A1
:102CF000E4B2D454D35C2F4A2F4C5354535C10216C
:102D000023549CF800302D480133DBB28CF800309E
:102D10002B780133DBB22B7033780133DBB23370A5
:102D200001F0C6FA00283AD100F1804000F5863063
:102D3000202101F0C9FA2148102101F0C3FA204BEB
:102D400020481A78A15C0132D2B21A7003F0DAF886
:102D50001C4840F2266101221FE0114840F2266122
:102D600003F042F9D8B11848184A03781278934210
:102D700009D00378164AD15C0133DBB203700848EE
:102D800003F0C0F80BE010200021FFF717F8114BFB
:102D900003481C7040F22661002203F047F870BD22
:102DA00000480040D8080020D2060020DA0A00209F
:102DB000DA080020D2040020D6070020000C0140D1
:102DC000D908002000380140DD0A0020DC0A00207C
:102DD000DA090020DE0A002010B50C46E8B900F13F
:102DE000804000F58630202101F06EFA1C48102149
:102DF00001F068FAA1B21B4803F084F81948402199
:102E000003F0E6F80028F9D01021154801F05CFA2B
:102E10001348202101F056FA20E001280ED100F1DC
:102E2000804000F59E4089B2FF3003F06BF80E48F9
:102E3000402103F0CDF80028F9D00FE002280DD191
:102E400000F1804000F58E4089B2FE3003F05AF860
:102E50000648402103F0BCF80028F9D010BDC04658
:102E6000000C014000380140005000400048004084
:102E7000014B18707047C046F0240020014B1878B1
:102E80007047C046F0240020014B18707047C046C0
:102E9000F1240020014B18787047C046F12400202F
:102EA000054B1B880BB1012004E0044B1B88181E46
:102EB00018BF01207047C046DA240020EA24002011
:102EC000164B174A1B78FF2B0FD1164912780B8827
:102ED0001BBB192A21D8144B1A80144B4FF0000247
:102EE0001A804FF001030B8017E0322B127801D9C2
:102EF000322103E0002B14BF194603210C4B332A67
:102F000028BF33221A800B4A01EB810303EB8303B2
:102F10001380094B4FF001021A807047F024002003
:102F2000F1240020DA240020D4240020D82400201A
:102F3000EC240020EE240020EA240020322901D9CC
:102F4000322102E0002908BF0321084B332834BF97
:102F5000024633221A80064A01EB810303EB830306
:102F60001380044B4FF001021A807047EC240020BC
:102F7000EE240020EA240020074A138853B91928B8
:102F800008D8064B4FF000011880054B19804FF010
:102F9000010313807047C046DA240020D4240020A7
:102FA000D824002030B5074D04462146284681B07C
:102FB000640802F01DFE2846214602F021FE01B001
:102FC00030BDC046000800404E4970B50B8873B153
:102FD0004D4A13881BB94FF000020A8039E0013BCB
:102FE00013804A4B1A884A4B33F8120086E0494B4B
:102FF0001B88002B00F08480474A1388002B70D177
:1030000046490B8853B9464B1A88464B53F8222041
:10301000454B12881A804FF001030B80404B3F4D07
:103020001A88404BB5F800C053F822303F4E33F8B1
:103030001C203F4B02F01F011A80D30903F00F0040
:103040003C4B3180188032B9324B4FF000042C8059
:103050001C80002052E012F0200F374B15D012F0E8
:10306000400F4FF00104354A1C801CBF4B421380B7
:103070002D4B08BF11801B88274A03FB00F31380E8
:10308000264B0CF101021A803AE04FF000021E2993
:103090001A8008D1244B204A1B8803FB00F31380BD
:1030A0000CF101031BE0264A1388012B1CBF0124ED
:1030B000148025D14FF0000313801B4B164A1B8848
:1030C000204C03FB00F334F811001380FFF76AFF74
:1030D00032881D4B34F812201A802B8801332B8044
:1030E0000EE0013B1380144B1B88012B08D1164ABC
:1030F000124B18881388C01880B21080FFF752FF57
:1031000070BDC046EA240020EE240020EC240020FC
:1031100038920008DA240020D6240020D824002089
:10312000D4240020340300209C030020DE2400204F
:10313000DC240020E0240020E2240020E6240020FB
:10314000E8240020A0920008E424002000B5064BEB
:103150004FF000021A80054B81B01A800020FFF763
:1031600021FF01B000BDC046EA240020DA2400207F
:103170000449054A0B78C0B2D0540133DBB20B705E
:103180007047C046F22400200E250020014B00228B
:103190001A707047F224002070B562498B784A7823
:1031A000487902EB0322604B92B21A800B7912B27B
:1031B00003EB00231FFA83FC5C4B087AA3F800C0E2
:1031C000CB7903EB00239CB2594BC87A1C808B7AD5
:1031D00003EB00239DB2574B887B1D804B7B03EB99
:1031E00000239EB2544B487C1E800B7C03EB0023D3
:1031F00099B2524B198002F13F0332EA220228BFF2
:103200001A46921102EB8202D31C32EA220228BF34
:103210001A46921002F5007240F2FF339A42C8BF7C
:103220001A4602DC002AB8BF0022454B1A800FFA6A
:103230008CF303F13F0233EA230328BF13469B11AB
:1032400003EB8303DA1C33EA230328BF13469B10E6
:1032500003F5007240F2FF339A42C8BF1A4602DCFF
:10326000002AB8BF0022374B1A8023B203F13F0275
:1032700033EA230328BF13469B1103EB8303DA1CB5
:1032800033EA230328BF13469B1003F5007240F274
:10329000FF339A42C8BF1A4602DC002AB8BF002298
:1032A000294B1A802BB203F13F0233EA230328BFD4
:1032B00013469B11C3F5007240F2FF339A42C8BF18
:1032C0001A4602DC002AB8BF0022204B1A8033B213
:1032D00003F13F0233EA230328BF13469B11C3F5D2
:1032E000007240F2FF339A42C8BF1A4602DC002A3D
:1032F000B8BF0022164B1A800BB203F13F0233EA2B
:10330000230328BF13469B1103F5007240F2FF33DD
:103310009A42C8BF1A4602DC002AB8BF00220D4BF1
:103320001A8070BD0E250020F6240020F82400200D
:10333000FA240020FC240020FE2400200025002088
:103340000225002004250020062500200825002055
:103350000A2500200C250020014B18887047C04624
:1033600002250020014B18887047C0460425002024
:10337000014B18887047C04606250020014B18886D
:103380007047C04608250020014B18887047C0468A
:103390000A250020014B18887047C0460C250020E4
:1033A000014BB3F900007047F6240020014BB3F93C
:1033B00000007047F8240020014BB3F9000070476B
:1033C000FA240020014BB3F900007047FC240020D0
:1033D000014BB3F900007047FE240020014BB3F904
:1033E000000070470025002070B53C4E3C4D002485
:1033F0003C48022101F010FD0028F9D03A484FF472
:10340000006100F061FF315D364801F0A9FC3548EC
:10341000022101F001FD0028F9D03248012101F01C
:10342000FBFC0028F9D02F4801F09CFC2B782F4A98
:10343000C0B2D05401332E4A0134DBB22B7084FB6E
:103440000223A3EBE47303EB43039C4204D126481D
:103450004FF4006100F036FF092CC9D11F4E204DFA
:1034600000242048022101F0D7FC0028F9D01E4892
:103470004FF4806100F028FF315D1A4801F070FCC4
:103480001848022101F0C8FC0028F9D01548012194
:1034900001F0C2FC0028F9D0124801F063FC2B783F
:1034A000124AC0B2D0540133114A0134DBB22B703E
:1034B00084FB0223A3EBE47303EB43039C4204D19C
:1034C00009484FF4806100F0FDFE092CC9D1FFF7D7
:1034D00063FE034B00221A7070BDC046A00300209B
:1034E000F224002000380040001001400E2500208A
:1034F0005655555510B54748022101F08DFC00285E
:10350000F9D045484FF4806100F0DEFE41482021AB
:1035100001F026FC3F48022101F07EFC0028F9D092
:103520003C48012101F078FC0028F9D0394801F02D
:1035300019FC3A493A4A0B78C0B2D0540133DBB295
:103540000B7034483F2101F00BFC3248022101F09E
:1035500063FC0028F9D02F48012101F05DFC002810
:10356000F9D02C4801F0FEFB2C492D4A0B78C0B253
:10357000D0540133DBB20B7027484FF4806100F068
:10358000A1FE2448022101F047FC0028F9D022487E
:103590004FF4806100F098FE1E48232101F0E0FB0B
:1035A0001C48022101F038FC0028F9D019480121FB
:1035B00001F032FC0028F9D0164801F0D3FB17497E
:1035C000174A0B78C0B2D0540133DBB20B701148EC
:1035D000102101F0C5FB0F48022101F01DFC00285D
:1035E000F9D00C48012101F017FC0028F9D0094856
:1035F00001F0B8FB094C0A4A2378C0B2D054013319
:10360000DBB205484FF48061237000F05BFE0023BD
:10361000237010BD0038004000100140F22400204B
:103620000E25002010B54748022101F0F5FB0028C7
:10363000F9D045484FF4006100F046FE4148202192
:1036400001F08EFB3F48022101F0E6FB0028F9D093
:103650003C48012101F0E0FB0028F9D0394801F095
:1036600081FB3A493A4A0B78C0B2D0540133DBB2FD
:103670000B703448FF2101F073FB3248022101F046
:10368000CBFB0028F9D02F48012101F0C5FB002811
:10369000F9D02C4801F066FB2C492D4A0B78C0B2BA
:1036A000D0540133DBB20B7027484FF4006100F0B7
:1036B00009FE2448022101F0AFFB0028F9D022487E
:1036C0004FF4006100F000FE1E48232101F048FB8A
:1036D0001C48022101F0A0FB0028F9D01948012163
:1036E00001F09AFB0028F9D0164801F03BFB17497E
:1036F000174A0B78C0B2D0540133DBB20B701148BB
:10370000202101F02DFB0F48022101F085FB00284C
:10371000F9D00C48012101F07FFB0028F9D00948BD
:1037200001F020FB094C0A4A2378C0B2D05401337F
:10373000DBB205484FF40061237000F0C3FD0023A5
:10374000237010BD0038004000100140F22400201A
:103750000E25002043680A6823F4702323F4807345
:1037600013430A7943EA02234360CB688A68D0F89E
:1037700008C01A43084B0CEA03031A434B7942EA88
:10378000430282600B7CC26A013B22F47002DBB20E
:1037900042EA0352C2627047FDF7F1FF0023036063
:1037A000037143718360C360012303747047C04693
:1037B00019B1836843F0010302E0836823F0010339
:1037C0008360704719B1836843F4807302E08368B3
:1037D00023F4807383607047C9B21AB1436841EA29
:1037E000030302E0436823EA010343607047C046D5
:1037F000836843F0080383607047C0468068C00850
:1038000000F001007047C046836843F00403836002
:103810007047C0468068800800F001007047C046CD
:1038200019B1836843F4A00302E0836823F4A00382
:10383000836070478068800D00F001007047C046CB
:103840004368013923F4604343EA413343607047DE
:1038500019B1436843F4006302E0436823F4006352
:1038600043607047092930B594460C461D464FEA1F
:1038700041020BD912191E3A0723934015FA02F29E
:10388000C16821EA03011143C16009E0121907234D
:10389000934015FA02F2016921EA03011143016123
:1038A000BCF1060F0CD80CEB8C02053A1F23934099
:1038B00014FA02F2416B21EA0301114341631BE058
:1038C000BCF10C0F4FEA8C020BD86244233A1F2341
:1038D000934014FA02F2016B21EA030111430163E0
:1038E0000AE06244413A1F23934014FA02F2C16A8B
:1038F00021EA03011143C16230BDC04619B183689A
:1039000043F4801302E0836823F4801383607047DC
:10391000C06C80B27047C046014B18687047C04603
:103920004C24014019B1436843F4806302E04368CA
:1039300023F480634360704719B1436843F48053B4
:1039400002E0436823F4805343607047836823F4A4
:10395000E04319438160704719B1836843F4004321
:1039600002E0836823F400438360704719B18368E1
:1039700043F4021302E0836823F402138360704768
:103980008068400D00F001007047C046092930B53D
:103990008C4615461C464FEA41020BD962441E3A3A
:1039A0000723934014FA02F2C16821EA030111438C
:1039B000C16009E062440723934014FA02F20169EE
:1039C00021EA030111430161836B1F2103F44012BB
:1039D0006FEA12522A440332D2B202EB82029140C1
:1039E0000CFA02F223EA01031343836330BDC0469D
:1039F000836B013923F4401343EA01538363704717
:103A000082B00A5002B0704782B00190283040580E
:103A100080B202B07047C046436823F4400323F4E9
:103A20000073194341607047416282627047C0462B
:103A3000436823F01F0319434160704720B1054AD2
:103A4000936843F4000303E0024A936823F40003FD
:103A50009360704700240140036819420CBF0020A6
:103A6000012070476FEA01010160704742680368F6
:103A700013EA112301D1002004E0CBB213420CBFA2
:103A8000002001207047C0466FEA11210160704795
:103A900000B5144B83B0984201900FD003F5A053AA
:103AA000984213D0A3F5C053984219D14FF4007037
:103AB000012101F077F84FF400700EE04FF48060C0
:103AC000012101F06FF84FF4806006E04FF40040F0
:103AD000012101F067F84FF40040002101F062F885
:103AE00003B000BD00280140014B18607047C0467C
:103AF00004860D42014B18607047C04600860D4297
:103B0000014B18607047C04688860D42044A938D69
:103B100023F460731B041B0C184390857047C04648
:103B2000006C0040044A938D23F07F031B041B0CA0
:103B3000034393857047C046006C004000F180400D
:103B400000F5D8400180704700F1804000F5D84072
:103B5000008880B27047C046014B1868C0B27047F9
:103B6000A0860D42034A938E9BB243F001039386D5
:103B70007047C046006C0040014B1868C0B27047E7
:103B8000A4860D42034A938E9BB243F002039386B0
:103B90007047C046006C004000B5012081B001F0C4
:103BA0001DF8002001F01AF801B000BD064B0022FC
:103BB0001A605A609A60DA6002F18072A2F57802A7
:103BC000013A5A617047C04600040140837910B53C
:103BD000D0F800C00479002B30D01D496FEA0C02E8
:103BE0000B6802EA03030B604B681A404A6004F159
:103BF000804202F58232136843EA0C031360D0F866
:103C000000C08B686FEA0C0202EA03038B60CB688A
:103C100040791A401028CA6008D18B6843EA0C0327
:103C20008B60CB6843EA0C03CB600FE000F180426D
:103C300002F58232136843EA0C0306E004F1804285
:103C400002F58232136823EA0C03136010BDC046EC
:103C50000004014000220C23026002714371827152
:103C60007047C046024A1369184310617047C04646
:103C700000040140034B5B6918420CBF0020012087
:103C80007047C04600040140014B58617047C04670
:103C900000040140054B1A685B69184201D10020FD
:103CA00003E010420CBF00200120704700040140D7
:103CB000014B58617047C04600040140044A136834
:103CC00003F0380313601368184310607047C04650
:103CD00000200240044A136823F0080313601368AD
:103CE000184310607047C04600200240044A136821
:103CF00023F0100313601368184310607047C04628
:103D000000200240034B044A5A6002F188325A6094
:103D10007047C0460020024023016745024A1369EC
:103D200043F080031361704700200240014BD869C3
:103D30008008704700200240014B186A7047C04657
:103D400000200240024BD869400800F00100704793
:103D500000200240024B1868400900F00100704743
:103D60000020024021B1054A136940EA030303E041
:103D7000024A136923EA00031361704700200240DE
:103D8000012804D1054BDB6903F0010005E0034B7A
:103D9000DB6818420CBF0020012070470020024061
:103DA000014BD8607047C04600200240094AD368E2
:103DB00013F0010F01D001200BE0D36813F0040FC2
:103DC00001D0022005E0D36813F0100F14BF0320C8
:103DD000042070470020024010B5234A82B0D36807
:103DE000014613F0010F01D001202AE0D36813F03F
:103DF000040F01D0022024E0D36813F0100F14BF89
:103E0000032004201DE00194CDF804C002E0019BD2
:103E1000013B0193019B002BF9D1D36813F0010FF3
:103E200001D001200BE0D36813F0040F01D0022071
:103E300005E0D36813F0100F14BF032004200139EC
:103E400003E0094A00244FF0FF0C0B1E18BF0123AA
:103E5000012814BF002303F00103002BD3D1002954
:103E600008BF052002B010BD00200240F0B5134B82
:103E7000134C81B0A36003F188330546A3600F2083
:103E80000E461746FFF7A8FF042815D123690D4AEF
:103E900043F01003236145F0F80346EA030347EAC1
:103EA000030353800F20FFF797FF01281FBF2269EC
:103EB00041F6EF731340236101B0F0BD2301674564
:103EC0000020024000F8FF1F30B5054681B040F6E3
:103ED000FF70FFF781FF04283CD11F4C1F4B00F5FA
:103EE0007E60A36003F18833A36023691B3043F035
:103EF00020032361236943F040032361FFF76CFF34
:103F0000042820D1236941F6DF7203EA020222610C
:103F1000236943F0100323611DB1114B4FF00002E0
:103F200002E00F4B4FF0A5021A8040F6FF70FFF73A
:103F300053FF01280ED0084941F6EF730A6902EADF
:103F400003030B6106E001281FBF226941F6DF73FE
:103F50001340236101B030BD0020024023016745BA
:103F600000F8FF1F10B504460F20FFF735FF0428A7
:103F700050D1294A294B6FEA0404936003F1883336
:103F800093601369E1B243F01003FF29136104D079
:103F9000234B0F201981FFF71FFF04F47F431A0AF8
:103FA000B2F1FF0318BF0123042814BF002303F05C
:103FB000010323B11A4B0F205A81FFF70DFF04F4C0
:103FC0007F031A0CB2F1FF0318BF0123042814BFAA
:103FD000002303F0010323B1114B0F209A81FFF757
:103FE000FBFE220EB2F1FF0318BF0123042814BF09
:103FF000002303F0010323B1094B0F20DA81FFF7FF
:10400000EBFE01281FBF044941F6EF730A69134014
:1040100018BF0B6110BDC046002002402301674558
:1040200000F8FF1F70B506460F200D46FFF7D4FEBF
:10403000042814D10A4C0B4B0F20A36003F18833E2
:10404000A360236943F0100323613580FFF7C4FEAA
:1040500001281FBF226941F6EF731340236170BD31
:10406000002002402301674570B506460F200D462B
:10407000FFF7B2FE04280FD1084C0F20236943F04C
:10408000010323613580FFF7A7FE01281FBF2269C6
:1040900041F6FE731340236170BDC046002002400C
:1040A00070B506460F200D46FFF796FE042817D17F
:1040B0000C4C0F20236943F001032361ABB2338022
:1040C000FFF78AFE042804D12B0C73800F20FFF722
:1040D00083FE01281FBF226941F6FE73134023614E
:1040E00070BDC0460020024010B540F6FF70FFF7DB
:1040F00073FE04282CD1174C174B00F57E60A3608B
:1041000003F18833A36023691B3043F0200323614C
:10411000236943F040032361FFF75EFE042810D1BA
:10412000226941F6DF7302EA0303236123694FF03A
:10413000A50243F010032361084B0F201A80FFF7FC
:104140004BFE01281FBF226941F6EF731340236124
:1041500010BDC046002002402301674500F8FF1F44
:1041600010B540F6FF70FFF737FE042813D10A4C54
:10417000236903432361236900F57E6043F0400314
:1041800023611B30FFF728FE01281FBF226941F67B
:10419000FB731340236110BD0020024030B505467B
:1041A00081B040F6FF70FFF717FE042815D10C4CC4
:1041B00000F57E6023691B3043F0020323616561D3
:1041C000236943F040032361FFF706FE01281FBF68
:1041D000226941F6FD731340236101B030BDC04632
:1041E00000200240F0B5CD780E8815F0100F18BFF2
:1041F0008B7805F00F0718BF1F4316F0FF0F83B031
:104200001ED004680021012212FA01F303EA060C11
:104210009C4511D18A000F23934017FA02F224EA39
:1042200003041443282D019308BFC0F814C003D021
:10423000482D08BFC0F810C001310829E3D104603F
:10424000FF2E20D944680021012201F1080312FA4F
:1042500003F303EA060C9C4511D18A000F23934017
:1042600017FA02F224EA03041443282D019308BF2D
:10427000C0F814C003D0482D08BFC0F810C00131E9
:104280000829E1D1446003B0F0BDC0464FF0FF33D0
:104290000380022383700423C3707047836819422C
:1042A0000CBF002001207047806880B27047C04674
:1042B000C36819420CBF002001207047C06880B25B
:1042C0007047C04601617047416170470AB10161A2
:1042D00000E041617047C046C160704741F48033DF
:1042E000836181618361836983697047DFF818C0E6
:1042F0004FF68073DCF8002041EA001102EA030364
:104300001943CCF80010704700000140014B1860C1
:104310007047C0461C00204230B500F4401304042E
:104320000D461449240CB3F5401FD1F804C006D142
:104330004B682CF0706223F070634B6010E010F457
:10434000801F05D000F47022120C0323934003E079
:10435000430D1B0114FA03F32CEA030343F07062CC
:1043600025B1430D1B0114FA03F31A43014B5A60A4
:1043700030BDC0460000014010B501F00304A400A8
:104380000F23A340A040DFF820C0890802315CF869
:10439000212022EA03024CF821205CF82130184346
:1043A0004CF8210010BDC0460000014000B50120BE
:1043B000012181B000F0F6FB0120002100F0F2FBAA
:1043C00001B000BD00B5274B83B0984201902BD0BF
:1043D0000CD8A3F5006398421AD003F58063984285
:1043E0001CD0A3F5006398423AD10BE01E4B9842D3
:1043F00026D003F58063984228D0A3F50063984245
:104400002ED117E00420012100F0CCFB042024E091
:104410000820012100F0C6FB08201EE01020012129
:1044200000F0C0FB102018E02020012100F0BAFBB2
:10443000202012E04020012100F0B4FB40200CE0DD
:104440008020012100F0AEFB802006E04FF4807058
:10445000012100F0A7FB4FF48070002100F0A2FBC7
:1044600003B000BD00140140001C01400B4B4FF095
:10447000FF316FF07042C3F880101846C3F88420F3
:10448000C3F88011C3F884210021002202F1C00387
:1044900001320F2A40F82310F8D1704700E100E004
:1044A000094A4FF020630949536000239360D160AB
:1044B000136153619361D36113625362013B936251
:1044C000D36213637047C04600ED00E00000FA05B8
:1044D00040F0BE60024B40F42020D8607047C046D8
:1044E00000ED00E030B5C37805785BB31A4B417836
:1044F000DA681A4C6FEA020202F4E062120AC2F1B0
:10450000040399400F23D340827805F00300134041
:104510000B43C0001B01FF22824083404FEA950CF1
:104520000CF1C00C54F82C10134021EA02010B438B
:1045300044F82C3005F01F0201239340690944F828
:10454000213008E005F01F02012393406909034A66
:10455000203142F8213030BD00ED00E000E100E004
:104560000023037043708370C3707047034B04488B
:104570005B6803EA0000000B7047C04600ED00E0F6
:1045800000F03F0000F01F0301229A404009054B54
:10459000403053F820001040904214BF002001200A
:1045A0007047C04600E100E0014B18607047C0460C
:1045B00000EF00E04109012300F01F008340024AA0
:1045C000603142F82130704700E100E0024B58684A
:1045D0008005800D7047C04600ED00E000F01F032D
:1045E00001229A404009054B803053F820001040CA
:1045F000904214BF002001207047C04600E100E057
:10460000014B18687047C04600ED00E021F06041A2
:1046100021F07F01014B01439960704700ED00E0FC
:10462000014A024BDA6070470400FA0500ED00E031
:10463000014A024BDA6070470100FA0500ED00E024
:1046400021B1054A136940EA030303E0024A1369F2
:1046500023EA00031361704700ED00E000F01F0043
:10466000012313FA00F021B1054A536A40EA03031B
:1046700003E0034A536A23EA000353627047C046CB
:1046800000ED00E010B5144CE3686FEA030303F497
:10469000E0631B0AC3F1040C01FA0CF14FF0FF0CAC
:1046A0002CFA03F31A400A4300F0C001400900F05D
:1046B00018000CFA00FC120182408909063154F8F6
:1046C000213023EA0C0344F8213054F821301A43F6
:1046D00044F8212010BDC04600ED00E0800A00F043
:1046E0000F0001238340044A506A03EA0000984205
:1046F00014BF00200120704700ED00E000F01F0013
:1047000001238340024A51680B4353607047C046FF
:1047100000ED00E000F01F00013801238340024A51
:1047200051680B435360704700ED00E0800B00F0D0
:104730000F0001238340044A506A03EA00009842B4
:1047400014BF00200120704700ED00E0830C13F03F
:10475000030302D10D4BD86A17E0012B13D103F1EB
:10476000604303F56C43FE33020D013302F0030294
:10477000996AD30031FA03F0022A14BF00F00F0047
:1047800000F0FF0001E0014B186B704700ED00E006
:1047900010F4800F0BBF024B014B586B986B7047A6
:1047A00000ED00E000B581B001F014FD01B000BDE6
:1047B00000B5000181B001F00AFD01B000BDC046A6
:1047C00000B581B001F001FD01B000BD00B581B0C0
:1047D00001F0F9FC01B000BD00B581B001F0F1FCC1
:1047E00001B000BD00B581B001F0E9FC01B000BD31
:1047F000014B18607047C04620000E42014B186004
:104800007047C04610000E42034A136823F0E003CD
:10481000184310607047C04600700040014B18609C
:104820007047C046A0000E42034B5B6818420CBFA5
:10483000002001207047C04600700040024A136803
:1048400043EA800313607047007000400B4A00B5D4
:10485000136881B043F004031360136843F002034C
:10486000136002F1204202F5FA421032136843F05D
:104870000403136001F07EFC01B000BD0070004035
:104880000C4A00B5136881B023F00303184310608D
:1048900002F1204202F5FA4210321368012943F076
:1048A0000403136002D101F065FC01E001F064FC37
:1048B00001B000BD0070004010B54FF0805420469C
:1048C000012100F07DF92046002100F079F910BDAA
:1048D0000D4A136843F00103136051680B4B01EA62
:1048E00003035360136823F0847323F4803313604D
:1048F000136823F480231360536823F4FE0353608A
:10490000002393607047C046001002400000FFF88B
:104910000B4AB0F5803F136823F4803313601368AB
:1049200023F48023136003D0B0F5802F07D102E079
:104930001368034302E0136843F4A0231360704735
:104940000010024082B00023094901930A68019BCC
:10495000013312F4003F019303D1019BB3F5A06F23
:10496000F4D1034B1868400C00F0010002B070470E
:1049700000100240034A136823F0F80343EAC0031F
:104980001360704700100240014B18607047C0462A
:1049900000004242034A536823F47C13184308433F
:1049A0005060704700100240014B18607047C046CD
:1049B00060004242034A536823F0030318435060E7
:1049C0007047C04600100240024B586800F00C00CF
:1049D0007047C04600100240034A536823F0F003BA
:1049E000184350607047C04600100240034A5368A5
:1049F00023F4E063184350607047C0460010024043
:104A0000034A536823F4605343EAC003536070477A
:104A10000010024021B1054A137840EA030303E085
:104A2000024A137823EA000313707047091002400A
:104A3000014B18607047C046D8004242034A536891
:104A400023F44043184350607047C04600100240B2
:104A5000064A002301281370137008BF107003D09A
:104A6000042801D1052313707047C046201002406E
:104A7000014B18607047C04680044242024A136AE4
:104A8000184310627047C04600100240014B186086
:104A90007047C0463C044242294984464B6803F0B3
:104AA0000C03042B21D0082B1FD14B6803F4701387
:104AB0009B0C9A1C4B6813F4803F08BFC2EB421357
:104AC00006D04B6813F4003F4FEA421306D09B1AFE
:104AD000C3EB831302EBC3031B0207E09B1AC3EB78
:104AE000831302EBC3035B0200E0164B1448CCF8BF
:104AF00000304368144A03F0F0031B09D35CDCF870
:104B00000010D940CCF80410436803F4E0631B0A9A
:104B1000D35C31FA03F3CCF80830436803F46053F4
:104B2000DB0AD35C094AD940CCF80C10436803F483
:104B300040439B0BD35CB1FBF3F1CCF810107047F2
:104B40000010024000127A00B8940008C8940008CF
:104B500021B1054A536940EA030303E0024A53695D
:104B600023EA0003536170470010024021B1054A57
:104B7000936940EA030303E0024A936923EA0003CE
:104B8000936170470010024021B1054AD36940EAA1
:104B9000030303E0024AD36923EA0003D3617047A9
:104BA0000010024021B1054AD36840EA030303E044
:104BB000024AD36823EA0003D36070470010024022
:104BC00021B1054A136940EA030303E0024A13696D
:104BD00023EA00031361704700100240014B186084
:104BE0007047C04640044242014B18607047C046BF
:104BF0004C004242014B18707047C04607100240FB
:104C00004309012B08D103F1804303F5023303F577
:104C1000FF6307331B680CE0022B08D103F18043CC
:104C200003F5023303F5FF6306331B6A01E0044B0F
:104C30005B6A00F01F0033FA00F000F001007047DB
:104C400000100240024A536A43F080735362704777
:104C500000100240034B9B6818420CBF002001204B
:104C60007047C04600100240014B18707047C046A4
:104C70000A1002400A884B88B0F800C013438A88A3
:104C80000CF4415C1343CA8813430A8913434A89CD
:104C900013438A891343CA8913434CEA030C1FFA4E
:104CA0008CFCA0F800C0838B23F400631B041B0C56
:104CB00083830B8A038270474FF000030380438095
:104CC0008380C380038143818381C3814FF00703C5
:104CD000038270474FF00003038043808380C380CA
:104CE0004FF0020303814FF0000343817047C04639
:104CF00021B103889BB243F0400304E0038823F012
:104D000040031B041B0C03807047C04621B1838BFA
:104D10009BB243F4806304E0838B23F480631B0421
:104D20001B0C83837047C046090901238B4099B24D
:104D300022B183889BB241EA030303E083889BB2DC
:104D400023EA01038380704722B183889BB241EA42
:104D5000030303E083889BB223EA01038380704747
:104D600081817047808980B27047C0464FF6FF63EB
:104D7000994217BF038803889BB243F4807308BF2E
:104D80000B4003807047C04621B183889BB243F03B
:104D9000040304E0838823F004031B041B0C8380BA
:104DA0007047C046038823F400631B041B0C038078
:104DB00003889BB2194301807047C04603889BB2A9
:104DC00043F480530380704721B103889BB243F4BE
:104DD000005304E0038823F400531B041B0C0380DE
:104DE0007047C046012914BF038B838A98B270476D
:104DF000008A80B27047C046B1F5804F04D1038865
:104E00009BB243F4804304E0038823F480431B04F3
:104E10001B0C03807047C046038919420CBF002059
:104E2000012070476FEA010189B201817047C046D5
:104E3000838802891FFA83FC012001F00F0310FA16
:104E400003F392B21A4201D1002007E00B0910FAD5
:104E500003F31CEA030F0CBF002001207047C0467B
:104E600001F00F0101238B406FEA03039BB2038122
:104E70007047C046838BF0B523F47A6323F01F0399
:104E80001B041B0C83834FF002030384838B87B0C6
:104E90009FB20B890546022B0C4602D1022100224B
:104EA00026E08B8801A8002B0CBF01260226FFF705
:104EB000F3FDE3882289B3F5007F019B04D103EB66
:104EC00083035B00120205E0520106FB02F203EBD2
:104ED00083035B00B3FBF2F30533134A9BB2A3FBDE
:104EE0000223DB0803F0010212025B0899B292B2BE
:104EF0008B1E9BB2FE2B28BF002228BF022141EA55
:104F00000203E28813439BB22B842388628847EA1A
:104F1000030343F400631343A288134362891343DA
:104F20009BB2AB8307B0F0BDCDCCCCCC00B5164B5B
:104F300083B0984201901BD003F57443984204D08B
:104F4000A3F5784398421DD10AE001214FF4805027
:104F5000FFF728FE4FF480500021FFF723FE11E0F9
:104F60004FF480400121FFF72BFE4FF4804006E014
:104F70004FF400400121FFF723FE4FF400400021D1
:104F8000FFF71EFE03B000BD003C0040042803D123
:104F9000044A1368034303E0024A136823F004033E
:104FA0001360704710E000E0014B58607047C04646
:104FB00010E000E0012803D1084A1368034306E02B
:104FC00010F1020F05D1054A136823F001031360A5
:104FD00002E0024B00229A607047C04610E000E0F9
:104FE00020B1054A136843F0020303E0024A136844
:104FF00023F002031360704710E000E0014B986853
:105000007047C04610E000E0C308022B024606D1FC
:1050100003F1604303F560430E33186801E0034B6E
:10502000D868D04000F001007047C04610E000E0B2
:10503000038882B003F08F0303800388CA889BB281
:1050400013434A88019013439BB203808B880B4A19
:1050500083850B888C4603854FF001038382084BC0
:10506000984214BF00230123904208BF43F001037C
:1050700013B19CF80830038602B07047002C014041
:1050800000340140038C8C4623F001031B041B0CED
:105090000384018C8388F0B59DB2038BBCF8082093
:1050A0009EB2BCF8023021F00201134309049BB206
:1050B000090C43EA0104BCF80630BCF80070838692
:1050C0001A4B1B4A984214BF0023012383B090421D
:1050D00008BF43F001030190EBB102F14042A2F599
:1050E0003052BCF80A30093A04EA02021A434FF679
:1050F000FB7302EA0303BCF8042047F6FF4143EACE
:105100000204BCF80E30BCF80C2005EA0101134380
:105110009BB243EA01054FF68F7306EA03033B4354
:1051200085800383048403B0F0BDC0460034014091
:10513000002C0140038CF0B523F010031B041B0C62
:105140000384038C828823F0200395B2028B1B0416
:1051500096B20A891B0C43EA02134A889BB243EABF
:1051600002139CB2CB880F8803871E4B1E4A9842BD
:1051700014BF0023012383B0904208BF43F0010312
:1051800001908C460BB302F14042A2F53252BCF8BA
:105190000A30013A04EA020242EA03124FF6BF73F0
:1051A00002EA0303BCF8042043EA02139CB2BCF8F1
:1051B0000C2047F2FF3305EA030343EA8203BCF8FD
:1051C0000E209BB243EA82039DB248F6FF7306EAC3
:1051D000030343EA07239BB285800383048403B05F
:1051E000F0BDC04600340140002C0140038CF0B5F6
:1051F00023F480731B041B0C0384038C828823F428
:10520000007395B2828B1B0496B20A891B0C43EA89
:1052100002234A889BB243EA02239CB2CB880F88C0
:1052200083871D4B1D4A984214BF0023012383B07E
:10523000904208BF43F0010301908C460BB302F18A
:105240004042A2F55052BCF80A30013A04EA020288
:1052500042EA03224FF6FF3302EA0303BCF80420BC
:1052600043EA02239CB2BCF80C2044F6FF7305EA23
:10527000030343EA0213BCF80E209BB243EA021375
:105280009DB24FF68F7306EA03033B438580838309
:10529000048403B0F0BDC04600340140002C01403E
:1052A000038CF0B523F480531B041B0C0384038C84
:1052B00085B09BB2029383884A881FFA83FC838B54
:1052C0000E889DB2CB880F89A0F84030174B019211
:1052D000174A984214BF00230123904208BF43F0AD
:1052E000010303900C463BB14FEA8C43A2899B0C0F
:1052F00043EA82131FFA83FC48F6FF7305EA0303AF
:1053000043EA06239BB2029AA0F804C083834DF6B9
:10531000FF7302EA030343EA0733019A9BB243EAAD
:1053200002339BB2038405B0F0BDC0460034014097
:10533000002C01400B8830B504460D4643BB238C3E
:10534000498823F001031B041B0CB5F804C028890D
:105350002384238B228C23F0F3031B041B0C22F0E9
:10536000020243EA001312049BB2120C41F0010145
:1053700043EA0C030A4323832284238BEA8823F025
:105380000C031B041B0C2383238B9BB213432EE0C3
:10539000042B2ED1238CB1F802C023F010031B0480
:1053A0001B0C888809892384238B228C23F4407367
:1053B0001B0522F020021B0D120443EA0133120CDC
:1053C0009BB242EA0C1243EA002392B29BB242F033
:1053D000100223832284238BEA8823F440631B0476
:1053E0001B0C2383238B9BB243EA02239BB22383B0
:1053F00055E0082BB1F802C08888098925D1238C93
:1054000023F480731B041B0C2384A38B228C23F0B6
:10541000F30322F400721B0412041B0C120C43EA67
:10542000011342EA0C229BB292B2034342F480720F
:10543000A3832284A38BEA8823F00C031B041B0C98
:10544000A383A38B9BB2134328E0238C23F48053C4
:105450001B041B0C2384A38B228C23F440731B0599
:1054600022F400521B0D120443EA0023120C9BB2DB
:1054700042EA0C3243EA013392B29BB242F48052C8
:10548000A3832284A38BEA8823F440631B041B0CB0
:10549000A383A38B9BB243EA02239BB2A38330BDB9
:1054A0008C46F0B5BCF800304C888988002C0CBFC5
:1054B0000227002701290CBF02260126BCF808504C
:1054C000002B4BD1038C23F001031B041B0C038422
:1054D000038B028C23F0F3031B041B0C43EA05131C
:1054E00022F002029BB212040B43120C44F00101A1
:1054F0000A4303830284038BBCF8061023F00C03D9
:105500001B041B0C0383038B9BB20B430383038C91
:1055100023F010031B041B0C0384038B028C23F465
:1055200040731B0522F030021B0D120443EA0533C1
:10553000120C9BB242F0100243EA062342EA071221
:1055400003830284038B23F440631B041B0C03833B
:10555000038B9BB243EA01239BB24CE0038C23F004
:1055600010031B041B0C0384038B028C23F4407375
:105570001B0522F020021B0D120443EA0533120C16
:105580009BB242EA041243EA012392B29BB242F078
:10559000100203830284038BBCF8061023F44063DB
:1055A0001B041B0C0383038B9BB243EA01239BB2B6
:1055B0000383038C23F001031B041B0C0384038B64
:1055C000028C23F0F3031B0422F003021B0C1204D1
:1055D00043EA0513120C9BB242F0010233433A43F3
:1055E00003830284038B23F00C031B041B0C038333
:1055F000038B9BB20B430383F0BDC0460A884B88E4
:1056000013438A881343CA8813430A8913434A8978
:1056100013438A8913439BB2A0F844307047C046B5
:105620004FF0FF3383804FF000030380C38043803B
:10563000002303727047C0464FF00003038043808D
:105640008380C380038143818381C3817047C046C7
:105650004FF00003038043804FF0010383804FF03D
:105660000003C380038170474FF000030380438031
:105670008380C380038143818381704721B1038884
:105680009BB243F0010304E0038823F001039B0570
:105690009B0D03807047C04629B1B0F844309BB2DF
:1056A00043F4004303E0B0F844305B045B0CA0F823
:1056B0004430704722B183899BB241EA030303E07F
:1056C00083899BB223EA01038381704781827047FB
:1056D0000A43A0F84820704722B183899BB241EA6F
:1056E000030303E083899BB223EA010383817047AC
:1056F000038923F007031B041B0C03817047C0467A
:10570000038923F070031B041B0C194301810389D7
:105710009BB243F0070303817047C04610B50C46A7
:10572000602C11469C461AD1038C23F010031B04F5
:105730001B0C0384038B028C23F4407322F0300291
:105740001B0512041B0D120C43F4807342F010026F
:1057500043EA0C3342EA01129BB292B217E0038C87
:1057600023F001031B041B0C0384038B028C23F026
:10577000F3031B0422F003021B0C120443F0010389
:10578000120C43EA0C1342F001029BB20A4303835A
:105790000284038923F070031B041B0C44EA0303F7
:1057A000038103899BB243F00703038110BDC04608
:1057B000B0F808C05FFA8CFC41EA0C010A4342EAE7
:1057C000032292B20281038923F077031B041B0C8E
:1057D00043F0770303817047B0F808C05FFA8CFC90
:1057E00041EA0C010A4342EA032292B20281038990
:1057F0009BB243F4804303817047C046B0F808C0B1
:105800005FFA8CFC41EA0C010A4342EA032292B29D
:1058100002817047018582827047C046038823F069
:1058200070039B059B0D194301807047038923F08A
:1058300070031B041B0C194301817047B0F808C0AA
:1058400030B5048B058C24F4407425F0220524F037
:1058500003042D042CF0070C24042D0C4FEA0C4CEF
:10586000240C2A434FEA1C4C44F4807442EA03128D
:1058700041EA0C0144F0010492B2018104830284E4
:1058800030BDC046038B23F070031B041B0C19436F
:1058900001837047038B23F4E0431B041B0C43EA92
:1058A00001239BB203837047838B23F070031B0497
:1058B0001B0C194381837047838B23F4E0431B0443
:1058C0001B0C43EA01239BB28383704721B10388F9
:1058D0009BB243F0800304E0038823F080039B0520
:1058E0009B0D03807047C04621B183889BB243F073
:1058F000040304E0838823F004031B041B0C83804F
:105900007047C04621B183889BB243F0080304E08E
:10591000838823F008031B041B0C83807047C04658
:1059200021B183889BB243F0010304E0838823F014
:1059300001031B041B0C83807047C046038B23F0BC
:1059400008031B041B0C194301837047038B23F4CA
:1059500000631B041B0C43EA01239BB203837047C3
:10596000838B23F008031B041B0C194381837047AE
:10597000838B23F400631B041B0C43EA01239BB2BB
:1059800083837047038B23F004031B041B0C194310
:1059900001837047038B23F480631B041B0C43EAD1
:1059A00001239BB203837047838B23F004031B0402
:1059B0001B0C194381837047838B23F480631B0482
:1059C0001B0C43EA01239BB283837047038B23F0B4
:1059D00080031B041B0C194301837047038B5B047A
:1059E0005B0C43EA01239BB203837047838B23F054
:1059F00080031B041B0C194381837047838B5B045A
:105A00005B0C43EA01239BB283837047038C23F032
:105A100002031B041B0C194301847047038C23F001
:105A200008031B041B0C194301847047038C23F0EB
:105A300020031B041B0C43EA01139BB20384704731
:105A4000038C23F080031B041B0C43EA01139BB25D
:105A500003847047038C23F400731B041B0C43EA7C
:105A600001239BB203847047038C23F400631B045F
:105A70001B0C43EA01239BB203847047038C23F47D
:105A800000531B041B0C43EA01339BB20384704791
:105A900001238B408A40B0F820C01FFA8CFC2CEA0E
:105AA000030CA0F820C0038C1A4392B20284704702
:105AB00004238B408A40B0F820C01FFA8CFC2CEAEB
:105AC000030CA0F820C0038C1A4392B202847047E2
:105AD00001238B409446028C82B092B222EA0302E8
