:100000000000012029860008353100083931000838
:100010003D31000841310008453100080000000072
:100020000000000000000000000000004D3100084A
:10003000493100080000000051310008E932000891
:1000400055310008593100085D3100086131000860
:1000500065310008693100086D3100087131000810
:1000600075310008793100087D310008000000007A
:100070000000000000000000000000000000000080
:100080000000000000000000553200089D3100080B
:10009000A1310008A5310008A9310008AD310008E0
:1000A000B1310008B5310008B9310008BD31000890
:1000B00061320008C1310008C5310008C9310008AB
:1000C000CD310008D1310008D5310008D931000800
:1000D000DD31000849320008E13100083D320008F6
:1000E000E5310008E9310008ED310008F131000880
:1000F000F5310008F9310008FD310008013200082F
:1001000005320008093200080D32000811320008DB
:100110001532000831320008193200081D3200087B
:100120002132000825320008293200082D3200084B
:100130005FF800007047C046FEE7C046FEE7C046D5
:10014000FEE7C046FEE7C0467047C0467047C0465F
:100150007047C0467047C0467047C0467047C046AB
:100160007047C0467047C0467047C0467047C0469B
:100170007047C0467047C0467047C0467047C0468B
:100180007047C0467047C0467047C0467047C0467B
:100190007047C0467047C0467047C0467047C0466B
:1001A0007047C0467047C0467047C0467047C0465B
:1001B0007047C0467047C0467047C0467047C0464B
:1001C0007047C0467047C0467047C0467047C0463B
:1001D0007047C0467047C0467047C0467047C0462B
:1001E0007047C0467047C0467047C0467047C0461B
:1001F0007047C0467047C0467047C0467047C0460B
:100200007047C0467047C0467047C0467047C046FA
:100210007047C0467047C0467047C0467047C046EA
:100220007047C0467047C0467047C0467047C046DA
:1002300000B581B000F002FC01B000BD00B581B096
:1002400000F0F6FB01B000BD00B581B000F0FCFB92
:1002500001B000BD00B581B000F0FEFA01B000BDF4
:1002600000B54FF0804081B0102104F04FFF00280E
:1002700031D010214FF0804004F054FF00F0ECFA30
:100280004FF0804004F02AFF144B18601968144B9B
:100290004FF080401B88C91889B204F0D3FE114B7F
:1002A0001B8813F0030F01D100F0E2FA0D4B1B88FD
:1002B00013F01F0F03D100F0CDFB02F02FF9094B13
:1002C0001B8813F0FF0F01D100F0CAFB054A138809
:1002D00001339BB2138001B000BDC046F80200207C
:1002E00032010020FE02002000B581B001F0B0FD17
:1002F00001B000BD00B581B001F04EFD002001F05D
:10030000BFFD012000F0FEFB002001F05BFE02209B
:1003100001F058FE012001F055FE02F0C1F91C4821
:100320001C490022835C8B540132182AFAD11A4BE3
:1003300008221A700121072001F0AAF9322001F0E9
:10034000B9FD0021072001F0A3F9322001F0B2FD30
:100350000121072001F09CF9322001F0ABFD0021C2
:10036000072001F095F9322001F0A4FD01210720BA
:1003700001F08EF9322001F09DFD0720002101F0EF
:1003800087F9322001F096FD00F082FEFEE7C046BC
:1003900012010020280A0020830A00207047C0466E
:1003A000044B00221A60044B044A1B680A331B18D2
:1003B00013607047040300200C0300200803002092
:1003C000094A00B5136881B001331360074B126806
:1003D0001B689A4201D9012004E0054B186801F01E
:1003E00021FD002001B000BD04030020080300200F
:1003F0000003002030B5054681B00024002001F044
:100400000BFE10B9204601B030BD002001F028FEDF
:1004100028550134F2E7C04670B506460D46002463
:1004200004E0315D002001F081FF0134AC42F8DBD3
:10043000204670BD00B5002081B001F0C3FD01B0C1
:1004400000BDC04610B50C4610B14FF0FF3008E0BB
:10045000002001F05BFB034B034AB3FBF4F3136092
:10046000002010BD001BB70000030020014B1868DE
:100470007047C04600000020014B98707047C0468E
:1004800010030020014B18717047C0461003002074
:10049000014B1B185971704710030020014BD87095
:1004A0007047C04610030020034B1B7918420CBF55
:1004B000002001207047C046B0030020014BD878CF
:1004C0007047C046B0030020014B1B185879704795
:1004D000B003002000EB012080B27047C0B270472B
:1004E00000F47F40000A704730B5534981B00B6873
:1004F000002B00F09F80514B514A9B78FE2B00F05F
:100500009580126822B94F4B1A704F4B06221A7011
:100510004C4D4D4C2B7821784C48C91AC018FFF728
:1005200069FF2B78C0182378C0B28342287003D9A2
:10053000FFF746FF012808D0424B00201A784349B4
:1005400002F1FF3CA2F1020E19E02B783C4A0BB9F4
:10055000062300E0072313600022374B4FE00B5CBB
:10056000FF2B04D101EB00035B78FF2B09D0704512
:1005700003D111F80C30FF2B03D0431CD8B26045D7
:10058000EDDB88B10021C0EB020CDFF8C0E006E033
:100590000EEB01031B5C0EF801304B1CD9B2614518
:1005A000F6DB284B121A1A70264D274C95F800C01E
:1005B0002378634521D8214B24489A7883789A423E
:1005C00003D01F4B07221A60C6E7C3780433D9B2A1
:1005D0008C4521700BD26044CCEB0101FFF70AFF80
:1005E0002B78C0182378C0B28342287005D8174BE7
:1005F0000021D87800229C460AE0114B05221A609F
:1006000018E00CEB01039B781344DAB24B1CD9B20F
:100610008842F6DA0D4B6FEA02021B18DB78D2B281
:1006200093420549064A01D0072300E001231360E5
:1006300000230B6001B030BDF80300201003002040
:1006400000000020F7030020F6030020B003002084
:1006500030B52D4981B00B68012B52D02B480123B6
:1006600090F803C00B60BCF1980F0BD803795A1EA9
:10067000D2B2833B18BF0123052A94BF002303F0A5
:1006800001032BB1224A0423136000230B6038E0DE
:100690004FF0FF33037043700021002206E000EBAF
:1006A00001039B781344DAB24B1CD9B28C45F6DABD
:1006B000164B6FEA02026344DA70154B1B68063B67
:1006C000012B01D8FFF7B6FE104DEC782846043414
:1006D000E4B22146FFF7A0FEC0B2844205D00C4B25
:1006E00002221A600022084B0AE02B79022B02D169
:1006F000A879063000E00620FFF752FE044B0022E6
:100700001A6001B030BDC046F8030020100300207D
:100710000000002010B5FFF79BFF054A13682BB9B6
:100720001446FFF7E1FE2368052BFAD010BDC04642
:100730000000002000B50B4B81B01B6894467BB9CC
:10074000094A032313711FFA8CF393711B0AD371A7
:10075000052390705171D370FFF7DCFF01B000BD2D
:10076000FEE7C046F80300201003002000B50B4B45
:1007700081B01B688BB90A4A022313719371042359
:1007800090705171D370FFF7C5FF064B9A79587975
:1007900000EB022080B201B000BDFEE7F8030020AC
:1007A00010030020B003002000B5094B81B01B6886
:1007B000944663B9074B03221A7104229870597149
:1007C00083F806C0DA70FFF7A5FF01B000BDFEE7B1
:1007D000F80300201003002000B50A4B81B01B680D
:1007E00073B9094A02231371012393710423907092
:1007F000D3705171FFF78EFF044B587901B000BDE3
:10080000FEE7C046F803002010030020B0030020DC
:1008100000B5074B81B01B684BB9064B01221A711A
:1008200002229870DA70FFF775FF01B000BDFEE795
:10083000F80300201003002000B581B0FFF7AEFDE3
:1008400001B000BD00B581B0FFF7FCFD01B000BDF7
:100850007047C0467047C04600B581B001F078FBD4
:1008600001B000BD00B581B001F0F2FA01B000BDE9
:1008700010B5634B82B000248DF807401A784FF40E
:1008800000510132D2B21A701A785E4802F01F028B
:100890001A7002F025FF01280CBF8DF807008DF8B3
:1008A00007409DF80730DFF860C119465748002B14
:1008B00040D18CF80030564B1F221A70554B1970DE
:1008C0000378DBB1544A1388013B9BB21380138831
:1008D00099B299B90378013BDBB2037040F212433D
:1008E00013804E4A13780BB1117001E0012313708D
:1008F000464B1B781A460BB9484B1A70474B1B786E
:100900004BB98021464802F0FFFE45484FF4807104
:1009100002F0FAFE08E04248802102F0F5FE40486D
:100920004FF4807102F0F2FE3D484FF4007102F086
:10093000EBFE30E00A230370374B40F212421A807C
:100940002F4B1A789CF800309A4204D33448802107
:1009500002F0DAFE03E03248802102F0D7FE284B95
:100960001A782B4B1B789A4205D32D484FF480718F
:1009700002F0CAFE04E02A484FF4807102F0C6FE7D
:100980001F4B1A78234B1B789A42CDD224484FF440
:10099000007102F0BBFE1A4B1A78224B1B789A4268
:1009A00005D318484FF4807102F0AEFE04E01548FC
:1009B0004FF4807102F0AAFE114B1A781A4B1B7883
:1009C0009A4205D30F484FF4006102F09DFE04E007
:1009D0000C484FF4006102F099FE094B1A78134B52
:1009E0001B789A4205D307484FF4805102F08CFEE1
:1009F00004E004484FF4805102F088FE02B010BDBC
:100A00008A0A002000080140840A0020FC0300201C
:100A1000850A0020860A0020FE0300200004002032
:100A200000100140870A0020880A0020890A00205F
:100A300000B581B001F0ECFB01B000BD00B581B0A4
:100A400001F042FB01B000BD00B581B001F05AFBDE
:100A500001B000BD00B581B001F070FF01B000BD74
:100A600070B51F4C1F4E23780133DBB223703568FD
:100A700001F0F8F9401930602378782B12D13268F0
:100A80001949A2FB01239B0933603368174A6E2B77
:100A900001D8012300E000231370124A00231360E1
:100AA0000F4A13700E4B104A1978A1FB02231B0941
:100AB000C3EB0313A1EB430111F0FF0F0ED10B4B5E
:100AC0001B78012B0AD101F095FC38B9FF2001F009
:100AD00079FC162001F082FC01F09CFC70BDC04640
:100AE0000804002004040020898888880904002064
:100AF000024B00221A70024B18887047160400201F
:100B00001404002000B5012881B00AD100F1804012
:100B100000F5843000F57F700330082102F0F6FD07
:100B200003E00348082102F0EFFD01B000BDC0461C
:100B3000000C014030B5264B4FF0000281B01A8006
:100B400002241D4631E00020FFF7DCFF022001F007
:100B5000B1F9012001F036FA0120FFF7D3FF0A2096
:100B600001F0A8F90120212101F0E0FB0120212161
:100B700001F0DCFB40F2311001F09CF90DE00120A6
:100B800001F04AFA0028FAD0012001F069FA212880
:100B900003D14FF001032B8004E0012001F03CFA67
:100BA0000028ECD1631EDCB214B12B88002BCAD014
:100BB000322001F07FF90020FFF7A4FF022001F0AE
:100BC00079F90120FFF79EFF014B188801B030BD75
:100BD0001804002010B5394B1B78012B01D10120DE
:100BE0006BE0374C2378052B0BD83648C3F1060150
:100BF000C01800F0B1F8B0F1FF3F1EBF2378C31852
:100C000023702F4B1C78012C30D90021DFF8B4C0A1
:100C1000601E0DE01CF801300CEB0102FF2B06D129
:100C2000884204DD5378552B01D1F9B102E001313E
:100C3000A142EFDBA14204D1224B4A1E9B5CFF2B59
:100C400000D00A461F4B114603EB020C184604E085
:100C50001CF8013C013100F8013C0130A1420CF1CB
:100C6000010CF5DB164BC2EB04021A70144B1B7817
:100C7000062B20D1134A1378FF2B17D15378552B0D
:100C800014D1D37890786FEA0303DBB298420DD188
:100C9000537911796FEA0303DBB2994206D10A4B0B
:100CA00000EB01221A80054B01221A70054A00232D
:100CB0001370034A1370014B187810BD16040020FE
:100CC000120400200C0400201404002000B580B29F
:100CD00083B0C2B2000A8DF806004FF0FF336FEA0E
:100CE00000008DF802308DF8042055236FEA0202CF
:100CF0008DF8070006210DF102008DF803308DF804
:100D0000052000F043F8062814BF0020012003B09E
:100D100000BDC04600B581B000F01CF801B000BDB8
:100D200000B54FF4614181B000F03EF848B1064B88
:100D300000221A70054B4FF000011980044B01206E
:100D40001A7001B000BDC046160400201404002033
:100D5000120400207047C04670B5064601200D46BB
:100D600001F05AF910B94FF0FF340CE000240120D3
:100D700001F052F90028FAD0012001F071F9305544
:100D80000134AC42F3DB204670BDC04670B5064668
:100D90000D46002404E0315D012001F0C7FA013462
:100DA000AC42F8DB002070BD00B5012081B04FF4EB
:100DB000614100F0ABFE012001B000BD70B5154BE4
:100DC000154A1978535C13B3144B1C7802EB0403D7
:100DD0005B1813F8023C022B19D00120104E114D64
:100DE00010E05A2913D8325C15F811308C46934222
:100DF0000DD84B1CD9B205EB4C03325C5B7801304B
:100E0000934204D3C3B2A342EBD3002000E00820F6
:100E100070BDC0461A0B0020B80000208C0A0020CC
:100E20008E0A002004000020F0B5002581B03A4E63
:100E30003A4F69E03A4A13782B441C2B34D006DC35
:100E4000192B12D01A2B1DD0182B5BD106E0522B78
:100E50004DD0532B52D0512B54D135E0314C207E04
:100E600001F00EF8227E304B2CE02E4C0121607EEA
:100E700000F00EFC607E00216FEA0000C0B200F0BE
:100E800007FC3FE029492A4A0B7803F01F0313703F
:100E90000988284A4B0903F01F031370890A264B5F
:100EA00001F01F0119702DE03378244A03F01F036D
:100EB00013703288530903F01F033B70920A204BD2
:100EC00002F01F021A701DE0164C94F8520001F057
:100ED00079FA01F08FFA18B194F85230FE2B11D143
:100EE00094F8510001F07AFA01F094FA0AE00D4BFF
:100EF00093F8523033B901F0D3FB03E0114B18885B
:100F0000FFF7E4FE6B1CDDB20F4A1378013B9D42F4
:100F100090DB01B0F0BDC046440A0020880A0020E2
:100F20001A0B0020280A0020AD0B0020420A0020E6
:100F3000840A0020850A0020860A0020870A0020F3
:100F4000890A00207B0A00208C0A002030B52C4B37
:100F500081B01B78012B07D02A4B1B78FE2B4CD07D
:100F6000294B1B7C012B48D9284B294993F800C0F9
:100F7000254C284D40EA0C0CE0780B784FF0FF32FE
:100F8000EA540133DBB20B700B780230EA540133C0
:100F9000DBB20B700A78E3786044AB540132D2B212
:100FA0000A700B780222EA540133DBB20B700B7823
:100FB0006FEA000005F803C00133DBB20B700B7859
:100FC000C0B2E8540133DBB2134A0B70137883B913
:100FD00001231370114A12481378E95C0133DBB224
:100FE000137004F0B1F90E4840F22661012204F0BA
:100FF0003FF9094A1378002BFCD101B030BDC0463F
:101000008D0A00208B0A0020280A00201B0B0020DC
:10101000240A002022090020260A0020250A002098
:1010200000480040F0B5012481B0144F144E154D16
:101030001EE0154A1378013B2344D8B23B5C022BD7
:101040000BD12B5B1728335204D80130800019468E
:1010500002F01EF8631CDCB208E02B5D1728335445
:1010600004D801308000295B02F012F8631CDCB266
:10107000064A1378A342DCD801B0F0BDB8000020C6
:10108000280A00208E0A00201A0B00208C0A00205B
:10109000F0B5DFF844446FF03703E370DFF83C3419
:1010A00000224FF478704FF4F841A18360831A70E6
:1010B000DFF82C341F211970DFF8283485B01A703E
:1010C000DFF824341A70DFF824341A70DFF8203483
:1010D0001970FFF72FFDA4F858000021DFF8142441
:1010E00000231370DFF810C4104602E00378642B6D
:1010F000F3D8DFF808341A789CF800309A42F5D01B
:10110000FE48FF4A0378D25C01331046FD4ADBB249
:101110001070FA4AFF28137002D14B1CD9B2DDE7D8
:101120000129DAD9EC4BDB78984201D0FE28D4D1E2
:10113000F04A00231370DFF8C0C3114602E00B78B9
:10114000642BCAD8ED4B1A789CF800309A42F6D03E
:10115000EA49EB4A0B78D25C0133DBB20B70931E89
:101160005FFA83FCE84BBCF18F0F174683F800C091
:10117000B3D8E04A00231370DFF87CE3114602E0A5
:101180000B78642BA9D8DD4B1A789EF800309A4270
:10119000F6D0DA49DA4A0B78DFF858E3D15CDB4A5B
:1011A00001331170D54ADBB2137007EB0003C91885
:1011B000CDB20020D04C1BE000238EF8003003E0BD
:1011C0009EF80030642B88D8CC4B1A7823789A424A
:1011D000F6D0CA49CA4B0A78CD499B5C01320B5400
:1011E0000B5CD2B25B19DDB2C44B1A70431CD8B28F
:1011F0008445E1DAC64B00241A78C64BB64E1A7005
:1012000004E0022000F00EFE631CDCB273799C4205
:10121000F7D3FF2DBD4909D0B848B74A03781370FA
:101220000B78012B3FF459AF102052E10D7805F1F6
:101230007D03DBB2012B2AD8B54A02215378A7F1EE
:10124000030E18461646A44C03F1010C1DE0725C17
:10125000E3789A4216D10122DFF8B4C205E01CF807
:1012600003300CF80230531CDAB202EB0103824265
:10127000DBB2F4D9A54B05F07F021A70A24B421CD9
:101280001A7004E001EB0C03D9B27145DFDB9F4B10
:101290001B78032B0CD1FFF791FD0446FFF756FE98
:1012A000082C3FF41AAFFFF7BDFEFFF7BDFD14E7B2
:1012B000022B40F0D480934B1B78FE2B3FF40DAFF4
:1012C000854E337C002B3FF408AF9149914A4B780F
:1012D000127800249B18013BDBB202934B78002567
:1012E0000233DBB20393F37801938B4B1F7800F04A
:1012F000B9FD86F832003336631CDCB2204600F0BC
:101300001FFE800826F8150001350F2CF4D1019935
:10131000039A07EB01031344DFB201F0C7FA7F4CD5
:10132000208001F0C9FA24F8020C01F0CBFA24F86D
:10133000040C01F0CDFA608001F0D0FAA08001F039
:10134000D3FA7749E0800B7876484FF0FF32C254E9
:101350000133DBB20B700B782A3CC2540133DBB291
:101360000B700A78E3780E4683540132D2B20A70C9
:101370000B78039AC2540133DBB2674A0B700B78C7
:101380001278C2540133DBB20B70624B1D7840E01F
:101390001E2D03D100F0D2F8A0770DE0572D05D116
:1013A000FFF718FCC0B284F8570005E0552D03D1B3
:1013B000FFF79EFB5C4B18805C480299425D8D42B2
:1013C0002CBF00230123022A14BF002303F00103D2
:1013D000A3B1615B33785348CAB2C2540133DBB264
:1013E00033703378090AC154D2190133DBB2D2B257
:1013F000337052186B1CD7B2DDB208E0625D494908
:101400003378CA540133DBB2D2193370D7B26B1CB4
:10141000DDB2029A9542BBD941496FEA07020B78C7
:101420004048D2B2C2540133DBB2414A0B70137848
:1014300083B9012313703F4A1378C15C0133DBB2D7
:1014400013703D4803F080FF3B4840F226610122C3
:1014500003F00EFF364A1378002BFCD13DE60D2B2E
:1014600020D12B4A9378F02B7FF437AED378552BCD
:101470007FF433AE13790F2B7FF42FAE5379AA2B61
:101480007FF42BAE204B1B78062B7FF426AE214B2E
:10149000187859283FF621AE01305178800001F0CC
:1014A000F7FD1AE6012B09D1164B1B78FE2B03D151
:1014B000094BD87800F0FEFC00200AE0062B01D092
:1014C000072B05D10020FFF741FD02F0CBFA04E61F
:1014D0004020FFF73BFD00E6280A0020840A002098
:1014E000850A0020860A0020870A0020880A00203A
:1014F000890A0020270A00201A0600201B06002067
:101500001A0400208B0A00208C0A00208D0A00207B
:101510008E0A00201A0B00201B0B0020520A00200C
:10152000240A0020220900207D0A0020B8000020A3
:10153000260A0020250A00200048004010B54FF47C
:101540008041094802F0CCF84FF40041441E18BF16
:101550000124054802F0C4F801281CBF44F002032E
:10156000DCB2204610BDC0460008014070B50B4CEF
:101570008021204602F0BEF84FF4807106462046D6
:1015800002F0B8F84FF400710546204602F0B2F8B8
:10159000800040EA45003043C0B270BD00100140F9
:1015A00000B5012881B009D100F1804000F58630F6
:1015B00000F57F7003304FF4004132E0022809D17A
:1015C00000F1804000F5843000F57F7002304FF468
:1015D000805126E0042807D100F1804000F58630D4
:1015E00000F57F7040211CE0082808D100F1804000
:1015F00000F5863000F57E704FF4005111E01028A0
:1016000008D100F1804000F5863000F57C704FF481
:10161000804106E0402801D0002007E004484FF454
:10162000807102F067F8013818BF012001B000BDD9
:101630000008014010F0010F10B5044604D0134813
:10164000802102F063F803E01048802102F05CF88A
:1016500014F0020F05D00D484FF4807102F056F8D7
:1016600004E00A484FF4807102F04EF814F0040FC1
:1016700005D006484FF4007102F048F804E0034832
:101680004FF4007102F040F810BDC0460010014058
:10169000012910B500F0010304462DD123B12D48D6
:1016A0004FF4004102F032F814F0020F04D02A483F
:1016B0004FF4805102F02AF814F0040F03D02548AB
:1016C000402102F023F814F0080F04D021484FF411
:1016D000005102F01BF814F0100F04D01D484FF415
:1016E000804102F013F814F0400F32D01B484FF441
:1016F000807102F00BF82CE023B116484FF4004142
:1017000002F002F814F0020F04D013484FF4805195
:1017100001F0FAFF14F0040F03D00E48402101F04D
:10172000F3FF14F0080F04D00A484FF4005101F001
:10173000EBFF14F0100F04D006484FF4804101F085
:10174000E3FF14F0400F04D004484FF4807101F01F
:10175000DBFF10BD00100140000C014000080140FB
:1017600008B9064B08E0012808BF054B04D0022841
:1017700001D0002001E0034B1868704734010020BD
:10178000380100203C01002070B54FF4405182B078
:101790004FF0006002F05CF901AD4FF4C06002F060
:1017A000B9F801240026252328468DF804308DF849
:1017B00005608DF806408DF8074002F0B5F8352336
:1017C0008DF80430284602238DF806308DF8056028
:1017D0008DF8074002F0A8F827238DF8043028463A
:1017E00003238DF806308DF805608DF8074002F070
:1017F0009BF81C2328468DF804308DF805408DF8A1
:1018000006608DF8074002F08FF802B070BDC04648
:10181000F0B583B001AC5F4D204601F059FF4FF4A5
:10182000C8530326ADF8043028464FF01003214674
:101830008DF807308DF8066001F0F6FE4FF4005386
:10184000ADF804302846282321468DF8073001F0F2
:10185000EBFE4FF48063ADF8043028464FF00403EC
:1018600021468DF8073001F0DFFE4FF0FF03ADF8A1
:10187000043028464FF00003214618278DF8073022
:1018800001F0D2FE4FF4007328462146ADF8043033
:101890008DF806608DF8077001F0C6FE4CF200036B
:1018A000ADF8043028464823214605F580658DF8BB
:1018B000073001F0B9FE41F23C13ADF80430284680
:1018C0004FF0100321468DF807308DF8066001F0C7
:1018D000ABFE4FF40863ADF8043028464FF0040324
:1018E00021468DF8073001F09FFE4EF240632846F6
:1018F0002146ADF804308DF806608DF8077001F0D0
:1019000093FE4FF00303ADF8043028464FF0000378
:10191000214605F580658DF8073001F085FE4EF60D
:10192000C073ADF8043028464FF0100321468DF8FF
:1019300007308DF8066001F077FE4FF4805328469B
:101940002146ADF804308DF806608DF8077001F07F
:101950006BFE4FF03F03ADF8043028464FF0000314
:1019600021468DF8073001F05FFE4FF00403214659
:101970000948ADF804308DF8073001F055FE042019
:10198000012101F0EBFE0548012101F0E7FE03B063
:10199000F0BDC046000801400014014000043000C2
:1019A00010B51E4C86B020464FF4006101F0ACFE2D
:1019B00020464FF4806101F0A7FE4FF00003ADF820
:1019C00006304FF48273ADF808304FF00003ADF8E5
:1019D0000A304FF00203ADF80C304FF00103ADF8C0
:1019E0000E304FF40073ADF810304FF00803ADF82F
:1019F0001230A4F558444FF00003ADF814302046DF
:101A00004FF007030DF10601ADF8163002F054FB5C
:101A10002046012102F08EFB06B010BD00100140EF
:101A200010B586B001AC204601F062F90121002218
:101A30004FF460238DF809108DF8141031482146B9
:101A400001928DF808200393049201F02DF92E489D
:101A5000214601F029F907232A480A21012201F031
:101A6000ABF928484FF40871002201F05FF9072311
:101A700025480421012201F09FF9002222484FF459
:101A8000087101F053F91F48012101F03BF91E488C
:101A9000012101F037F91B4801F054F9194801F010
:101AA00057F90028FAD100F1804000F5943001F098
:101AB00049F9154801F04CF90028FAD100F18040AD
:101AC00000F5923001F04AF90E4801F04DF9002876
:101AD000FAD100F1804000F5943001F03FF90A4856
:101AE00001F042F90028FAD100F18040012100F50F
:101AF000923001F03FF90448012101F03BF906B0B2
:101B000010BDC046002401400028014070B584B0DB
:101B1000044668460D4603F071FB4FF00003ADF834
:101B20000430ADF80630ADF80830ADF80C304FF0A9
:101B30000C036E460095ADF80A3084B91D4B1E4863
:101B40001D6003F0EFFC1C48694603F09DFC1A4839
:101B500040F22551012203F08BFB174824E0012CB1
:101B600010D1164B16481D6003F0DCFC1448694682
:101B700003F08AFC124840F22551012203F078FB61
:101B80000F4811E0022C12D10E4B0F481D6003F0DC
:101B9000C9FC0D48694603F077FC0B4840F225511B
:101BA000012203F065FB0848012103F053FB04B058
:101BB00070BDC046340100200038014038010020CB
:101BC000005000403C0100200048004000B581B0BA
:101BD00002F0A0F84FF4803002F0BCF802F0D4F824
:101BE000012824D1102001F0A3FA022001F088FA84
:101BF000002002F013F9002002F024F94FF4806075
:101C000002F016F94FF480304FF4E01102F0E4F8DE
:101C1000012002F0EBF8392002F014FA0028FAD083
:101C2000022002F0E9F802F0F1F80828FBD10121C6
:101C300046F63D6002F0BCF90448012102F0C6F905
:101C4000012001F0F7FF01B000BDC0460F4014189D
:101C500000B542F2283081B002F0C8FB012002F04A
:101C6000E1FB01B000BDC04670B588B00DF11605AE
:101C700028460DF106064FF0804402F0F3FE304690
:101C800002F0FCFE204603F053FA4FF0FF33ADF8AC
:101C90001A3020464FF000032946ADF81630ADF853
:101CA0001C30ADF8183002F0E5FB0122204640F26E
:101CB000D22102F0D1FF4FF00003ADF80630ADF8AD
:101CC0000830ADF80E300B4B20461B883146ADF87E
:101CD0000C3002F007FD2046002103F06BF820468F
:101CE0001021012202F008FF2046012102F0E8FE47
:101CF00008B070BD3201002070B588B00DF1160536
:101D0000244C28460DF1060602F0ACFE304602F0E7
:101D1000B5FE204603F00CFA4FF04703ADF816303D
:101D20004FF00003ADF818304FF4FA63ADF81A30F5
:101D30004FF00003ADF81C302046002329468DF8F3
:101D40001E3002F097FB4FF06003ADF806304FF005
:101D50000103ADF808304FF00003ADF80A30BDF8CC
:101D60001A3020465B08ADF80C3031464FF00203C4
:101D7000ADF80E3002F0B6FC2046002103F01AF850
:101D80002046012102F09CFE2046012102F0A6FE21
:101D900008B070BD0008004010B503F032FCFFF73A
:101DA00015FFFFF7F1FCFFF733FD01F0CDF9194BFB
:101DB00000201968FEF746FD0020FEF7B1FF164B24
:101DC000164C19680220FFF7A1FEFFF729FEFFF766
:101DD0003FFFFFF749FFFFF7E3FDFFF78DFF2046C9
:101DE000102101F093FC2046202104F5806401F0CD
:101DF0008BFC20464FF4806101F086FC4FF40061BB
:101E0000204601F081FC03F0FEFB00F0B5FE00F07F
:101E10001BFE10BD340100203C010020000C0140DD
:101E20007047C046084B0022196805E00023C91816
:101E300001330A2BFBD101328242F7D3024B1960E6
:101E4000024B19607047C046B00B0020B40B002055
:101E5000034A136813B11368013B13607047C0460F
:101E6000B80B002000B5002081B000F069F8034BEA
:101E7000000980B2185C01B000BDC04640010020DE
:101E800000B5012881B00BD100F1804000F584300D
:101E900000F57F7003304FF4807101F035FC04E0F1
:101EA00003484FF4807101F031FC01B000BDC04621
:101EB000000C014010B50446012002F09DFA074BCA
:101EC0001C601A461368002BFCD16FF0010002F071
:101ED00093FA002002F090FA10BDC046B80B002023
:101EE0007B2010B502F0AEF8012801D1022422E0D7
:101EF0007A2002F0A7F8012801D101241BE07C2000
:101F000002F0A0F8012801D1032414E07D2002F0A2
:101F100099F8012801D104240DE07E2002F092F806
:101F2000012801D1052406E07F2002F08BF801286A
:101F30000CBF0624002402F0A7F8204610BDC046BE
:101F4000024B33F8100080B27047C046BE0B002031
:101F500070B5174E1748347800F084FF164D25F8F9
:101F600014001648347800F07DFF083425F814007A
:101F700033780133DBB233703378082B01D100237F
:101F800033700B4D0E4C2B78012254F82310094866
:101F90000723C9B200F010FF2B780848083354F823
:101FA00023100122C9B2072300F006FF70BDC0460E
:101FB000BC0B002000240140BE0B00200028014083
:101FC0004002002038B90E4B4FF000021A801B88E7
:101FD0000C4A9BB212E0012807D10B4B4FF00002D4
:101FE0001A801B88094A9BB208E0022807D1084BD7
:101FF0004FF000021A801B88064A9BB2138070477C
:10200000E0130020DE130020E41B0020E21B002070
:10201000E8230020E623002018B90B4B1A880B4B4D
:102020000CE0012803D10A4B1A880A4B06E002286B
:1020300001D0FF2006E0084B1A88084B1B88981A2D
:1020400018BF01207047C046DE130020E0130020B7
:10205000E21B0020E41B0020E6230020E8230020F0
:1020600048B9134A138801339BB213801388114A6D
:102070009B059B0D18E0012809D10F4A13880133F5
:102080009BB2138013880D4A9B059B0D0CE0022820
:1020900001D0FF200BE00A4A138801339BB2138062
:1020A0001388084A9B059B0D32F81330D8B270474D
:1020B000DE130020DE0B0020E21B0020E2130020D4
:1020C000E6230020E61B002000B50B4881B040F25B
:1020D000255103F0ABF968B1074803F039F9074A15
:1020E000138801339BB213801388054A9B059B0D0F
:1020F00022F8130001B000BD00500040E41B002096
:10210000E213002010B5354840F2255103F08EF956
:1021100000283AD0314803F01BF901210446102071
:10212000FFF7B6FADFF8B8C02E489CF800102E4A28
:102130000378E4B2D454D35CDFF8B0E02C4A0EF854
:10214000013003780133DBB203709CF800300133B7
:10215000DBB28CF800301378002B3ED101231370D2
:10216000244B1B78012B06D1234B24481B781EF8E7
:10217000031003F0E9F8204A2048137840F2266162
:102180000133DBB21370012225E0144840F22661CE
:1021900003F04CF908B31A481A4A037812789342AC
:1021A00009D00378184AD15C0133DBB203700B48C5
:1021B00003F0CAF811E01548102101F0A7FA1348FE
:1021C000202101F0A1FA08200021FFF761FA03485D
:1021D00040F22661002203F04BF810BD00380140A8
:1021E000240A00201E0800201E06002022090020CC
:1021F000260A0020AD0B0020250A002000480040E0
:1022000021080020200800201E070020000C0140AB
:1022100070B5384840F2255103F008F9044600280B
:1022200045D0344803F094F8012104460820FFF714
:102230002FFA314EDFF8C4C0314D3078314A9CF866
:1022400000102B78E4B2D454D35C2F4A2F4C535453
:10225000535C102123549CF800302D480133DBB22D
:102260008CF800302B780133DBB22B7033780133DC
:10227000DBB2337001F03EFA00283AD100F1804021
:1022800000F58630202101F041FA2148102101F0AB
:102290003BFA204B20481A78A15C0132D2B21A7066
:1022A00003F052F81C4840F2266101221FE0114859
:1022B00040F2266103F0BAF8D8B11848184A0378FA
:1022C0001278934209D00378164AD15C0133DBB20D
:1022D0000370084803F038F80BE010200021FFF7E6
:1022E000D7F9114B03481C7040F22661002202F01E
:1022F000BFFF70BD00480040200800201A060020E3
:10230000220A0020220800201A0400201E070020B4
:10231000000C01402108002000380140250A00205F
:10232000240A002022090020260A002010B50C46AD
:10233000E8B900F1804000F58630202101F0E6F98F
:102340001C48102101F0E0F9A1B21B4802F0FCFF8B
:102350001948402103F05EF80028F9D010211548F3
:1023600001F0D4F91348202101F0CEF920E0012832
:102370000ED100F1804000F59E4089B2FF3002F09E
:10238000E3FF0E48402103F045F80028F9D00FE0A4
:1023900002280DD100F1804000F58E4089B2FE3058
:1023A00002F0D2FF0648402103F034F80028F9D0AB
:1023B00010BDC046000C01400038014000500040F4
:1023C00000480040014B18707047C04606240020AA
:1023D000014B18787047C04606240020014B187046
:1023E0007047C04607240020014B18787047C0464C
:1023F00007240020054B1B880BB1012004E0044B8F
:102400001B88181E18BF01207047C046F02300200B
:1024100000240020164B174A1B78FF2B0FD11649BA
:1024200012780B881BBB192A21D8144B1A80144B25
:102430004FF000021A804FF001030B8017E0322B9F
:10244000127801D9322103E0002B14BF1946032171
:102450000C4B332A28BF33221A800B4A01EB81032D
:1024600003EB83031380094B4FF001021A8070477E
:102470000624002007240020F0230020EA23002067
:10248000EE23002002240020042400200024002049
:10249000322901D9322102E0002908BF0321084B6B
:1024A000332834BF024633221A80064A01EB8103E7
:1024B00003EB83031380044B4FF001021A80704733
:1024C000022400200424002000240020074A13884E
:1024D00053B9192808D8064B4FF000011880054B56
:1024E00019804FF0010313807047C046F02300208D
:1024F000EA230020EE23002030B5074D0446214694
:10250000284681B0640802F095FD2846214602F075
:1025100099FD01B030BDC046000800404E4970B57D
:102520000B8873B14D4A13881BB94FF000020A8023
:1025300039E0013B13804A4B1A884A4B33F81200AA
:1025400086E0494B1B88002B00F08480474A1388A3
:10255000002B70D146490B8853B9464B1A88464B1D
:1025600053F82220454B12881A804FF001030B804C
:10257000404B3F4D1A88404BB5F800C053F822300D
:102580003F4E33F81C203F4B02F01F011A80D30945
:1025900003F00F003C4B3180188032B9324B4FF0C2
:1025A00000042C801C80002052E012F0200F374BDA
:1025B00015D012F0400F4FF00104354A1C801CBFAB
:1025C0004B4213802D4B08BF11801B88274A03FB09
:1025D00000F31380264B0CF101021A803AE04FF011
:1025E00000021E291A8008D1244B204A1B8803FBB5
:1025F00000F313800CF101031BE0264A1388012B22
:102600001CBF0124148025D14FF0000313801B4B05
:10261000164A1B88204C03FB00F334F8110013808A
:10262000FFF76AFF32881D4B34F812201A802B887E
:1026300001332B800EE0013B1380144B1B88012BD0
:1026400008D1164A124B18881388C01880B210801F
:10265000FFF752FF70BDC046002400200424002074
:10266000022400207C860008F0230020EC230020B8
:10267000EE230020EA23002080020020E802002050
:10268000F4230020F2230020F6230020F82300206A
:10269000FC230020FE230020E4860008FA2300200B
:1026A00000B5064B4FF000021A80054B81B01A802E
:1026B0000020FFF721FF01B000BDC046002400202C
:1026C000F02300200449054A0B78C0B2D0540133EE
:1026D000DBB20B707047C046082400202424002081
:1026E000014B00221A7070470824002070B562491F
:1026F0008B784A78487902EB0322604B92B21A80B9
:102700000B7912B203EB00231FFA83FC5C4B087AAF
:10271000A3F800C0CB7903EB00239CB2594BC87AD5
:102720001C808B7A03EB00239DB2574B887B1D8066
:102730004B7B03EB00239EB2544B487C1E800B7CEA
:1027400003EB002399B2524B198002F13F0332EAA6
:10275000220228BF1A46921102EB8202D31C32EAEF
:10276000220228BF1A46921002F5007240F2FF338F
:102770009A42C8BF1A4602DC002AB8BF0022454B65
:102780001A800FFA8CF303F13F0233EA230328BFC8
:1027900013469B1103EB8303DA1C33EA230328BFA0
:1027A00013469B1003F5007240F2FF339A42C8BFF4
:1027B0001A4602DC002AB8BF0022374B1A8023B227
:1027C00003F13F0233EA230328BF13469B1103EBB7
:1027D0008303DA1C33EA230328BF13469B1003F557
:1027E000007240F2FF339A42C8BF1A4602DC002A48
:1027F000B8BF0022294B1A802BB203F13F0233EA03
:10280000230328BF13469B11C3F5007240F2FF3328
:102810009A42C8BF1A4602DC002AB8BF0022204BE9
:102820001A8033B203F13F0233EA230328BF134671
:102830009B11C3F5007240F2FF339A42C8BF1A469B
:1028400002DC002AB8BF0022164B1A800BB203F13B
:102850003F0233EA230328BF13469B1103F500729E
:1028600040F2FF339A42C8BF1A4602DC002AB8BFC2
:1028700000220D4B1A8070BD242400200C2400205F
:102880000E240020102400201224002014240020F4
:1028900016240020182400201A2400201C240020C4
:1028A0001E2400202024002022240020014B188810
:1028B0007047C04618240020014B18887047C04656
:1028C0001A240020014B18887047C0461C240020A1
:1028D000014B18887047C0461E240020014B188801
:1028E0007047C04620240020014B18887047C0461E
:1028F00022240020014BB3F9000070470C24002073
:10290000014BB3F9000070470E240020014BB3F9CE
:102910000000704710240020014BB3F900007047FD
:1029200012240020014BB3F900007047142400204A
:10293000014BB3F9000070471624002070B53C4EDF
:102940003C4D00243C48022101F088FC0028F9D0CD
:102950003A484FF4006100F0D9FE315D364801F08D
:1029600021FC3548022101F079FC0028F9D03248D9
:10297000012101F073FC0028F9D02F4801F014FC6C
:102980002B782F4AC0B2D05401332E4A0134DBB227
:102990002B7084FB0223A3EBE47303EB43039C4201
:1029A00004D126484FF4006100F0AEFE092CC9D1D5
:1029B0001F4E204D00242048022101F04FFC00282A
:1029C000F9D01E484FF4806100F0A0FE315D1A4836
:1029D00001F0E8FB1848022101F040FC0028F9D082
:1029E0001548012101F03AFC0028F9D0124801F005
:1029F000DBFB2B78124AC0B2D0540133114A0134A8
:102A0000DBB22B7084FB0223A3EBE47303EB4303E1
:102A10009C4204D109484FF4806100F075FE092CF6
:102A2000C9D1FFF763FE034B00221A7070BDC04688
:102A3000EC02002008240020003800400010014073
:102A4000242400205655555510B54748022101F061
:102A500005FC0028F9D045484FF4806100F056FE8F
:102A60004148202101F09EFB3F48022101F0F6FB86
:102A70000028F9D03C48012101F0F0FB0028F9D0F2
:102A8000394801F091FB3A493A4A0B78C0B2D05428
:102A90000133DBB20B7034483F2101F083FB324835
:102AA000022101F0DBFB0028F9D02F48012101F0C1
:102AB000D5FB0028F9D02C4801F076FB2C492D4A93
:102AC0000B78C0B2D0540133DBB20B7027484FF4FF
:102AD000806100F019FE2448022101F0BFFB0028AC
:102AE000F9D022484FF4806100F010FE1E482321E7
:102AF00001F058FB1C48022101F0B0FB0028F9D07E
:102B00001948012101F0AAFB0028F9D0164801F06C
:102B10004BFB1749174A0B78C0B2D0540133DBB2D4
:102B20000B701148102101F03DFB0F48022101F00C
:102B300095FB0028F9D00C48012101F08FFB0028FB
:102B4000F9D0094801F030FB094C0A4A2378C0B299
:102B5000D0540133DBB205484FF48061237000F09C
:102B6000D3FD0023237010BD003800400010014049
:102B7000082400202424002010B54748022101F039
:102B80006DFB0028F9D045484FF4006100F0BEFD10
:102B90004148202101F006FB3F48022101F05EFB85
:102BA0000028F9D03C48012101F058FB0028F9D059
:102BB000394801F0F9FA3A493A4A0B78C0B2D05490
:102BC0000133DBB20B703448FF2101F0EBFA3248DD
:102BD000022101F043FB0028F9D02F48012101F028
:102BE0003DFB0028F9D02C4801F0DEFA2C492D4A93
:102BF0000B78C0B2D0540133DBB20B7027484FF4CE
:102C0000006100F081FD2448022101F027FB00282B
:102C1000F9D022484FF4006100F078FD1E482321CE
:102C200001F0C0FA1C48022101F018FB0028F9D07D
:102C30001948012101F012FB0028F9D0164801F0D3
:102C4000B3FA1749174A0B78C0B2D0540133DBB23C
:102C50000B701148202101F0A5FA0F48022101F064
:102C6000FDFA0028F9D00C48012101F0F7FA0028FC
:102C7000F9D0094801F098FA094C0A4A2378C0B201
:102C8000D0540133DBB205484FF40061237000F0EB
:102C90003BFD0023237010BD0038004000100140B0
:102CA000082400202424002043680A6823F47023A9
:102CB00023F4807313430A7943EA02234360CB6809
:102CC0008A68D0F808C01A43084B0CEA03031A4379
:102CD0004B7942EA430282600B7CC26A013B22F4D8
:102CE0007002DBB242EA0352C2627047FDF7F1FFA5
:102CF00000230360037143718360C3600123037485
:102D00007047C04619B1836843F0010302E083684D
:102D100023F001038360704719B1836843F4807323
:102D200002E0836823F4807383607047C9B21AB1EC
:102D3000436841EA030302E0436823EA0103436076
:102D40007047C046836843F0080383607047C046FD
:102D50008068C00800F001007047C046836843F0F7
:102D6000040383607047C0468068800800F001005B
:102D70007047C04619B1836843F4A00302E083683A
:102D800023F4A003836070478068800D00F0010089
:102D90007047C0464368013923F4604343EA413336
:102DA0004360704719B1436843F4006302E043682D
:102DB00023F4006343607047092930B594460C46FC
:102DC0001D464FEA41020BD912191E3A07239340C0
:102DD00015FA02F2C16821EA03011143C16009E05A
:102DE00012190723934015FA02F2016921EA03013F
:102DF00011430161BCF1060F0CD80CEB8C02053AB3
:102E00001F23934014FA02F2416B21EA030111439C
:102E100041631BE0BCF10C0F4FEA8C020BD86244FB
:102E2000233A1F23934014FA02F2016B21EA0301B3
:102E3000114301630AE06244413A1F23934014FAAC
:102E400002F2C16A21EA03011143C16230BDC046EA
:102E500019B1836843F4801302E0836823F480137C
:102E600083607047C06C80B27047C046014B1868E1
:102E70007047C0464C24014019B1436843F4806355
:102E800002E0436823F480634360704719B14368EC
:102E900043F4805302E0436823F480534360704757
:102EA000836823F4E04319438160704719B1836854
:102EB00043F4004302E0836823F4004383607047D7
:102EC00019B1836843F4021302E0836823F4021308
:102ED000836070478068400D00F001007047C04675
:102EE000092930B58C4615461C464FEA41020BD9DC
:102EF00062441E3A0723934014FA02F2C16821EAA1
:102F000003011143C16009E062440723934014FAAE
:102F100002F2016921EA030111430161836B1F2160
:102F200003F440126FEA12522A440332D2B202EB87
:102F3000820291400CFA02F223EA010313438363F5
:102F400030BDC046836B013923F4401343EA01537B
:102F50008363704782B00A5002B0704782B001901C
:102F60002830405880B202B07047C046436823F40E
:102F7000400323F400731943416070474162826249
:102F80007047C046436823F01F03194341607047F0
:102F900020B1054A936843F4000303E0024A9368B2
:102FA00023F4000393607047002401400368194232
:102FB0000CBF0020012070476FEA010101607047DB
:102FC0004268036813EA112301D1002004E0CBB268
:102FD00013420CBF002001207047C0466FEA112148
:102FE0000160704700B5144B83B0984201900FD038
:102FF00003F5A053984213D0A3F5C053984219D1BA
:103000004FF40070012100F0EFFF4FF400700EE06C
:103010004FF48060012100F0E7FF4FF4806006E08C
:103020004FF40040012100F0DFFF4FF40040002189
:1030300000F0DAFF03B000BD00280140014B18602A
:103040007047C04604860D42014B18607047C04669
:1030500000860D42014B18607047C04688860D42BD
:10306000044A938D23F460731B041B0C1843908552
:103070007047C046006C0040044A938D23F07F03E4
:103080001B041B0C034393857047C046006C004033
:1030900000F1804000F5D8400180704700F1804089
:1030A00000F5D840008880B27047C046014B1868D0
:1030B000C0B27047A0860D42034A938E9BB243F084
:1030C000010393867047C046006C0040014B1868AE
:1030D000C0B27047A4860D42034A938E9BB243F060
:1030E000020393867047C046006C004000B5012083
:1030F00081B000F095FF002000F092FF01B000BD0C
:10310000044A136803F0380313601368184310600F
:103110007047C04600200240044A136823F00803A9
:1031200013601368184310607047C04600200240C7
:10313000044A136823F010031360136818431060E7
:103140007047C04600200240034B044A5A6002F117
:1031500088325A607047C04600200240230167450C
:10316000024A136943F08003136170470020024054
:10317000014BD8698008704700200240014B186A53
:103180007047C04600200240024BD869400800F05A
:103190000100704700200240024B1868400900F00F
:1031A000010070470020024021B1054A136940EA3E
:1031B000030303E0024A136923EA00031361704723
:1031C00000200240012804D1054BDB6903F0010017
:1031D00005E0034BDB6818420CBF0020012070475C
:1031E00000200240014BD8607047C04600200240DA
:1031F000094AD36813F0010F01D001200BE0D36816
:1032000013F0040F01D0022005E0D36813F0100F73
:1032100014BF0320042070470020024010B5234A49
:1032200082B0D368014613F0010F01D001202AE0DB
:10323000D36813F0040F01D0022024E0D36813F008
:10324000100F14BF032004201DE00194CDF804C02A
:1032500002E0019B013B0193019B002BF9D1D36854
:1032600013F0010F01D001200BE0D36813F0040F1D
:1032700001D0022005E0D36813F0100F14BF032023
:103280000420013903E0094A00244FF0FF0C0B1E13
:1032900018BF0123012814BF002303F00103002BF2
:1032A000D3D1002908BF052002B010BD0020024084
:1032B000F0B5134B134C81B0A36003F1883305467E
:1032C000A3600F200E461746FFF7A8FF042815D16C
:1032D00023690D4A43F01003236145F0F80346EAE1
:1032E000030347EA030353800F20FFF797FF0128EA
:1032F0001FBF226941F6EF731340236101B0F0BD97
:10330000230167450020024000F8FF1F30B5054645
:1033100081B040F6FF70FFF781FF04283CD11F4CBD
:103320001F4B00F57E60A36003F18833A36023691F
:103330001B3043F020032361236943F040032361E2
:10334000FFF76CFF042820D1236941F6DF7203EAFE
:1033500002022261236943F0100323611DB1114B66
:103360004FF0000202E00F4B4FF0A5021A8040F62A
:10337000FF70FFF753FF01280ED0084941F6EF73A5
:103380000A6902EA03030B6106E001281FBF2269F4
:1033900041F6DF731340236101B030BD00200240CD
:1033A0002301674500F8FF1F10B504460F20FFF703
:1033B00035FF042850D1294A294B6FEA0404936051
:1033C00003F1883393601369E1B243F01003FF29DE
:1033D000136104D0234B0F201981FFF71FFF04F462
:1033E0007F431A0AB2F1FF0318BF0123042814BF58
:1033F000002303F0010323B11A4B0F205A81FFF77A
:103400000DFF04F47F031A0CB2F1FF0318BF012370
:10341000042814BF002303F0010323B1114B0F2034
:103420009A81FFF7FBFE220EB2F1FF0318BF0123C2
:10343000042814BF002303F0010323B1094B0F201C
:10344000DA81FFF7EBFE01281FBF044941F6EF7355
:103450000A69134018BF0B6110BDC046002002402E
:103460002301674500F8FF1F70B506460F200D4683
:10347000FFF7D4FE042814D10A4C0B4B0F20A36095
:1034800003F18833A360236943F01003236135807F
:10349000FFF7C4FE01281FBF226941F6EF731340F6
:1034A000236170BD002002402301674570B50646C8
:1034B0000F200D46FFF7B2FE04280FD1084C0F2055
:1034C000236943F0010323613580FFF7A7FE01283C
:1034D0001FBF226941F6FE731340236170BDC046D1
:1034E0000020024070B506460F200D46FFF796FEFD
:1034F000042817D10C4C0F20236943F001032361EA
:10350000ABB23380FFF78AFE042804D12B0C738002
:103510000F20FFF783FE01281FBF226941F6FE73CB
:103520001340236170BDC0460020024010B540F634
:10353000FF70FFF773FE04282CD1174C174B00F5D2
:103540007E60A36003F18833A36023691B3043F0DE
:1035500020032361236943F040032361FFF75EFEEC
:10356000042810D1226941F6DF7302EA03032361C4
:1035700023694FF0A50243F010032361084B0F208D
:103580001A80FFF74BFE01281FBF226941F6EF7337
:103590001340236110BDC04600200240230167454F
:1035A00000F8FF1F10B540F6FF70FFF737FE042844
:1035B00013D10A4C236903432361236900F57E601C
:1035C00043F0400323611B30FFF728FE01281FBF93
:1035D000226941F6FB731340236110BD00200240B5
:1035E00030B5054681B040F6FF70FFF717FE04289E
:1035F00015D10C4C00F57E6023691B3043F00203AB
:1036000023616561236943F040032361FFF706FEF0
:1036100001281FBF226941F6FD731340236101B0E9
:1036200030BDC04600200240F0B5CD780E8815F0C0
:10363000100F18BF8B7805F00F0718BF1F4316F047
:10364000FF0F83B01ED004680021012212FA01F39B
:1036500003EA060C9C4511D18A000F23934017FA08
:1036600002F224EA03041443282D019308BFC0F892
:1036700014C003D0482D08BFC0F810C0013108297C
:10368000E3D10460FF2E20D944680021012201F11A
:10369000080312FA03F303EA060C9C4511D18A00D1
:1036A0000F23934017FA02F224EA03041443282D4F
:1036B000019308BFC0F814C003D0482D08BFC0F85C
:1036C00010C001310829E1D1446003B0F0BDC0460B
:1036D0004FF0FF330380022383700423C3707047CD
:1036E000836819420CBF002001207047806880B2B7
:1036F0007047C046C36819420CBF002001207047C4
:10370000C06880B27047C046016170474161704730
:103710000AB1016100E041617047C046C160704775
:1037200041F4803383618161836183698369704778
:10373000DFF818C04FF68073DCF8002041EA001172
:1037400002EA03031943CCF800107047000001405F
:10375000014B18607047C0461C00204230B500F491
:10376000401304040D461449240CB3F5401FD1F84E
:1037700004C006D14B682CF0706223F070634B607C
:1037800010E010F4801F05D000F47022120C032307
:10379000934003E0430D1B0114FA03F32CEA0303E7
:1037A00043F0706225B1430D1B0114FA03F31A4371
:1037B000014B5A6030BDC0460000014010B501F019
:1037C0000304A4000F23A340A040DFF820C0890811
:1037D00002315CF8212022EA03024CF821205CF837
:1037E000213018434CF8210010BDC04600000140B4
:1037F00000B50120012181B000F0F6FB012000217D
:1038000000F0F2FB01B000BD00B5274B83B0984239
:1038100001902BD00CD8A3F5006398421AD003F581
:10382000806398421CD0A3F5006398423AD10BE024
:103830001E4B984226D003F58063984228D0A3F50A
:10384000006398422ED117E00420012100F0CCFB48
:10385000042024E00820012100F0C6FB08201EE01F
:103860001020012100F0C0FB102018E020200121D1
:1038700000F0BAFB202012E04020012100F0B4FB50
:1038800040200CE08020012100F0AEFB802006E00B
:103890004FF48070012100F0A7FB4FF480700021ED
:1038A00000F0A2FB03B000BD00140140001C014069
:1038B0000B4B4FF0FF316FF07042C3F88010184689
:1038C000C3F88420C3F88011C3F8842100210022AA
:1038D00002F1C00301320F2A40F82310F8D17047DB
:1038E00000E100E0094A4FF02063094953600023DA
:1038F0009360D160136153619361D361136253622A
:10390000013B9362D36213637047C04600ED00E051
:103910000000FA0540F0BE60024B40F42020D86061
:103920007047C04600ED00E030B5C37805785BB362
:103930001A4B4178DA681A4C6FEA020202F4E0622C
:10394000120AC2F1040399400F23D340827805F094
:10395000030013400B43C0001B01FF228240834041
:103960004FEA950C0CF1C00C54F82C10134021EACE
:1039700002010B4344F82C3005F01F020123934051
:10398000690944F8213008E005F01F020123934043
:103990006909034A203142F8213030BD00ED00E0D2
:1039A00000E100E00023037043708370C370704730
:1039B000034B04485B6803EA0000000B7047C046F5
:1039C00000ED00E000F03F0000F01F0301229A40EC
:1039D0004009054B403053F820001040904214BF7E
:1039E000002001207047C04600E100E0014B186054
:1039F0007047C04600EF00E04109012300F01F00BE
:103A00008340024A603142F82130704700E100E013
:103A1000024B58688005800D7047C04600ED00E0FD
:103A200000F01F0301229A404009054B803053F8F3
:103A300020001040904214BF002001207047C04673
:103A400000E100E0014B18687047C04600ED00E05F
:103A500021F0604121F07F01014B014399607047E3
:103A600000ED00E0014A024BDA6070470400FA05FD
:103A700000ED00E0014A024BDA6070470100FA05F0
:103A800000ED00E021B1054A136940EA030303E0B9
:103A9000024A136923EA00031361704700ED00E056
:103AA00000F01F00012313FA00F021B1054A536A08
:103AB00040EA030303E0034A536A23EA0003536224
:103AC0007047C04600ED00E010B5144CE3686FEAA3
:103AD000030303F4E0631B0AC3F1040C01FA0CF1C5
:103AE0004FF0FF0C2CFA03F31A400A4300F0C00118
:103AF000400900F018000CFA00FC1201824089090C
:103B0000063154F8213023EA0C0344F8213054F8EC
:103B100021301A4344F8212010BDC04600ED00E0DA
:103B2000800A00F00F0001238340044A506A03EA30
:103B30000000984214BF00200120704700ED00E013
:103B400000F01F0001238340024A51680B43536079
:103B50007047C04600ED00E000F01F00013801236F
:103B60008340024A51680B435360704700ED00E008
:103B7000800B00F00F0001238340044A506A03EADF
:103B80000000984214BF00200120704700ED00E0C3
:103B9000830C13F0030302D10D4BD86A17E0012BFD
:103BA00013D103F1604303F56C43FE33020D01337F
:103BB00002F00302996AD30031FA03F0022A14BF1B
:103BC00000F00F0000F0FF0001E0014B186B7047A0
:103BD00000ED00E010F4800F0BBF024B014B586B5F
:103BE000986B704700ED00E000B581B001F014FD66
:103BF00001B000BD00B5000181B001F00AFD01B0C7
:103C000000BDC04600B581B001F001FD01B000BDAE
:103C100000B581B001F0F9FC01B000BD00B581B084
:103C200001F0F1FC01B000BD00B581B001F0E9FC8C
:103C300001B000BD014B18607047C04620000E4225
:103C4000014B18607047C04610000E42034A1368CB
:103C500023F0E003184310607047C0460070004036
:103C6000014B18607047C046A0000E42034B5B68D2
:103C700018420CBF002001207047C0460070004071
:103C8000024A136843EA80031360704700700040E3
:103C90000B4A00B5136881B043F004031360136846
:103CA00043F00203136002F1204202F5FA4210329F
:103CB000136843F00403136001F07EFC01B000BD03
:103CC000007000400C4A00B5136881B023F0030374
:103CD0001843106002F1204202F5FA4210321368D4
:103CE000012943F00403136002D101F065FC01E0F7
:103CF00001F064FC01B000BD0070004010B54FF051
:103D000080542046012100F07DF92046002100F07A
:103D100079F910BD0D4A136843F00103136051682F
:103D20000B4B01EA03035360136823F0847323F4FD
:103D300080331360136823F480231360536823F4E3
:103D4000FE035360002393607047C046001002409A
:103D50000000FFF80B4AB0F5803F136823F480336E
:103D60001360136823F48023136003D0B0F5802F11
:103D700007D102E01368034302E0136843F4A02371
:103D8000136070470010024082B00023094901937C
:103D90000A68019B013312F4003F019303D1019B98
:103DA000B3F5A06FF4D1034B1868400C00F001008C
:103DB00002B0704700100240034A136823F0F80372
:103DC00043EAC0031360704700100240014B1860C3
:103DD0007047C04600004242034A536823F47C13F4
:103DE000184308435060704700100240014B1860B0
:103DF0007047C04660004242034A536823F0030301
:103E0000184350607047C04600100240024B58688B
:103E100000F00C007047C04600100240034A53688F
:103E200023F0F003184350607047C0460010024072
:103E3000034A536823F4E063184350607047C04658
:103E400000100240034A536823F4605343EAC0035E
:103E5000536070470010024021B1054A137840EAD0
:103E6000030303E0024A137823EA00031370704748
:103E700009100240014B18607047C046D80042420A
:103E8000034A536823F44043184350607047C046C8
:103E900000100240064A002301281370137008BF67
:103EA000107003D0042801D1052313707047C04659
:103EB00020100240014B18607047C0468004424207
:103EC000024A136A184310627047C046001002404D
:103ED000014B18607047C0463C0442422949844661
:103EE0004B6803F00C03042B21D0082B1FD14B6827
:103EF00003F470139B0C9A1C4B6813F4803F08BFAB
:103F0000C2EB421306D04B6813F4003F4FEA421352
:103F100006D09B1AC3EB831302EBC3031B0207E01B
:103F20009B1AC3EB831302EBC3035B0200E0164B47
:103F30001448CCF800304368144A03F0F0031B091E
:103F4000D35CDCF80010D940CCF80410436803F4CB
:103F5000E0631B0AD35C31FA03F3CCF80830436802
:103F600003F46053DB0AD35C094AD940CCF80C1047
:103F7000436803F440439B0BD35CB1FBF3F1CCF8F3
:103F8000101070470010024000127A00FC880008F0
:103F90000C89000821B1054A536940EA030303E094
:103FA000024A536923EA000353617047001002403C
:103FB00021B1054A936940EA030303E0024A936989
:103FC00023EA0003936170470010024021B1054AC3
:103FD000D36940EA030303E0024AD36923EA0003FA
:103FE000D36170470010024021B1054AD36840EA0E
:103FF000030303E0024AD36823EA0003D360704757
:104000000010024021B1054A136940EA030303E0AE
:10401000024A136923EA000313617047001002404B
:10402000014B18607047C04640044242014B186083
:104030007047C0464C004242014B18707047C04662
:10404000071002404309012B08D103F1804303F517
:10405000023303F5FF6307331B680CE0022B08D122
:1040600003F1804303F5023303F5FF6306331B6A54
:1040700001E0044B5B6A00F01F0033FA00F000F02F
:104080000100704700100240024A536A43F08073F7
:104090005362704700100240034B9B6818420CBFEC
:1040A000002001207047C04600100240014B1870EC
:1040B0007047C0460A1002400A884B88B0F800C01A
:1040C00013438A880CF4415C1343CA8813430A895A
:1040D00013434A8913438A891343CA8913434CEA19
:1040E000030C1FFA8CFCA0F800C0838B23F4006340
:1040F0001B041B0C83830B8A038270474FF0000361
:10410000038043808380C380038143818381C38193
:104110004FF00703038270474FF000030380438092
:104120008380C3804FF0020303814FF0000343817B
:104130007047C04621B103889BB243F0400304E0BE
:10414000038823F040031B041B0C03807047C04608
:1041500021B1838B9BB243F4806304E0838B23F40F
:1041600080631B041B0C83837047C046090901232D
:104170008B4099B222B183889BB241EA030303E0EA
:1041800083889BB223EA01038380704722B183882E
:104190009BB241EA030303E083889BB223EA010355
:1041A0008380704781817047808980B27047C046A4
:1041B0004FF6FF63994217BF038803889BB243F40D
:1041C000807308BF0B4003807047C04621B18388CD
:1041D0009BB243F0040304E0838823F004031B0430
:1041E0001B0C83807047C046038823F400631B04C4
:1041F0001B0C038003889BB2194301807047C046A3
:1042000003889BB243F480530380704721B1038835
:104210009BB243F4005304E0038823F400531B04CF
:104220001B0C03807047C046012914BF038B838A8F
:1042300098B27047008A80B27047C046B1F5804F8F
:1042400004D103889BB243F4804304E0038823F441
:1042500080431B041B0C03807047C046038919422E
:104260000CBF0020012070476FEA010189B2018173
:104270007047C046838802891FFA83FC012001F041
:104280000F0310FA03F392B21A4201D1002007E0A3
:104290000B0910FA03F31CEA030F0CBF00200120E6
:1042A0007047C04601F00F0101238B406FEA030302
:1042B0009BB203817047C046838BF0B523F47A63C9
:1042C00023F01F031B041B0C83834FF002030384A2
:1042D000838B87B09FB20B890546022B0C4602D117
:1042E0000221002226E08B8801A8002B0CBF0126AA
:1042F0000226FFF7F3FDE3882289B3F5007F019BD7
:1043000004D103EB83035B00120205E0520106FBBC
:1043100002F203EB83035B00B3FBF2F30533134AB2
:104320009BB2A3FB0223DB0803F0010212025B082D
:1043300099B292B28B1E9BB2FE2B28BF002228BFDF
:10434000022141EA0203E28813439BB22B842388B3
:10435000628847EA030343F400631343A2881343CC
:10436000628913439BB2AB8307B0F0BDCDCCCCCCFC
:1043700000B5164B83B0984201901BD003F57443EF
:10438000984204D0A3F5784398421DD10AE0012158
:104390004FF48050FFF728FE4FF480500021FFF7C4
:1043A00023FE11E04FF480400121FFF72BFE4FF474
:1043B000804006E04FF400400121FFF723FE4FF458
:1043C00000400021FFF71EFE03B000BD003C00408E
:1043D000042803D1044A1368034303E0024A136824
:1043E00023F004031360704710E000E0014B5860B5
:1043F0007047C04610E000E0012803D1084A136866
:10440000034306E010F1020F05D1054A136823F0BB
:104410000103136002E0024B00229A607047C0461D
:1044200010E000E020B1054A136843F0020303E006
:10443000024A136823F002031360704710E000E0A3
:10444000014B98687047C04610E000E0C308022B9B
:10445000024606D103F1604303F560430E3318684A
:1044600001E0034BD868D04000F001007047C0461F
:1044700010E000E0038882B003F08F03038003881C
:10448000CA889BB213434A88019013439BB20380AE
:104490008B880B4A83850B888C4603854FF001037C
:1044A0008382084B984214BF00230123904208BF27
:1044B00043F0010313B19CF80830038602B0704743
:1044C000002C014000340140038C8C4623F0010392
:1044D0001B041B0C0384018C8388F0B59DB2038BF5
:1044E000BCF808209EB2BCF8023021F00201134350
:1044F00009049BB2090C43EA0104BCF80630BCF87D
:10450000007083861A4B1B4A984214BF0023012374
:1045100083B0904208BF43F001030190EBB102F178
:104520004042A2F53052BCF80A30093A04EA0202CD
:104530001A434FF6FB7302EA0303BCF8042047F664
:10454000FF4143EA0204BCF80E30BCF80C2005EA37
:10455000010113439BB243EA01054FF68F7306EA4C
:1045600003033B4385800383048403B0F0BDC0464E
:1045700000340140002C0140038CF0B523F01003FF
:104580001B041B0C0384038C828823F0200395B248
:10459000028B1B0496B20A891B0C43EA02134A8859
:1045A0009BB243EA02139CB2CB880F8803871E4B51
:1045B0001E4A984214BF0023012383B0904208BFD3
:1045C00043F0010301908C460BB302F14042A2F587
:1045D0003252BCF80A30013A04EA020242EA0312FB
:1045E0004FF6BF7302EA0303BCF8042043EA021348
:1045F0009CB2BCF80C2047F2FF3305EA030343EA00
:104600008203BCF80E209BB243EA82039DB248F6B7
:10461000FF7306EA030343EA07239BB28580038303
:10462000048403B0F0BDC04600340140002C0140BA
:10463000038CF0B523F480731B041B0C0384038CE0
:10464000828823F4007395B2828B1B0496B20A8988
:104650001B0C43EA02234A889BB243EA02239CB222
:10466000CB880F8883871D4B1D4A984214BF0023B7
:10467000012383B0904208BF43F0010301908C46B0
:104680000BB302F14042A2F55052BCF80A30013A95
:1046900004EA020242EA03224FF6FF3302EA03036E
:1046A000BCF8042043EA02239CB2BCF80C2044F678
:1046B000FF7305EA030343EA0213BCF80E209BB222
:1046C00043EA02139DB24FF68F7306EA03033B439E
:1046D00085808383048403B0F0BDC046003401406C
:1046E000002C0140038CF0B523F480531B041B0CF9
:1046F0000384038C85B09BB2029383884A881FFA97
:1047000083FC838B0E889DB2CB880F89A0F8403044
:10471000174B0192174A984214BF0023012390427D
:1047200008BF43F0010303900C463BB14FEA8C43B2
:10473000A2899B0C43EA82131FFA83FC48F6FF739D
:1047400005EA030343EA06239BB2029AA0F804C0D9
:1047500083834DF6FF7302EA030343EA0733019AAA
:104760009BB243EA02339BB2038405B0F0BDC0465E
:1047700000340140002C01400B8830B504460D4642
:1047800043BB238C498823F001031B041B0CB5F8A1
:1047900004C028892384238B228C23F0F3031B0479
:1047A0001B0C22F0020243EA001312049BB2120C0B
:1047B00041F0010143EA0C030A4323832284238B43
:1047C000EA8823F00C031B041B0C2383238B9BB26E
:1047D00013432EE0042B2ED1238CB1F802C023F01A
:1047E00010031B041B0C888809892384238B228CCB
:1047F00023F440731B0522F020021B0D120443EA30
:104800000133120C9BB242EA0C1243EA002392B22B
:104810009BB242F0100223832284238BEA8823F484
:1048200040631B041B0C2383238B9BB243EA0223AC
:104830009BB2238355E0082BB1F802C08888098910
:1048400025D1238C23F480731B041B0C2384A38B9E
:10485000228C23F0F30322F400721B0412041B0CBD
:10486000120C43EA011342EA0C229BB292B20343B8
:1048700042F48072A3832284A38BEA8823F00C0382
:104880001B041B0CA383A38B9BB2134328E0238C34
:1048900023F480531B041B0C2384A38B228C23F44E
:1048A00040731B0522F400521B0D120443EA00233F
:1048B000120C9BB242EA0C3243EA013392B29BB231
:1048C00042F48052A3832284A38BEA8823F44063BA
:1048D0001B041B0CA383A38B9BB243EA02239BB252
:1048E000A38330BD8C46F0B5BCF800304C88898875
:1048F000002C0CBF0227002701290CBF022601262D
:10490000BCF80850002B4BD1038C23F001031B048F
:104910001B0C0384038B028C23F0F3031B041B0C7E
:1049200043EA051322F002029BB212040B43120C5D
:1049300044F001010A4303830284038BBCF8061090
:1049400023F00C031B041B0C0383038B9BB20B4350
:104950000383038C23F010031B041B0C0384038BC1
:10496000028C23F440731B0522F030021B0D12044D
:1049700043EA0533120C9BB242F0100243EA0623CD
:1049800042EA071203830284038B23F440631B046F
:104990001B0C0383038B9BB243EA01239BB24CE0C5
:1049A000038C23F010031B041B0C0384038B028C69
:1049B00023F440731B0522F020021B0D120443EA6E
:1049C0000533120C9BB242EA041243EA012392B26D
:1049D0009BB242F0100203830284038BBCF80610E2
:1049E00023F440631B041B0C0383038B9BB243EA39
:1049F00001239BB20383038C23F001031B041B0CD4
:104A00000384038B028C23F0F3031B0422F00302C4
:104A10001B0C120443EA0513120C9BB242F0010274
:104A200033433A4303830284038B23F00C031B04B8
:104A30001B0C0383038B9BB20B430383F0BDC04667
:104A40000A884B8813438A881343CA8813430A8908
:104A500013434A8913438A8913439BB2A0F8443015
:104A60007047C0464FF0FF3383804FF00003038050
:104A7000C3804380002303727047C0464FF0000399
:104A8000038043808380C380038143818381C3810A
:104A90007047C0464FF00003038043804FF001038E
:104AA00083804FF00003C380038170474FF0000301
:104AB000038043808380C380038143818381704767
:104AC00021B103889BB243F0010304E0038823F083
:104AD00001039B059B0D03807047C04629B1B0F8C8
:104AE00044309BB243F4004303E0B0F844305B042D
:104AF0005B0CA0F84430704722B183899BB241EA35
:104B0000030303E083899BB223EA01038381704797
:104B1000818270470A43A0F84820704722B18389F8
:104B20009BB241EA030303E083899BB223EA0103BA
:104B300083817047038923F007031B041B0C038147
:104B40007047C046038923F070031B041B0C1943F4
:104B5000018103899BB243F0070303817047C0467C
:104B600010B50C46602C11469C461AD1038C23F0DC
:104B700010031B041B0C0384038B028C23F440736F
:104B800022F030021B0512041B0D120C43F480733B
:104B900042F0100243EA0C3342EA01129BB292B295
:104BA00017E0038C23F001031B041B0C0384038B0D
:104BB000028C23F0F3031B0422F003021B0C1204EB
:104BC00043F00103120C43EA0C1342F001029BB2C2
:104BD0000A4303830284038923F070031B041B0C24
:104BE00044EA0303038103899BB243F00703038173
:104BF00010BDC046B0F808C05FFA8CFC41EA0C0159
:104C00000A4342EA032292B20281038923F0770326
:104C10001B041B0C43F0770303817047B0F808C0F6
:104C20005FFA8CFC41EA0C010A4342EA032292B289
:104C3000028103899BB243F4804303817047C046DD
:104C4000B0F808C05FFA8CFC41EA0C010A4342EA62
:104C5000032292B202817047018582827047C0466A
:104C6000038823F070039B059B0D19430180704757
:104C7000038923F070031B041B0C19430181704747
:104C8000B0F808C030B5048B058C24F4407425F0CE
:104C9000220524F003042D042CF0070C24042D0C11
:104CA0004FEA0C4C240C2A434FEA1C4C44F4807409
:104CB00042EA031241EA0C0144F0010492B201817C
:104CC0000483028430BDC046038B23F070031B04B1
:104CD0001B0C194301837047038B23F4E0431B042F
:104CE0001B0C43EA01239BB203837047838B23F0A1
:104CF00070031B041B0C194381837047838B23F4BF
:104D0000E0431B041B0C43EA01239BB283837047DF
:104D100021B103889BB243F0800304E0038823F0B1
:104D200080039B059B0D03807047C04621B183889B
:104D30009BB243F0040304E0838823F004031B04C4
:104D40001B0C83807047C04621B183889BB243F01F
:104D5000080304E0838823F008031B041B0C8380F2
:104D60007047C04621B183889BB243F0010304E041
:104D7000838823F001031B041B0C83807047C0460B
:104D8000038B23F008031B041B0C1943018370479A
:104D9000038B23F400631B041B0C43EA01239BB227
:104DA00003837047838B23F008031B041B0C1943F8
:104DB00081837047838B23F400631B041B0C43EA3D
:104DC00001239BB283837047038B23F004031B04EE
:104DD0001B0C194301837047038B23F480631B046E
:104DE0001B0C43EA01239BB203837047838B23F0A0
:104DF00004031B041B0C194381837047838B23F42A
:104E000080631B041B0C43EA01239BB2838370471E
:104E1000038B23F080031B041B0C19430183704791
:104E2000038B5B045B0C43EA01239BB20383704753
:104E3000838B23F080031B041B0C19438183704771
:104E4000838B5B045B0C43EA01239BB28383704733
:104E5000038C23F002031B041B0C194301847047CD
:104E6000038C23F008031B041B0C194301847047B7
:104E7000038C23F020031B041B0C43EA01139BB299
:104E800003847047038C23F080031B041B0C43EA4C
:104E900001139BB203847047038C23F400731B043B
:104EA0001B0C43EA01239BB203847047038C23F459
:104EB00000631B041B0C43EA01239BB2038470476D
:104EC000038C23F400531B041B0C43EA01339BB2F5
:104ED0000384704701238B408A40B0F820C01FFA3A
:104EE0008CFC2CEA030CA0F820C0038C1A4392B26D
:104EF0000284704704238B408A40B0F820C01FFA18
:104F00008CFC2CEA030CA0F820C0038C1A4392B24C
:104F10000284704701238B409446028C82B092B287
:104F200022EA0302082914BF00230123002908BF35
:104F300043F00103019002846BB110F1180249089B
:104F400050584FF68F7300EA03035350535843EA07
:104F50000C03535010E001980A1F92B21830520807
:104F6000815848F6FF7301EA0303835081584FEAE2
:104F70000C239BB21943815002B0704721B10388C2
:104F80009BB243F0020304E0038823F002039B0575
:104F90009B0D03807047C04621B103889BB243F04C
:104FA000040304E0038823F004039B059B0D0380A6
:104FB0007047C04621B183889BB243F0800304E070
:104FC000838823F080031B041B0C83807047C0463A
:104FD000038823F008039B059B0D038003889BB285
:104FE000194301807047C046838823F070031B0477
:104FF0001B0C838083889BB2194381807047C04615
:10500000038923F007031B041B0C038103899BB254
:10501000194301817047C046038923F080031B04B4
:105020001B0C038103899BB2194301817047C04661
:1050300081847047818570478186704701877047FA
:1050400081877047A0F840107047C046038B23F05B
:105050000C031B041B0C0383038B9BB219430183BA
:105060007047C046038B23F440631B041B0C03836F
:10507000038B9BB243EA01239BB203837047C04674
:10508000838B23F00C031B041B0C8383838B9BB249
:10509000194381837047C046838B23F440631B040C
:1050A0001B0C8383838B9BB243EA01239BB28383D4
:1050B0007047C0460388DBB2038003889BB2194364
:1050C00001807047808E80B27047C046008F80B2EA
:1050D0007047C046808F80B27047C046B0F840002D
:1050E00080B27047808C80B27047C046008D80B21D
:1050F0007047C046038A19420CBF00200120704748
:105100006FEA010189B201827047C046038A828931
:1051100019420CBF0020012011420CBF002000F0FA
:10512000010070476FEA010189B201827047C046F1
:1051300000B52F4B83B09842019037D00BD8A3F520
:105140000063984226D003F58063984228D0B0F1DE
:10515000804F4AD118E0274B984233D004D8A3F5AA
:105160008063984241D127E0234B984204D003F555
:105170000063984239D12EE04FF400600121FEF720
:1051800033FF4FF400602DE001200121FEF73AFFCC
:1051900001201CE002200121FEF734FF022016E06E
:1051A00004200121FEF72EFF042010E00820012139
:1051B000FEF728FF08200AE010200121FEF722FF59
:1051C000102004E020200121FEF71CFF20200021F8
:1051D000FEF718FF09E04FF400500121FEF704FF2D
:1051E0004FF400500021FEF7FFFE03B000BDC046A3
:1051F000000C004000140040002C01404FF41653F6
:1052000003604FF000038380C38003814FF00C03E1
:1052100043814FF0000383817047C046B1F800C05E
:105220004B88028A43EA0C03B1F804C0C98822F40F
:10523000706243EA0C0312040B43120C9BB213433B
:10524000038270474FF00003038043808380C38054
:105250007047C04621B183899BB243F4005304E0F8
:10526000838923F400531B041B0C83817047C046C1
:10527000CBB24FEA531C01F01F01012382B013FA95
:1052800001F1BCF1010F019001D10C3005E0BCF13E
:10529000020F01D1103000E0143012B103680B434B
:1052A00002E0036823EA0103036002B07047C046CE
:1052B00022B1838A9BB241EA030303E0838A9BB253
:1052C00023EA010383827047038A23F00F031B0440
:1052D0001B0C0382038A9BB20B4303827047C046B8
:1052E000838923F400631B041B0C838183899BB295
:1052F000194381817047C04621B183899BB243F035
:10530000020304E0838923F002031B041B0C838146
:105310007047C046038A23F020031B041B0C038242
:10532000038A9BB2194301827047C04621B1038AA8
:105330009BB243F4804304E0038A23F480431B04BC
:105340001B0C03827047C046C905C90D8180704798
:105350008088C005C00D704783899BB243F001036C
:1053600083817047038BDBB20383038B9BB243EAD9
:10537000012303837047C046038B03F47F430383F9
:10538000038B9BB20B4303837047C04621B1838AD2
:105390009BB243F0200304E0838A23F020031B0424
:1053A0001B0C83827047C04621B1838A9BB243F0B5
:1053B000100304E0838A23F010031B041B0C838278
:1053C0007047C04621B1838A9BB243F0080304E0D2
:1053D000838A23F008031B041B0C83827047C0469A
:1053E000838A23F004031B041B0C8382838A9BB2F1
:1053F000194381827047C04621B1838A9BB243F032
:10540000020304E0838A23F002031B041B0C838243
:105410007047C046038819420CBF00200120704726
:105420006FEA010189B201807047C046CBB24FEAF2
:10543000531C01F01F02012313FA02F2BCF1010F09
:1054400008BF838904D0BCF1020F0CBF038A838A92
:105450009BB202EA030C0B0A01229A4003889BB21A
:105460001A420CBF00200120BCF1000F0CBF00202D
:1054700000F001007047C046090A01238B406FEA23
:1054800003039BB203807047038ACA8823F4405306
:105490001B041B0C13430382828970B50B890E46D3
:1054A000898822F4B0520B43718922F00C020B431D
:1054B0001204120C9BB213438381838AB28923F4B2
:1054C00040731B041B0C88B0134305468382019074
:1054D000044603A8FEF702FD104B11489D420CBF85
:1054E000069B059B03EB8301336801EB81019B0065
:1054F000B1FBF3F1A1FB002364224FEA531C0CFB28
:10550000121212013232A2FB00235B0903F00F03D7
:1055100043EA0C139BB22B8108B070BD00380140E8
:105520001F85EB5100B5224B83B0984201902BD0E0
:1055300008D8A3F50063984216D003F5806398421B
:1055400034D119E01B4B984226D003F568439842AA
:105550002CD101214FF48040FEF746FD4FF48040EE
:105560000021FEF741FD21E04FF400300121FEF75C
:1055700049FD4FF4003016E04FF480200121FEF782
:1055800041FD4FF480200EE04FF400200121FEF792
:1055900039FD4FF4002006E04FF480100121FEF7A2
:1055A00031FD4FF480100021FEF72CFD03B000BD4B
:1055B000004C00400050004030BF704720BF704793
:1055C00040BF7047BFF36F8F7047BFF34F8F704777
:1055D000BFF35F8F704701DF7047EFF314807047B0
:1055E00080F31488BFF36F8F7047EFF30980704723
:1055F00080F309887047EFF30880704780F30888CC
:10560000704772B6704762B6704771B6704761B640
:10561000704780F311887047EFF31280704740BAEB
:10562000704700BA704700002DF0070168468D46AC
:1056300001B500220C49DFF834C00D4802E0835860
:105640008B50043201EB02036345F8D3094B0A493E
:10565000002201E043F8042B8B42FBD3FAF74AFE09
:10566000BDE801408546704700000020F802002098
:1056700010890008F80200203824002083238821A4
:10568000A31FDD1D341C9B1A1C19B3175F161E15B2
:10569000EE13D012C111C410D10FEE0E1A0E4D0D23
:1056A0008E0CD90B2F0B8F0AF7096809E0086108E7
:1056B000E90777070C07A6064706ED059705470596
:1056C000FB04B40470043004F403BB0386035203E8
:1056D0002303F602CC02A3027E025A023802180209
:1056E000FA01DE010000EE02C410D10FEE0E1A0E18
:1056F0004D0D8E0CD90B2F0B8F0AF7096809E008A6
:105700006108E90777070C07A6064706ED05970528
:105710004705FB04B40470048403D4306A180800FD
:1057200008010A010C010D010F01110113011401FF
:105730000000080010010F010D010B010901080113
:105740000601040400000F0008010D01110194017D
:105750008000110114041E010001140100019400D5
:105760009400140100011401190400020000170044
:10577000100180009000900010011001970094002B
:105780009700940010040001000014009000A8018C
:105790001E01E801AC00EC0000010000140008014B
:1057A000240162041E041E02000100001000970084
:1057B000B200F2008000B200F20000010000200000
:1057C000090121041E020001000014001701B000AD
:1057D000610200010000100017012302630223028E
:1057E000630200010000140090006C041E0400001D
:1057F00014009A00610421040001000010008100DF
:10580000E1009A00E100A1000001000010001A016F
:105810006A010001000010009A00AA00EA000001DD
:10582000000010009A00AA00EA008000AA00EA0026
:105830000001000008009400A50017021402A50052
:105840001702140200010000090000040E0280008B
:105850008201820182010004000010009C005204B9
:10586000000100000400810074043404880448042A
:105870000001000001009A006A042A047404340440
:105880007E043E0488044804920452049C045C0490
:10589000A6046604B0047004000100000800810042
:1058A00068042104000100000400990180009901AE
:1058B000800099018000990180000000100015010E
:1058C0007202720272020001000008009A00810058
:1058D000E8002203210200010000070081001401FA
:1058E000800081001301800081001201800081008E
:1058F0001101800081001001800000000000000004
:105900000102030401020304060708090204060851
:105910000100000001000100010000FD00FE00FE8A
:1059200000FF000300FF00030100009632FA32FA84
:1059300000FF00030002007F007F00FF0100010064
:10594000010001000001000700FF007F00FF007F51
:10595000010001000100010001000100010001003F
:10596000010001000100010001000100010001002F
:10597000010001000100010001000100010001001F
:10598000010001000100010001000100010001000F
:1059900001000100010001000100010001000100FF
:1059A00001000100010001000100010001000100EF
:1059B00001000100010000FF00FF00FF00FF0100E7
:1059C00001000100010001000200010101010200CB
:1059D00002000101010102000101010102000200B7
:1059E00001010200020001010101010101010200A7
:1059F0000200020002000200020001020002000296
:105A00000002000200020002000200020002000286
:105A10000002000200020002000101020002000177
:105A20000200007311C801000000FF0300503CBEDB
:105A3000FF030224240000000000000064000A03A9
:105A400070300C0040420F0000E1000040420F00A7
:105A5000000102030405060708090A0B0C0D0E0FCE
:105A6000101112131415161718191A1B1C1D1E1FBE
:105A7000202122232425262728292A2A2B2C2D2EB3
:105A80002F303132333435363738393A3B3C3D3EAE
:105A90003F404142434445464748494A4B4C4D4E9E
:105AA0004F505152535455565758595A5B5C5D5E8E
:105AB0005F606162636465666768696A6B6C6D6E7E
:105AC0006F707172737475767778797A7B7C7D7E6E
:105AD0007F7F808182838485868788898A8B8C8D6D
