:10000000000001201D7B0208353102083931020849
:100010003D3102084131020845310208000000006C
:100020000000000000000000000000004D31020848
:10003000493102080000000051310208C5320208AF
:1000400055310208593102085D3102086131020858
:1000500065310208693102086D3102087131020808
:1000600075310208793102087D3102080000000074
:100070000000000000000000000000000000000080
:100080000000000000000000553202089D31020807
:10009000A1310208A5310208A9310208AD310208D8
:1000A000B1310208B5310208B9310208BD31020888
:1000B00061320208C1310208C5310208C9310208A3
:1000C000CD310208D1310208D5310208D9310208F8
:1000D000DD31020849320208E13102083D320208EE
:1000E000E5310208E9310208ED310208F131020878
:1000F000F5310208F9310208FD3102080132020827
:1001000005320208093202080D32020811320208D3
:100110001532020831320208193202081D32020873
:100120002132020825320208293202082D32020843
:100130005FF800007047C046FEE7C046FEE7C046D5
:10014000FEE7C046FEE7C0467047C0467047C0465F
:100150007047C0467047C0467047C0467047C046AB
:100160007047C0467047C0467047C0467047C0469B
:100170007047C0467047C0467047C0467047C0468B
:100180007047C0467047C0467047C0467047C0467B
:100190007047C0467047C0467047C0467047C0466B
:1001A0007047C0467047C0467047C0467047C0465B
:1001B0007047C0467047C0467047C0467047C0464B
:1001C0007047C0467047C0467047C0467047C0463B
:1001D0007047C0467047C0467047C0467047C0462B
:1001E0007047C0467047C0467047C0467047C0461B
:1001F0007047C0467047C0467047C0467047C0460B
:100200007047C0467047C0467047C0467047C046FA
:100210007047C0467047C0467047C0467047C046EA
:100220007047C0467047C0467047C0467047C046DA
:1002300000B581B000F05AFF01B000BD00B581B03B
:1002400000F04EFF01B000BD00B581B000F054FFDA
:1002500001B000BD00B581B000F036FF01B000BDB7
:1002600000B54FF0804081B0102104F0C9F908B307
:1002700010214FF0804004F0CFF900F025FF4FF03F
:10028000804004F0A5F90C4B186019680B4B4FF037
:1002900080401B88C91889B204F04EF9084B1B88AE
:1002A00013F01F0F01D100F02DFF054A1388013311
:1002B0009BB2138001B000BD640100200A00002041
:1002C0006A01002000B581B001F072FA01B000BDF2
:1002D000054900230022CA540133FF2BFBD1034AF6
:1002E000002313607047C0466E0200206C0100209E
:1002F000F0B50646002400E00134335D002BFBD14D
:100300004FF0000CC4F1FF070BE0735C15F8012BF4
:1003100001319A4218BF0120A142F6DB58B10CF11D
:10032000010CBC4505DA054B002103EB0C05002050
:10033000F2E74FF0FF3C6046F0BDC0466E02002081
:10034000F0B585B001F0D6F9012001F049FADFF8E7
:100350001414022000F0AAFE4FF47A7001F05AFA49
:10036000002001F0DFFA022001F0DCFAFF2100207A
:1003700001F0B4FB4FF4FA6001F04CFA002001F0F8
:10038000D1FA0121002603910022012401920120CB
:1003900001F040FA204600F0A3FC00F091FA012899
:1003A00005463DD10021204600F048FC1D280746A7
:1003B00014D1ED4B01991D554B1CDBB2012B019360
:1003C0000CD1039A012A02D10220E84904E0039BE0
:1003D000222B03D1E649022000F068FE0220E54905
:1003E00000F064FEE0B200F0FFFD0220E24900F000
:1003F0005DFEF8B200F0F8FD0220E04900F056FE84
:100400000199DF4AA1FB02239B0803EB8303C3EBA3
:10041000010313F0FF0F03D10220DA4900F046FE7A
:100420000134FE2CB3D1019A02BB731CDEB2012E43
:1004300007D100204FF4614100F06CFC22230393AC
:100440000AE0022E06D1D049002000F063FCFC2116
:10045000039101E0032E03D0642001F0DBF993E760
:100460000220CA4900F022FE02F076FDBE4D0124B2
:100470002B5D3BB120460421222200F0FDFB0A2027
:1004800001F0C8F90134FE2CF2D14FF46141002093
:1004900000F040FC642001F0BDF90220B94900F0F1
:1004A00005FE002202920126AF49F4B28B5D002BBB
:1004B00000F020810220B64900F0F8FD204600F04F
:1004C00093FD0220B34900F0F1FD0EE0A64A135D52
:1004D0003BB1204600F004FC00F0F2F9012818BFFF
:1004E00000250134FE2CF1D115B901240125EDE7D9
:1004F0004FF47A7001F08EF901249B490B5DCBB16A
:10050000B44217D019210022204600F0B5FB32205A
:1005100001F080F910210222204600F0ADFB3220CC
:1005200001F078F920462D210A2200F047FB322005
:1005300001F070F90134FE2CDFD14FF47A7001F034
:1005400069F99549022000F0B1FD304600F022FB28
:100550000A2001F05FF9914900230022CA540133B7
:10056000FF2BFBD18E4A0023136000208D4900F041
:100570009DFD052001F04EF9002001F0FDF9002855
:10058000F3D0002001F01CFA232803D0052001F04D
:1005900041F9EAE78449022000F088FD0A2001F0D1
:1005A00039F98249002000F081FD642001F032F920
:1005B0007E49002000F07AFD642001F02BF97B4990
:1005C000002000F073FD642001F024F97849002038
:1005D00000F06CFD012001F01DF97449002000F0CD
:1005E00065FD6E4900230022CA540133FF2BFBD165
:1005F0006B4A0023694F13601546002001F0BCF9D7
:1006000030B100202C6801F0DBF9385501342C6042
:100610006848FFF76DFEB0F1FF3FEED0022066495B
:1006200000F044FD642001F0F5F8644C644F0025AF
:1006300014F8011C002005EB0103DDB2013401F0C8
:100640004DFA0A2001F09EF8BC42F1D12946002063
:1006500001F044FA642001F0DDF850490023002243
:10066000CA540133FF2BFBD14D4A002313601546BA
:100670004A4F1AE000202C6801F0A2F938550134E5
:100680002C605048FFF734FEB0F1FF3F02D002204B
:100690004D4907E04D48FFF72BFEB0F1FF3F04D076
:1006A0004B49022000F002FD04E0002001F064F953
:1006B0000028DFD1642001F0ADF84649022000F0A7
:1006C000F5FC002001F08CF84FF4FA7001F0A2F86C
:1006D0004149022000F0EAFC012001F081F84FF4CA
:1006E0007A7001F097F8029A0199531CDBB2994293
:1006F000029316D00136FE2E7FF4D6AE11E0335DA4
:1007000053B1204600F0ECFA00F0DAF8012818BFE7
:100710000025012001F07EF80134FE2CEFD10DB14F
:1007200003E0114E01240125E9E74FF47A7001F04E
:1007300071F80D4D01242B5D3BB120460421039A35
:1007400000F09AFA0A2001F065F80134FE2CF2D18B
:100750000220224900F0AAFC642001F05BF802F0BC
:10076000FBFBFEE7847B020870010020B97B0208D6
:10077000D67B0208087C0208F17B0208F37B0208A2
:10078000CDCCCCCCB67B0208C0C62D00F57B0208D0
:10079000067C02080A7C02081B7C02086E0200200C
:1007A0006C010020267C0208287C02083D7C02089F
:1007B0003F7C0208417C0208497C02080190020843
:1007C00001F00208567C02085E7C02086A7C02087E
:1007D000707C02087A7C02088D7C0208947C0208F6
:1007E000044B00221A60044B044A1B680A331B188E
:1007F00013607047740300207C03002078030020FE
:10080000094A00B5136881B001331360074B1268C1
:100810001B689A4201D9012004E0054B186800F0DA
:10082000B1FF002001B000BD740300207803002058
:100830007003002030B5054681B00024002001F08F
:100840009BF810B9204601B030BD002001F0B8F887
:1008500028550134F2E7C04670B506460D4600241F
:1008600004E0315D002001F039F90134AC42F8DBDD
:10087000204670BD00B5002081B001F053F801B0F2
:1008800000BDC04600B5002081B001F04BF801B0BA
:1008900000BDC04610B50C4610B14FF0FF300BE064
:1008A000002001F03FF80020214600F0EDFD034B51
:1008B0004FF47A721A60002010BDC0467003002009
:1008C000014B18687047C04600000020014B98702B
:1008D0007047C04680030020014B18717047C04626
:1008E00080030020014B1B185971704780030020C2
:1008F000014BD8707047C04680030020034B1B7922
:1009000018420CBF002001207047C0462004002080
:10091000014BD8787047C04620040020014B1B18BB
:10092000587970472004002000EB012080B2704706
:10093000C0B2704700F47F40000A704730B5534999
:1009400081B00B68002B00F09F80514B514A9B787F
:10095000FE2B00F09580126822B94F4B1A704F4B56
:1009600006221A704C4D4D4C2B7821784C48C91AF0
:10097000C018FFF75FFF2B78C0182378C0B28342FE
:10098000287003D9FFF73CFF012808D0424B002014
:100990001A78434902F1FF3CA2F1020E19E02B78CC
:1009A0003C4A0BB9062300E0072313600022374BB3
:1009B0004FE00B5CFF2B04D101EB00035B78FF2BB6
:1009C00009D0704503D111F80C30FF2B03D0431C24
:1009D000D8B26045EDDB88B10021C0EB020CDFF836
:1009E000C0E006E00EEB01031B5C0EF801304B1C6F
:1009F000D9B26145F6DB284B121A1A70264D274CE6
:100A000095F800C02378634521D8214B24489A7873
:100A100083789A4203D01F4B07221A60C6E7C37837
:100A20000433D9B28C4521700BD26044CCEB010168
:100A3000FFF700FF2B78C0182378C0B283422870DC
:100A400005D8174B0021D87800229C460AE0114BAC
:100A500005221A6018E00CEB01039B781344DAB20C
:100A60004B1CD9B28842F6DA0D4B6FEA02021B1812
:100A7000DB78D2B293420549064A01D0072300E051
:100A80000123136000230B6001B030BD6804002017
:100A9000800300200000002067040020660400207E
:100AA0002004002030B5304881B00368012B58D0B5
:100AB0002E4A01230360D378982B10D811794A1E4F
:100AC000D2B2B1F1830318BF0123052A94BF0023DA
:100AD00003F001034BB10D2907D0072905D0244AA3
:100AE00004231360002303603BE0204A4FF0FF33F0
:100AF0001370537092F803C00021002006E002EB4F
:100B000001039B780344D8B24B1CD9B28C45F6DA6A
:100B1000164B6FEA00026344DA70154B1B68063B04
:100B2000012B01D8FFF7A6FE104DEC7828460434BF
:100B3000E4B22146FFF790FEC0B2844205D00C4BD0
:100B400002221A600022084B0AE02B79022B02D104
:100B5000A879063000E00620FFF742FE044B002291
:100B60001A6001B030BDC046680400208003002038
:100B70000000002010B5FFF795FF054A13682BB958
:100B80001446FFF7DBFE2368052BFAD010BDC046E4
:100B90000000002000B5074B81B01B684BB9064B25
:100BA00007221A7102229870DA70FFF7E3FF01B092
:100BB00000BDFEE7680400208003002000B50F4B55
:100BC00081B01B689446BBB90D4B0D221A711D3ABA
:100BD000DA7155221A720F225A72653A9A720822F5
:100BE0009870597183F806C0DA70FFF7C3FF32209E
:100BF00000F010FE01B000BDFEE7C0466804002012
:100C00008003002000B50B4B81B01B6894467BB974
:100C1000094A032313711FFA8CF393711B0AD371D2
:100C2000052390705171D370FFF7A4FF01B000BD90
:100C3000FEE7C046680400208003002000B50B4B8F
:100C400081B01B688BB90A4A022313719371042384
:100C500090705171D370FFF78DFF064B9A795879D8
:100C600000EB022080B201B000BDFEE76804002066
:100C7000800300202004002000B5094B81B01B68D0
:100C8000944663B9074B03221A7104229870597174
:100C900083F806C0DA70FFF76DFF01B000BDFEE714
:100CA000680400208003002000B50A4B81B01B6857
:100CB00073B9094A022313710123937104239070BD
:100CC000D3705171FFF756FF044B587901B000BD46
:100CD000FEE7C046680400208003002020040020B6
:100CE00000B5074B81B01B684BB9064B01221A7146
:100CF00002229870DA70FFF73DFF01B000BDFEE7F9
:100D0000680400208003002000B581B0FFF7BAFD21
:100D100001B000BD00B581B0FFF7BCFD034B01225F
:100D20001A60034B00221A6001B000BD00000020D1
:100D300068040020F0B583B00091002107460191BE
:100D400042F210750426009BB7FBF5F4B3420DDDAB
:100D500044B104F13001C9B2022000F0BFFE01210C
:100D6000019103E00220302100F0B8FE013E08D3DB
:100D700005FB147304499FB2A5FB0123DB089DB258
:100D8000E1E703B0F0BDC046CDCCCCCCF0B5002837
:100D900083B0044605DAC0F100042D21022000F0E2
:100DA0009DFE0027144E019794FBF6F3DDB245B18A
:100DB00005F13001C9B2022000F090FE012101913D
:100DC00005E0019B1BB10220302100F087FE0B499A
:100DD00006FB154486FB0123F117C1EBA3067B1C20
:100DE000DFB2092FE0D194FBF6F13031C9B2022015
:100DF00000F074FE03B0F0BD00CA9A3B67666666F9
:100E0000F0B5002883B0054602DB0021019104E023
:100E1000C0F1000301221DB20192002300930027BC
:100E200042F2107695FBF6F39CB287F00103002C9A
:100E30000CBF002303F001036BB1019919B102202B
:100E40002D2100F04BFE04F13001C9B2022000F068
:100E500045FE01270FE027B104F13001C9B202209D
:100E600007E0009A042A02D00220202101E002209B
:100E7000302100F033FE00994B1CDBB2052B0093B0
:100E800008D006FB145304491DB2A6FB0123DB085E
:100E90009EB2C7E703B0F0BDCDCCCCCCF0B50028F6
:100EA00083B0054602DB0021019104E0C0F100039C
:100EB00001225DB20192002300930027642695FB76
:100EC000F6F39CB287F00103002C0CBF002303F063
:100ED00001036BB1019919B102202D2100F0FEFD33
:100EE00004F13001C9B2022000F0F8FD012709E049
:100EF00027B104F13001C9B2022001E00220202113
:100F000000F0ECFD009A531CDBB2032B009308D0D9
:100F100006FB145304495DB2A6FB0123DB089EB215
:100F2000CDE703B0F0BDC046CDCCCCCCF0B50026AB
:100F300083B0134C07460196B7FBF4F545B105F1B4
:100F40003001C9B2022000F0C9FD012101910AE07F
:100F5000019B23B9032E02D80220202101E00220A8
:100F6000302100F0BBFD731CDEB20A2E06D005490D
:100F700004FB1577A4FB0123DC08DDE703B0F0BD1B
:100F800000CA9A3BCDCCCCCCF0B5002683B0074646
:100F9000019642F21074B7FBF4F545B105F130014A
:100FA000C9B2022000F09AFD012101910AE0019BE3
:100FB00023B9042E02D00220202101E0022030219A
:100FC00000F08CFD731CDEB2052E08D004FB1573F7
:100FD00004499FB2A4FB0123DB089CB2DBE703B00A
:100FE000F0BDC046CDCCCCCC174A30B5A0FB022317
:100FF0005C09E4B204F1300181B00546C9B20220B7
:1010000000F06CFDC4EB446304EB8303C4EBC30446
:1010100005EB84050D4AEDB2A5FB0223DC08E4B222
:1010200004F130010220C9B200F058FDC4EB447352
:101030003035C4EB830405EB4405EDB202202946AC
:1010400000F04CFD01B030BD1F85EB51CDCCCCCCB8
:10105000030903F00F0303F13001392988BF073179
:1010600010B5C9B20446022000F038FD04F00F03A9
:1010700003F13000392888BF0730C1B2022000F0E8
:101080002DFD10BD10B50446E4B2000AFFF7E0FFE5
:101090002046FFF7DDFF10BD10B50446A4B2000CDA
:1010A000FFF7F0FF2046FFF7EDFF10BD70B50646D5
:1010B0000D46002402E0304600F010FD295D0134A9
:1010C0000029F8D170BDC04600B581B000F0F0FB3A
:1010D00001B000BD00B581B000F06AFB01B000BDF9
:1010E00000B581B000F0A0FC01B000BD00B581B03A
:1010F00000F0B8FC01B000BD00B581B000F0D0FC3C
:1011000001B000BD00B581B000F070FE01B000BDBF
:1011100008B9064B08E0012808BF054B04D0022897
:1011200001D0002001E0034B186870470C0000203C
:10113000100000201400002070B54FF40C3182B074
:101140004FF0006001F002FF01AD4FF4C06001F00C
:101150005FFE01242523002628468DF804308DF8F3
:1011600005608DF806408DF8074001F05BFE2723EF
:101170008DF80430284603238DF806308DF805607D
:101180008DF8074001F04EFE1C2328468DF80430F0
:101190008DF805408DF806608DF8074001F042FE9D
:1011A00002B070BDF0B583B001AD594C284601F0D6
:1011B0000DFD4FF464530326ADF8043020464FF084
:1011C000100329468DF807308DF8066001F0AAFC5F
:1011D0004FF48063ADF8043020464FF004032946F5
:1011E0008DF8073001F09EFC4FF0FF03ADF804309E
:1011F00020464FF00003294618278DF8073001F0EC
:1012000091FC4FF4007320462946ADF804308DF868
:1012100006608DF8077001F085FC4CF20003ADF814
:10122000043020464823294604F580648DF80730B1
:1012300001F078FC41F23C33ADF8043020464FF029
:10124000100329468DF807308DF8066001F06AFC1E
:101250004FF40863ADF8043020464FF004032946EC
:101260008DF8073001F05EFC4EF2404320462946DF
:10127000ADF804308DF806608DF8077001F052FC6F
:101280004FF00303ADF8043020464FF00003294629
:1012900004F580648DF8073001F044FC4EF6C0730D
:1012A000ADF8043020464FF0100329468DF8073082
:1012B0008DF8066001F036FC4FF480532046294635
:1012C000ADF804308DF806608DF8077001F02AFC47
:1012D0004FF03F03ADF8043020464FF0000329469D
:1012E0008DF8073001F01EFC4FF004032946094831
:1012F000ADF804308DF8073001F014FC0420012112
:1013000001F0AAFC0448012101F0A6FC03B0F0BDE5
:1013100000080140001401400004300030B51E4CAC
:101320004FF4006587B02046294601F06BFC20464B
:101330004FF4806101F066FC4FF00003ADF8063019
:101340004FF48273ADF808304FF00203ADF80C3063
:101350004FF00103ADF80E304FF40073ADF81030CC
:101360004FF00803ADF81230A4F558444FF00003D5
:10137000ADF8143020464FF007030DF10601ADF82B
:101380000A50ADF8163002F011F92046012102F0A2
:101390004BF907B030BDC0460010014010B586B013
:1013A00001AC204600F0FCFE012100224FF4602336
:1013B0008DF809108DF814103148214601928DF8EE
:1013C00008200393049200F0C7FE2E48214600F047
:1013D000C3FE07232A480A21012200F045FF2848BE
:1013E0004FF40871002200F0F9FE0723254804217C
:1013F000012200F039FF002222484FF4087100F06A
:10140000EDFE1F48012100F0D5FE1E48012100F02D
:10141000D1FE1B4800F0EEFE194800F0F1FE002856
:10142000FAD100F1804000F5943000F0E3FE154859
:1014300000F0E6FE0028FAD100F1804000F592307D
:1014400000F0E4FE0E4800F0E7FE0028FAD100F1BB
:10145000804000F5943000F0D9FE0A4800F0DCFE30
:101460000028FAD100F18040012100F5923000F00F
:10147000D9FE0448012100F0D5FE06B010BDC046DB
:10148000002401400028014030B50D4685B000BB66
:10149000354B6846196003F02BF94FF00003ADF8A7
:1014A0000430ADF80630ADF80830ADF80C302F48F8
:1014B0004FF00C036946ADF80A30009503F05EFA70
:1014C0002A4840F22551012203F04CF96C46274886
:1014D00044E0012820D1264B6846196003F008F942
:1014E0004FF00003ADF80430ADF80630ADF8083029
:1014F000ADF80C301F484FF00C036946ADF80A30C8
:10150000009503F03BFA1B4840F22551012203F0FD
:1015100029F96C46174821E0022822D1164B68466B
:10152000196003F0E5F84FF00003ADF80430ADF8B2
:101530000630ADF80830ADF80C3010484FF00C0311
:101540006946ADF80A30009503F018FA0B4840F2EE
:101550002551012203F006F908486C46012103F0E9
:10156000F3F805B030BDC0460C0000200038014043
:1015700010000020005000401400002000480040EF
:1015800000B581B001F040FE4FF4803001F05CFE08
:1015900001F074FE012824D1102001F047F8022048
:1015A00001F02CF8002001F0B3FE002001F0C4FE91
:1015B0004FF4806001F0B6FE4FF480304FF4E0113C
:1015C00001F084FE012001F08BFE392001F0B4FF10
:1015D0000028FAD0022001F089FE01F091FE0828CF
:1015E000FBD1012146F63D6001F05CFF044801217A
:1015F00001F066FF012001F097FD01B000BDC0467B
:101600000F40141800B542F2283081B002F068F99A
:10161000012002F081F901B000BDC04630B583B0B1
:10162000684600F0B7FF0E21002001F045FB0023C3
:101630008DF804300C234FF480448DF80530684653
:1016400001238DF80630009400F060FF204600F082
:10165000A9FF204600F0B8FF20466D4600F0C8FF05
:1016600003B030BD70B588B00DF1160528460DF1F8
:1016700006064FF0804402F06FFC304602F078FC22
:10168000204602F0CFFF4FF0FF33ADF81A3020466E
:101690004FF000032946ADF81630ADF81C30ADF818
:1016A000183002F061F90122204640F2D22102F006
:1016B0004DFD4FF00003ADF80630ADF80830ADF841
:1016C0000E300B4B20461B883146ADF80C3002F033
:1016D00083FA2046002102F0E7FD20461021012276
:1016E00002F084FC2046012102F064FC08B070BDC9
:1016F0000A00002010B503F0FEF9FFF741FFFFF7E5
:101700001BFDFFF74FFD00F09DFF194B00201968EE
:10171000FFF700FB174B01201968FFF7B5FE164BCA
:10172000164C19680220FFF7AFFEFFF737FEFFF7F0
:1017300069FFFFF797FFFFF7F1FD2046102101F049
:1017400063FA2046202104F5806401F05BFA20460C
:101750004FF4806101F056FA20464FF4006101F029
:1017600051FA03F0CAF900F05FFC00F0C5FB10BDB0
:101770000C0000201000002014000020000C01408C
:101780007047C046084B0022196805E00023C918BD
:1017900001330A2BFBD101328242F7D3024B19608D
:1017A000024B19607047C046AC050020B005002010
:1017B000034A136813B11368013B13607047C046B6
:1017C000B405002000B5002081B000F069F8034B9B
:1017D000000980B2185C01B000BDC04618000020AE
:1017E00000B5012881B00BD100F1804000F58430B4
:1017F00000F57F7003304FF4807101F003FA04E0CC
:1018000003484FF4807101F0FFF901B000BDC046FC
:10181000000C014010B50446012002F067F8074BA8
:101820001C601A461368002BFCD16FF0010002F017
:101830005DF8002002F05AF810BDC046B405002043
:101840007B2010B501F078FE012801D1022422E0AE
:101850007A2001F071FE012801D101241BE07C20D7
:1018600001F06AFE012801D1032414E07D2001F07B
:1018700063FE012801D104240DE07E2001F05CFE0E
:10188000012801D1052406E07F2001F055FE012842
:101890000CBF0624002401F071FE204610BDC04696
:1018A000024B33F8100080B27047C046BA050020E2
:1018B00070B5174E1748347800F02CFD164D25F8FA
:1018C00014001648347800F025FD083425F814007B
:1018D00033780133DBB233703378082B01D1002326
:1018E00033700B4D0E4C2B78012254F8231009480D
:1018F0000723C9B200F0B8FC2B780848083354F825
:1019000023100122C9B2072300F0AEFC70BDC0460F
:10191000B805002000240140BA050020002801403D
:101920001801002038B90E4B4FF000021A801B88B6
:101930000C4A9BB212E0012807D10B4B4FF000027A
:101940001A801B88094A9BB208E0022807D1084B7D
:101950004FF000021A801B88064A9BB21380704722
:10196000DC0D0020DA0D0020E0150020DE1500203F
:10197000E41D0020E21D002018B90B4B1A880B4B08
:101980000CE0012803D10A4B1A880A4B06E0022812
:1019900001D0FF2006E0084B1A88084B1B88981AD4
:1019A00018BF01207047C046DA0D0020DC0D002072
:1019B000DE150020E0150020E21D0020E41D0020BF
:1019C00048B9134A138801339BB213801388114A14
:1019D0009B059B0D18E0012809D10F4A138801339C
:1019E0009BB2138013880D4A9B059B0D0CE00228C7
:1019F00001D0FF200BE00A4A138801339BB2138009
:101A00001388084A9B059B0D32F81330D8B27047F3
:101A1000DA0D0020DA050020DE150020DE0D0020A2
:101A2000E21D0020E215002000B50B4881B040F215
:101A3000255102F075FF68B1074802F003FF074A1D
:101A4000138801339BB213801388054A9B059B0DB5
:101A500022F8130001B000BD00480040E41D002042
:101A6000E215002000B50B4881B040F2255102F08C
:101A700057FF68B1074802F0E5FE074A13880133B3
:101A80009BB213801388054A9B059B0D22F8130017
:101A900001B000BD00500040E0150020DE0D002028
:101AA00000B50B4881B040F2255102F039FF68B112
:101AB000074802F0C7FE074A138801339BB2138020
:101AC0001388054A9B059B0D22F8130001B000BD49
:101AD00000380140DC0D0020DA05002010B50C466E
:101AE000E8B900F1804000F58630202101F08CF843
:101AF0001C48102101F086F8A1B21B4802F09EFE9E
:101B00001948402102F000FF0028F9D010211548A3
:101B100001F07AF81348202101F074F820E0012840
:101B20000ED100F1804000F59E4089B2FF3002F0F6
:101B300085FE0E48402102F0E7FE0028F9D00FE0B4
:101B400002280DD100F1804000F58E4089B2FE30B0
:101B500002F074FE0648402102F0D6FE0028F9D0BB
:101B600010BDC046000C014000380140005000404C
:101B7000004800400449054A0B78C0B2D0540133F4
:101B8000DBB20B707047C046E61D0020021E00202D
:101B9000014B00221A707047E61D002070B56249A3
:101BA0008B784A78487902EB0322604B92B21A8014
:101BB0000B7912B203EB00231FFA83FC5C4B087A0B
:101BC000A3F800C0CB7903EB00239CB2594BC87A31
:101BD0001C808B7A03EB00239DB2574B887B1D80C2
:101BE0004B7B03EB00239EB2544B487C1E800B7C46
:101BF00003EB002399B2524B198002F13F0332EA02
:101C0000220228BF1A46921102EB8202D31C32EA4A
:101C1000220228BF1A46921002F5007240F2FF33EA
:101C20009A42C8BF1A4602DC002AB8BF0022454BC0
:101C30001A800FFA8CF303F13F0233EA230328BF23
:101C400013469B1103EB8303DA1C33EA230328BFFB
:101C500013469B1003F5007240F2FF339A42C8BF4F
:101C60001A4602DC002AB8BF0022374B1A8023B282
:101C700003F13F0233EA230328BF13469B1103EB12
:101C80008303DA1C33EA230328BF13469B1003F5B2
:101C9000007240F2FF339A42C8BF1A4602DC002AA3
:101CA000B8BF0022294B1A802BB203F13F0233EA5E
:101CB000230328BF13469B11C3F5007240F2FF3384
:101CC0009A42C8BF1A4602DC002AB8BF0022204B45
:101CD0001A8033B203F13F0233EA230328BF1346CD
:101CE0009B11C3F5007240F2FF339A42C8BF1A46F7
:101CF00002DC002AB8BF0022164B1A800BB203F197
:101D00003F0233EA230328BF13469B1103F50072F9
:101D100040F2FF339A42C8BF1A4602DC002AB8BF1D
:101D200000220D4B1A8070BD021E0020EA1D00200B
:101D3000EC1D0020EE1D0020F01D0020F21D0020F3
:101D4000F41D0020F61D0020F81D0020FA1D0020C3
:101D5000FC1D0020FE1D0020001E0020014B1888E5
:101D60007047C046F61D0020014B18887047C046DA
:101D7000F81D0020014B18887047C046FA1D00204E
:101D8000014B18887047C046FC1D0020014B188885
:101D90007047C046FE1D0020014B18887047C046A2
:101DA000001E0020014BB3F900007047EA1D00201F
:101DB000014BB3F900007047EC1D0020014BB3F953
:101DC00000007047EE1D0020014BB3F90000704782
:101DD000F01D0020014BB3F900007047F21D0020F8
:101DE000014BB3F900007047F41D002070B53C4E64
:101DF0003C4D00243C48022101F0AAFC0028F9D007
:101E00003A484FF4006100F0FFFE315D364801F0C2
:101E100043FC3548022101F09BFC0028F9D03248F0
:101E2000012101F095FC0028F9D02F4801F036FC83
:101E30002B782F4AC0B2D05401332E4A0134DBB282
:101E40002B7084FB0223A3EBE47303EB43039C425C
:101E500004D126484FF4006100F0D4FE092CC9D10A
:101E60001F4E204D00242048022101F071FC002863
:101E7000F9D01E484FF4806100F0C6FE315D1A486B
:101E800001F00AFC1848022101F062FC0028F9D098
:101E90001548012101F05CFC0028F9D0124801F03E
:101EA000FDFB2B78124AC0B2D0540133114A0134E1
:101EB000DBB22B7084FB0223A3EBE47303EB43033D
:101EC0009C4204D109484FF4806100F09BFE092C2C
:101ED000C9D1FFF763FE034B00221A7070BDC046E4
:101EE00058010020E61D002000380040001001408D
:101EF000021E00205655555510B54748022101F0E5
:101F000027FC0028F9D045484FF4806100F07CFEA2
:101F10004148202101F0C0FB3F48022101F018FC9C
:101F20000028F9D03C48012101F012FC0028F9D02A
:101F3000394801F0B3FB3A493A4A0B78C0B2D05461
:101F40000133DBB20B7034483F2101F0A5FB32486E
:101F5000022101F0FDFB0028F9D02F48012101F0FA
:101F6000F7FB0028F9D02C4801F098FB2C492D4AAA
:101F70000B78C0B2D0540133DBB20B7027484FF45A
:101F8000806100F03FFE2448022101F0E1FB0028BF
:101F9000F9D022484FF4806100F036FE1E4823211C
:101FA00001F07AFB1C48022101F0D2FB0028F9D095
:101FB0001948012101F0CCFB0028F9D0164801F0A6
:101FC0006DFB1749174A0B78C0B2D0540133DBB20E
:101FD0000B701148102101F05FFB0F48022101F046
:101FE000B7FB0028F9D00C48012101F0B1FB002813
:101FF000F9D0094801F052FB094C0A4A2378C0B2D3
:10200000D0540133DBB205484FF48061237000F0F7
:10201000F9FD0023237010BD00380040001001407E
:10202000E61D0020021E002010B54748022101F0E5
:102030008FFB0028F9D045484FF4006100F0E4FD23
:102040004148202101F028FB3F48022101F080FB9C
:102050000028F9D03C48012101F07AFB0028F9D092
:10206000394801F01BFB3A493A4A0B78C0B2D054C8
:102070000133DBB20B703448FF2101F00DFB324815
:10208000022101F065FB0028F9D02F48012101F061
:102090005FFB0028F9D02C4801F000FB2C492D4AA9
:1020A0000B78C0B2D0540133DBB20B7027484FF429
:1020B000006100F0A7FD2448022101F049FB00283F
:1020C000F9D022484FF4006100F09EFD1E48232104
:1020D00001F0E2FA1C48022101F03AFB0028F9D095
:1020E0001948012101F034FB0028F9D0164801F00D
:1020F000D5FA1749174A0B78C0B2D0540133DBB276
:102100000B701148202101F0C7FA0F48022101F09D
:102110001FFB0028F9D00C48012101F019FB002811
:10212000F9D0094801F0BAFA094C0A4A2378C0B23A
:10213000D0540133DBB205484FF40061237000F046
:1021400061FD0023237010BD0038004000100140E5
:10215000E61D0020021E002043680A6823F4702355
:1021600023F4807313430A7943EA02234360CB6864
:102170008A68D0F808C01A43084B0CEA03031A43D4
:102180004B7942EA430282600B7CC26A013B22F433
:102190007002DBB242EA0352C2627047FDF7F1FF00
:1021A00000230360037143718360C36001230374E0
:1021B0007047C04619B1836843F0010302E08368A9
:1021C00023F001038360704719B1836843F480737F
:1021D00002E0836823F4807383607047C9B21AB148
:1021E000436841EA030302E0436823EA01034360D2
:1021F0007047C046836843F0080383607047C04659
:102200008068C00800F001007047C046836843F052
:10221000040383607047C0468068800800F00100B6
:102220007047C04619B1836843F4A00302E0836895
:1022300023F4A003836070478068800D00F00100E4
:102240007047C0464368013923F4604343EA413391
:102250004360704719B1436843F4006302E0436888
:1022600023F4006343607047092930B594460C4657
:102270001D464FEA41020BD912191E3A072393401B
:1022800015FA02F2C16821EA03011143C16009E0B5
:1022900012190723934015FA02F2016921EA03019A
:1022A00011430161BCF1060F0CD80CEB8C02053A0E
:1022B0001F23934014FA02F2416B21EA03011143F8
:1022C00041631BE0BCF10C0F4FEA8C020BD8624457
:1022D000233A1F23934014FA02F2016B21EA03010F
:1022E000114301630AE06244413A1F23934014FA08
:1022F00002F2C16A21EA03011143C16230BDC04646
:1023000019B1836843F4801302E0836823F48013D7
:1023100083607047C06C80B27047C046014B18683C
:102320007047C0464C24014019B1436843F48063B0
:1023300002E0436823F480634360704719B1436847
:1023400043F4805302E0436823F4805343607047B2
:10235000836823F4E04319438160704719B18368AF
:1023600043F4004302E0836823F400438360704732
:1023700019B1836843F4021302E0836823F4021363
:10238000836070478068400D00F001007047C046D0
:10239000092930B58C4615461C464FEA41020BD937
:1023A00062441E3A0723934014FA02F2C16821EAFC
:1023B00003011143C16009E062440723934014FA0A
:1023C00002F2016921EA030111430161836B1F21BC
:1023D00003F440126FEA12522A440332D2B202EBE3
:1023E000820291400CFA02F223EA01031343836351
:1023F00030BDC046836B013923F4401343EA0153D7
:102400008363704782B00A5002B0704782B0019077
:102410002830405880B202B07047C046436823F469
:10242000400323F4007319434160704741628262A4
:102430007047C046436823F01F031943416070474B
:1024400020B1054A936843F4000303E0024A93680D
:1024500023F400039360704700240140036819428D
:102460000CBF0020012070476FEA01010160704736
:102470004268036813EA112301D1002004E0CBB2C3
:1024800013420CBF002001207047C0466FEA1121A3
:102490000160704700B5144B83B0984201900FD093
:1024A00003F5A053984213D0A3F5C053984219D115
:1024B0004FF40070012101F011F84FF400700EE0AC
:1024C0004FF48060012101F009F84FF4806006E0CC
:1024D0004FF40040012101F001F84FF400400021C9
:1024E00000F0FCFF03B000BD00280140064B0022B5
:1024F0001A605A609A60DA6002F18072A2F578027E
:10250000013A5A617047C04600040140837910B512
:10251000D0F800C00479002B30D01D496FEA0C02BE
:102520000B6802EA03030B604B681A404A6004F12F
:10253000804202F58232136843EA0C031360D0F83C
:1025400000C08B686FEA0C0202EA03038B60CB6861
:1025500040791A401028CA6008D18B6843EA0C03FE
:102560008B60CB6843EA0C03CB600FE000F1804244
:1025700002F58232136843EA0C0306E004F180425C
:1025800002F58232136823EA0C03136010BDC046C3
:102590000004014000220C23026002714371827129
:1025A0007047C046024A1369184310617047C0461D
:1025B00000040140034B5B6918420CBF002001205E
:1025C0007047C04600040140014B58617047C04647
:1025D00000040140054B1A685B69184201D10020D4
:1025E00003E010420CBF00200120704700040140AE
:1025F000014B58617047C04600040140044A13680B
:1026000003F0380313601368184310607047C04626
:1026100000200240044A136823F008031360136883
:10262000184310607047C04600200240044A1368F7
:1026300023F0100313601368184310607047C046FE
:1026400000200240034B044A5A6002F188325A606B
:102650007047C0460020024023016745024A1369C3
:1026600043F080031361704700200240014BD8699A
:102670008008704700200240014B186A7047C0462E
:1026800000200240024BD869400800F0010070476A
:1026900000200240024B1868400900F0010070471A
:1026A0000020024021B1054A136940EA030303E018
:1026B000024A136923EA00031361704700200240B5
:1026C000012804D1054BDB6903F0010005E0034B51
:1026D000DB6818420CBF0020012070470020024038
:1026E000014BD8607047C04600200240094AD368B9
:1026F00013F0010F01D001200BE0D36813F0040F99
:1027000001D0022005E0D36813F0100F14BF03209E
:10271000042070470020024010B5234A82B0D368DD
:10272000014613F0010F01D001202AE0D36813F015
:10273000040F01D0022024E0D36813F0100F14BF5F
:10274000032004201DE00194CDF804C002E0019BA9
:10275000013B0193019B002BF9D1D36813F0010FCA
:1027600001D001200BE0D36813F0040F01D0022048
:1027700005E0D36813F0100F14BF032004200139C3
:1027800003E0094A00244FF0FF0C0B1E18BF012381
:10279000012814BF002303F00103002BD3D100292B
:1027A00008BF052002B010BD00200240F0B5134B59
:1027B000134C81B0A36003F188330546A3600F205A
:1027C0000E461746FFF7A8FF042815D123690D4AC6
:1027D00043F01003236145F0F80346EA030347EA98
:1027E000030353800F20FFF797FF01281FBF2269C3
:1027F00041F6EF731340236101B0F0BD230167453B
:102800000020024000F8FF1F30B5054681B040F6B9
:10281000FF70FFF781FF04283CD11F4C1F4B00F5D0
:102820007E60A36003F18833A36023691B3043F00B
:1028300020032361236943F040032361FFF76CFF0A
:10284000042820D1236941F6DF7203EA02022261E3
:10285000236943F0100323611DB1114B4FF00002B7
:1028600002E00F4B4FF0A5021A8040F6FF70FFF711
:1028700053FF01280ED0084941F6EF730A6902EAB6
:1028800003030B6106E001281FBF226941F6DF73D5
:102890001340236101B030BD002002402301674591
:1028A00000F8FF1F10B504460F20FFF735FF04287E
:1028B00050D1294A294B6FEA0404936003F188330D
:1028C00093601369E1B243F01003FF29136104D050
:1028D000234B0F201981FFF71FFF04F47F431A0ACF
:1028E000B2F1FF0318BF0123042814BF002303F033
:1028F000010323B11A4B0F205A81FFF70DFF04F497
:102900007F031A0CB2F1FF0318BF0123042814BF80
:10291000002303F0010323B1114B0F209A81FFF72D
:10292000FBFE220EB2F1FF0318BF0123042814BFDF
:10293000002303F0010323B1094B0F20DA81FFF7D5
:10294000EBFE01281FBF044941F6EF730A691340EB
:1029500018BF0B6110BDC04600200240230167452F
:1029600000F8FF1F70B506460F200D46FFF7D4FE96
:10297000042814D10A4C0B4B0F20A36003F18833B9
:10298000A360236943F0100323613580FFF7C4FE81
:1029900001281FBF226941F6EF731340236170BD08
:1029A000002002402301674570B506460F200D4602
:1029B000FFF7B2FE04280FD1084C0F20236943F023
:1029C000010323613580FFF7A7FE01281FBF22699D
:1029D00041F6FE731340236170BDC04600200240E3
:1029E00070B506460F200D46FFF796FE042817D156
:1029F0000C4C0F20236943F001032361ABB23380F9
:102A0000FFF78AFE042804D12B0C73800F20FFF7F8
:102A100083FE01281FBF226941F6FE731340236124
:102A200070BDC0460020024010B540F6FF70FFF7B1
:102A300073FE04282CD1174C174B00F57E60A36061
:102A400003F18833A36023691B3043F02003236123
:102A5000236943F040032361FFF75EFE042810D191
:102A6000226941F6DF7302EA0303236123694FF011
:102A7000A50243F010032361084B0F201A80FFF7D3
:102A80004BFE01281FBF226941F6EF7313402361FB
:102A900010BDC046002002402301674500F8FF1F1B
:102AA00010B540F6FF70FFF737FE042813D10A4C2B
:102AB000236903432361236900F57E6043F04003EB
:102AC00023611B30FFF728FE01281FBF226941F652
:102AD000FB731340236110BD0020024030B5054652
:102AE00081B040F6FF70FFF717FE042815D10C4C9B
:102AF00000F57E6023691B3043F0020323616561AA
:102B0000236943F040032361FFF706FE01281FBF3E
:102B1000226941F6FD731340236101B030BDC04608
:102B200000200240F0B5CD780E8815F0100F18BFC8
:102B30008B7805F00F0718BF1F4316F0FF0F83B007
:102B40001ED004680021012212FA01F303EA060CE8
:102B50009C4511D18A000F23934017FA02F224EA10
:102B600003041443282D019308BFC0F814C003D0F8
:102B7000482D08BFC0F810C001310829E3D1046016
:102B8000FF2E20D944680021012201F1080312FA26
:102B900003F303EA060C9C4511D18A000F239340EE
:102BA00017FA02F224EA03041443282D019308BF04
:102BB000C0F814C003D0482D08BFC0F810C00131C0
:102BC0000829E1D1446003B0F0BDC0464FF0FF33A7
:102BD0000380022383700423C37070478368194203
:102BE0000CBF002001207047806880B27047C0464B
:102BF000C36819420CBF002001207047C06880B232
:102C00007047C04601617047416170470AB1016178
:102C100000E041617047C046C160704741F48033B5
:102C2000836181618361836983697047DFF818C0BC
:102C30004FF68073DCF8002041EA001102EA03033A
:102C40001943CCF80010704700000140014B186098
:102C50007047C0461C00204230B500F44013040405
:102C60000D461449240CB3F5401FD1F804C006D119
:102C70004B682CF0706223F070634B6010E010F42E
:102C8000801F05D000F47022120C0323934003E050
:102C9000430D1B0114FA03F32CEA030343F07062A3
:102CA00025B1430D1B0114FA03F31A43014B5A607B
:102CB00030BDC0460000014010B501F00304A4007F
:102CC0000F23A340A040DFF820C0890802315CF840
:102CD000212022EA03024CF821205CF8213018431D
:102CE0004CF8210010BDC0460000014000B5012095
:102CF000012181B000F0F2FB0120002100F0EEFB89
:102D000001B000BD00B5274B83B0984201902BD095
:102D10000CD8A3F5006398421AD003F5806398425B
:102D20001CD0A3F5006398423AD10BE01E4B9842A9
:102D300026D003F58063984228D0A3F5006398421B
:102D40002ED117E00420012100F0C8FB042024E06C
:102D50000820012100F0C2FB08201EE01020012104
:102D600000F0BCFB102018E02020012100F0B6FB91
:102D7000202012E04020012100F0B0FB40200CE0B8
:102D80008020012100F0AAFB802006E04FF4807033
:102D9000012100F0A3FB4FF48070002100F09EFBA6
:102DA00003B000BD00140140001C01400B4B4FF06C
:102DB000FF316FF07042C3F880101846C3F88420CA
:102DC000C3F88011C3F884210021002202F1C0035E
:102DD00001320F2A40F82310F8D1704700E100E0DB
:102DE000094A4FF020630949536000239360D16082
:102DF000136153619361D36113625362013B936228
:102E0000D36213637047C04600ED00E00000FA058E
:102E100040F0BE60024B40F42020D8607047C046AE
:102E200000ED00E030B5C37805785BB31A4B41780C
:102E3000DA681A4C6FEA020202F4E062120AC2F186
:102E4000040399400F23D340827805F00300134018
:102E50000B43C0001B01FF22824083404FEA950CC8
:102E60000CF1C00C54F82C10134021EA02010B4362
:102E700044F82C3005F01F0201239340690944F8FF
:102E8000213008E005F01F02012393406909034A3D
:102E9000203142F8213030BD00ED00E000E100E0DB
:102EA0000023037043708370C3707047034B044862
:102EB0005B6803EA0000000B7047C04600ED00E0CD
:102EC00000F03F0000F01F0301229A404009054B2B
:102ED000403053F820001040904214BF00200120E1
:102EE0007047C04600E100E0014B18607047C046E3
:102EF00000EF00E04109012300F01F008340024A77
:102F0000603142F82130704700E100E0024B586820
:102F10008005800D7047C04600ED00E000F01F0303
:102F200001229A404009054B803053F820001040A0
:102F3000904214BF002001207047C04600E100E02D
:102F4000014B18687047C04600ED00E0014B01439B
:102F50009960704700ED00E0014A024BDA6070476B
:102F60000400FA0500ED00E0014A024BDA60704708
:102F70000100FA0500ED00E021B1054A136940EABD
:102F8000030303E0024A136923EA00031361704755
:102F900000ED00E000F01F00012313FA00F021B162
:102FA000054A536A40EA030303E0034A536A23EAEB
:102FB000000353627047C04600ED00E010B5144CAA
:102FC000E3686FEA030303F4E0631B0AC3F1040C34
:102FD00001FA0CF14FF0FF0C2CFA03F31A400A43EC
:102FE00000F0C001400900F018000CFA00FC1201CA
:102FF00082408909063154F8213023EA0C0344F851
:10300000213054F821301A4344F8212010BDC04625
:1030100000ED00E0800A00F00F0001238340044A25
:10302000506A03EA0000984214BF00200120704754
:1030300000ED00E000F01F0001238340024A5168C8
:103040000B4353607047C04600ED00E000F01F00E6
:10305000013801238340024A51680B435360704793
:1030600000ED00E0800B00F00F0001238340044AD4
:10307000506A03EA0000984214BF00200120704704
:1030800000ED00E0830C13F0030302D10D4BD86A6E
:1030900017E0012B13D103F1604303F56C43FE33BA
:1030A000020D013302F00302996AD30031FA03F0F2
:1030B000022A14BF00F00F0000F0FF0001E0014BF6
:1030C000186B704700ED00E010F4800F0BBF024B4F
:1030D000014B586B986B704700ED00E000B581B074
:1030E00001F014FD01B000BD00B5000181B001F098
:1030F0000AFD01B000BDC04600B581B001F001FD80
:1031000001B000BD00B581B001F0F9FC01B000BD17
:1031100000B581B001F0F1FC01B000BD00B581B097
:1031200001F0E9FC01B000BD014B18607047C046DA
:1031300020000E42014B18607047C04610000E423E
:10314000034A136823F0E003184310607047C04639
:1031500000700040014B18607047C046A0000E424E
:10316000034B5B6818420CBF002001207047C0462B
:1031700000700040024A136843EA800313607047FE
:10318000007000400B4A00B5136881B043F004039F
:103190001360136843F00203136002F1204202F54A
:1031A000FA421032136843F00403136001F07EFC0E
:1031B00001B000BD007000400C4A00B5136881B03A
:1031C00023F003031843106002F1204202F5FA4293
:1031D00010321368012943F00403136002D101F097
:1031E00065FC01E001F064FC01B000BD007000402E
:1031F00010B54FF080542046012100F07DF92046A3
:10320000002100F079F910BD0D4A136843F0010365
:10321000136051680B4B01EA03035360136823F0FA
:10322000847323F480331360136823F480231360C2
:10323000536823F4FE035360002393607047C04635
:10324000001002400000FFF80B4AB0F5803F136801
:1032500023F480331360136823F48023136003D0B6
:10326000B0F5802F07D102E01368034302E0136832
:1032700043F4A023136070470010024082B0002383
:10328000094901930A68019B013312F4003F01933D
:1032900003D1019BB3F5A06FF4D1034B1868400C28
:1032A00000F0010002B0704700100240034A1368AA
:1032B00023F0F80343EAC003136070470010024094
:1032C000014B18607047C04600004242034A5368F1
:1032D00023F47C13184308435060704700100240E9
:1032E000014B18607047C04660004242034A536871
:1032F00023F00303184350607047C046001002409B
:10330000024B586800F00C007047C04600100240A5
:10331000034A536823F0F003184350607047C046D7
:1033200000100240034A536823F4E06318435060DE
:103330007047C04600100240034A536823F46053AC
:1033400043EAC003536070470010024021B1054AB0
:10335000137840EA030303E0024A137823EA0003E8
:103360001370704709100240014B18607047C04647
:10337000D8004242034A536823F440431843506044
:103380007047C04600100240064A0023012813700F
:10339000137008BF107003D0042801D105231370E7
:1033A0007047C04620100240014B18607047C0466D
:1033B00080044242024A136A184310627047C046B2
:1033C00000100240014B18607047C0463C04424266
:1033D000294984464B6803F00C03042B21D0082BA9
:1033E0001FD14B6803F470139B0C9A1C4B6813F4A9
:1033F000803F08BFC2EB421306D04B6813F4003F76
:103400004FEA421306D09B1AC3EB831302EBC303AC
:103410001B0207E09B1AC3EB831302EBC3035B029F
:1034200000E0164B1448CCF800304368144A03F00F
:10343000F0031B09D35CDCF80010D940CCF8041071
:10344000436803F4E0631B0AD35C31FA03F3CCF85E
:103450000830436803F46053DB0AD35C094AD9405F
:10346000CCF80C10436803F440439B0BD35CB1FBD6
:10347000F3F1CCF8101070470010024000127A00EF
:10348000707B0208807B020821B1054A536940EA3B
:10349000030303E0024A536923EA000353617047C0
:1034A0000010024021B1054A936940EA030303E09A
:1034B000024A936923EA00039361704700100240B7
:1034C00021B1054AD36940EA030303E0024AD36904
:1034D00023EA0003D36170470010024021B1054A7E
:1034E000D36840EA030303E0024AD36823EA0003F7
:1034F000D36070470010024021B1054A136940EAC9
:10350000030303E0024A136923EA000313617047CF
:1035100000100240014B18607047C0464004424210
:10352000014B18607047C0464C004242014B187076
:103530007047C046071002404309012B08D103F130
:10354000804303F5023303F5FF6307331B680CE088
:10355000022B08D103F1804303F5023303F5FF6327
:1035600006331B6A01E0044B5B6A00F01F0033FA6C
:1035700000F000F00100704700100240024A536A58
:1035800043F080735362704700100240034B9B6806
:1035900018420CBF002001207047C04600100240B6
:1035A000014B18707047C0460A1002400A884B88C9
:1035B000B0F800C013438A880CF4415C1343CA88F6
:1035C00013430A8913434A8913438A891343CA89D7
:1035D00013434CEA030C1FFA8CFCA0F800C0838B49
:1035E00023F400631B041B0C83830B8A0382704744
:1035F0004FF00003038043808380C38003814381B5
:103600008381C3814FF00703038270474FF00003AB
:10361000038043808380C3804FF0020303814FF017
:10362000000343817047C04621B103889BB243F039
:10363000400304E0038823F040031B041B0C0380B9
:103640007047C04621B1838B9BB243F4806304E092
:10365000838B23F480631B041B0C83837047C04659
:10366000090901238B4099B222B183889BB241EAB8
:10367000030303E083889BB223EA0103838070473E
:1036800022B183889BB241EA030303E083889BB2A3
:1036900023EA01038380704781817047808980B26B
:1036A0007047C0464FF6FF63994217BF03880388EF
:1036B0009BB243F4807308BF0B4003807047C04641
:1036C00021B183889BB243F0040304E0838823F094
:1036D00004031B041B0C83807047C046038823F43B
:1036E00000631B041B0C038003889BB219430180F9
:1036F0007047C04603889BB243F4805303807047F1
:1037000021B103889BB243F4005304E0038823F4FF
:1037100000531B041B0C03807047C046012914BFD3
:10372000038B838A98B27047008A80B27047C04684
:10373000B1F5804F04D103889BB243F4804304E089
:10374000038823F480431B041B0C03807047C0468E
:10375000038919420CBF0020012070476FEA010164
:1037600089B201817047C046838802891FFA83FCB1
:10377000012001F00F0310FA03F392B21A4201D1B3
:10378000002007E00B0910FA03F31CEA030F0CBF3B
:10379000002001207047C04601F00F0101238B403B
:1037A0006FEA03039BB203817047C046838BF0B579
:1037B00023F47A6323F01F031B041B0C83834FF055
:1037C00002030384838B87B09FB20B890546022BCB
:1037D0000C4602D10221002226E08B8801A8002B92
:1037E0000CBF01260226FFF7F3FDE3882289B3F51B
:1037F000007F019B04D103EB83035B00120205E011
:10380000520106FB02F203EB83035B00B3FBF2F30E
:103810000533134A9BB2A3FB0223DB0803F001022A
:1038200012025B0899B292B28B1E9BB2FE2B28BF8C
:10383000002228BF022141EA0203E28813439BB21F
:103840002B842388628847EA030343F4006313430D
:10385000A2881343628913439BB2AB8307B0F0BDC8
:10386000CDCCCCCC00B5164B83B0984201901BD088
:1038700003F57443984204D0A3F5784398421DD1D0
:103880000AE001214FF48050FFF728FE4FF48050EA
:103890000021FFF723FE11E04FF480400121FFF7E4
:1038A0002BFE4FF4804006E04FF400400121FFF76B
:1038B00023FE4FF400400021FFF71EFE03B000BDC1
:1038C000003C0040042803D1044A1368034303E08A
:1038D000024A136823F004031360704710E000E00D
:1038E000014B58607047C04610E000E0012803D14A
:1038F000084A1368034306E010F1020F05D1054A98
:10390000136823F00103136002E0024B00229A6067
:103910007047C04610E000E020B1054A136843F04C
:10392000020303E0024A136823F0020313607047A6
:1039300010E000E0014B98687047C04610E000E0DE
:10394000C308022B024606D103F1604303F560432E
:103950000E33186801E0034BD868D04000F0010036
:103960007047C04610E000E0038882B003F08F0388
:1039700003800388CA889BB213434A88019013438B
:103980009BB203808B880B4A83850B888C4603850A
:103990004FF001038382084B984214BF0023012398
:1039A000904208BF43F0010313B19CF8083003862E
:1039B00002B07047002C014000340140038C8C465B
:1039C00023F001031B041B0C0384018C8388F0B5D6
:1039D0009DB2038BBCF808209EB2BCF8023021F0E7
:1039E0000201134309049BB2090C43EA0104BCF829
:1039F0000630BCF8007083861A4B1B4A984214BFED
:103A00000023012383B0904208BF43F001030190DB
:103A1000EBB102F14042A2F53052BCF80A30093A4B
:103A200004EA02021A434FF6FB7302EA0303BCF8EE
:103A3000042047F6FF4143EA0204BCF80E30BCF80C
:103A40000C2005EA010113439BB243EA01054FF63E
:103A50008F7306EA03033B4385800383048403B02A
:103A6000F0BDC04600340140002C0140038CF0B58D
:103A700023F010031B041B0C0384038C828823F0A7
:103A8000200395B2028B1B0496B20A891B0C43EAF1
:103A900002134A889BB243EA02139CB2CB880F8878
:103AA00003871E4B1E4A984214BF0023012383B094
:103AB000904208BF43F0010301908C460BB302F122
:103AC0004042A2F53252BCF80A30013A04EA02023E
:103AD00042EA03124FF6BF7302EA0303BCF8042064
:103AE00043EA02139CB2BCF80C2047F2FF3305EA0C
:103AF000030343EA8203BCF80E209BB243EA82032D
:103B00009DB248F6FF7306EA030343EA07239BB21C
:103B100085800383048403B0F0BDC04600340140B7
:103B2000002C0140038CF0B523F480731B041B0CA4
:103B30000384038C828823F4007395B2828B1B0468
:103B400096B20A891B0C43EA02234A889BB243EAD5
:103B500002239CB2CB880F8883871D4B1D4A984255
:103B600014BF0023012383B0904208BF43F0010338
:103B700001908C460BB302F14042A2F55052BCF8C2
:103B80000A30013A04EA020242EA03224FF6FF3306
:103B900002EA0303BCF8042043EA02239CB2BCF807
:103BA0000C2044F6FF7305EA030343EA0213BCF852
:103BB0000E209BB243EA02139DB24FF68F7306EAC2
:103BC00003033B4385808383048403B0F0BDC04678
:103BD00000340140002C0140038CF0B523F48053E5
:103BE0001B041B0C0384038C85B09BB20293838857
:103BF0004A881FFA83FC838B0E889DB2CB880F897D
:103C0000A0F84030174B0192174A984214BF002386
:103C10000123904208BF43F0010303900C463BB1DF
:103C20004FEA8C43A2899B0C43EA82131FFA83FC60
:103C300048F6FF7305EA030343EA06239BB2029AA0
:103C4000A0F804C083834DF6FF7302EA030343EA3E
:103C50000733019A9BB243EA02339BB2038405B057
:103C6000F0BDC04600340140002C01400B8830B547
:103C700004460D4643BB238C498823F001031B04F3
:103C80001B0CB5F804C028892384238B228C23F0D5
:103C9000F3031B041B0C22F0020243EA001312047C
:103CA0009BB2120C41F0010143EA0C030A43238347
:103CB0002284238BEA8823F00C031B041B0C238330
:103CC000238B9BB213432EE0042B2ED1238CB1F80F
:103CD00002C023F010031B041B0C8888098923846D
:103CE000238B228C23F440731B0522F020021B0D32
:103CF000120443EA0133120C9BB242EA0C1243EA6B
:103D0000002392B29BB242F0100223832284238BC1
:103D1000EA8823F440631B041B0C2383238B9BB290
:103D200043EA02239BB2238355E0082BB1F802C07B
:103D30008888098925D1238C23F480731B041B0CEC
:103D40002384A38B228C23F0F30322F400721B0440
:103D500012041B0C120C43EA011342EA0C229BB220
:103D600092B2034342F48072A3832284A38BEA8835
:103D700023F00C031B041B0CA383A38B9BB21343E4
:103D800028E0238C23F480531B041B0C2384A38B77
:103D9000228C23F440731B0522F400521B0D1204E5
:103DA00043EA0023120C9BB242EA0C3243EA01338D
:103DB00092B29BB242F48052A3832284A38BEA88FE
:103DC00023F440631B041B0CA383A38B9BB243EA25
:103DD00002239BB2A38330BD8C46F0B5BCF8003003
:103DE0004C888988002C0CBF0227002701290CBFB2
:103DF00002260126BCF80850002B4BD1038C23F07F
:103E000001031B041B0C0384038B028C23F0F303BC
:103E10001B041B0C43EA051322F002029BB212049E
:103E20000B43120C44F001010A4303830284038B09
:103E3000BCF8061023F00C031B041B0C0383038B3C
:103E40009BB20B430383038C23F010031B041B0C56
:103E50000384038B028C23F440731B0522F0300291
:103E60001B0D120443EA0533120C9BB242F0100200
:103E700043EA062342EA071203830284038B23F4F6
:103E800040631B041B0C0383038B9BB243EA012397
:103E90009BB24CE0038C23F010031B041B0C038427
:103EA000038B028C23F440731B0522F020021B0DB0
:103EB000120443EA0533120C9BB242EA041243EAAD
:103EC000012392B29BB242F0100203830284038B5F
:103ED000BCF8061023F440631B041B0C0383038B04
:103EE0009BB243EA01239BB20383038C23F00103BB
:103EF0001B041B0C0384038B028C23F0F3031B04B1
:103F000022F003021B0C120443EA0513120C9BB2AD
:103F100042F0010233433A4303830284038B23F0CC
:103F20000C031B041B0C0383038B9BB20B43038307
:103F3000F0BDC0460A884B8813438A881343CA8859
:103F400013430A8913434A8913438A8913439BB253
:103F5000A0F844307047C0464FF0FF3383804FF0E5
:103F600000030380C3804380002303727047C04670
:103F70004FF00003038043808380C380038143812B
:103F80008381C3817047C0464FF0000303804380A4
:103F90004FF0010383804FF00003C380038170471B
:103FA0004FF00003038043808380C38003814381FB
:103FB0008381704721B103889BB243F0010304E081
:103FC000038823F001039B059B0D03807047C046C7
:103FD00029B1B0F844309BB243F4004303E0B0F899
:103FE00044305B045B0CA0F84430704722B18389F5
:103FF0009BB241EA030303E083899BB223EA0103F6
:1040000083817047818270470A43A0F84820704737
:1040100022B183899BB241EA030303E083899BB207
:1040200023EA010383817047038923F007031B04FC
:104030001B0C03817047C046038923F070031B04E7
:104040001B0C1943018103899BB243F007030381D1
:104050007047C04610B50C46602C11469C461AD1DC
:10406000038C23F010031B041B0C0384038B028CB2
:1040700023F4407322F030021B0512041B0D120CB6
:1040800043F4807342F0100243EA0C3342EA011217
:104090009BB292B217E0038C23F001031B041B0CAC
:1040A0000384038B028C23F0F3031B0422F003022E
:1040B0001B0C120443F00103120C43EA0C1342F0F0
:1040C00001029BB20A4303830284038923F0700335
:1040D0001B041B0C44EA0303038103899BB243F0D6
:1040E0000703038110BDC046B0F808C05FFA8CFC1E
:1040F00041EA0C010A4342EA032292B20281038997
:1041000023F077031B041B0C43F0770303817047F4
:10411000B0F808C05FFA8CFC41EA0C010A4342EA9D
:10412000032292B2028103899BB243F4804303814C
:104130007047C046B0F808C05FFA8CFC41EA0C0139
:104140000A4342EA032292B20281704701858282C9
:104150007047C046038823F070039B059B0D1943ED
:1041600001807047038923F070031B041B0C194363
:1041700001817047B0F808C030B5048B058C24F479
:10418000407425F0220524F003042D042CF0070CC4
:1041900024042D0C4FEA0C4C240C2A434FEA1C4CEF
:1041A00044F4807442EA031241EA0C0144F0010431
:1041B00092B201810483028430BDC046038B23F098
:1041C00070031B041B0C194301837047038B23F4FA
:1041D000E0431B041B0C43EA01239BB2038370479B
:1041E000838B23F070031B041B0C194381837047DE
:1041F000838B23F4E0431B041B0C43EA01239BB293
:104200008383704721B103889BB243F0800304E0AD
:10421000038823F080039B059B0D03807047C046F5
:1042200021B183889BB243F0040304E0838823F028
:1042300004031B041B0C83807047C04621B1838894
:104240009BB243F0080304E0838823F008031B04B7
:104250001B0C83807047C04621B183889BB243F01A
:10426000010304E0838823F001031B041B0C8380FB
:104270007047C046038B23F008031B041B0C194333
:1042800001837047038B23F400631B041B0C43EA78
:1042900001239BB203837047838B23F008031B0425
:1042A0001B0C194381837047838B23F400631B0429
:1042B0001B0C43EA01239BB283837047038B23F0DB
:1042C00004031B041B0C194301837047038B23F465
:1042D00080631B041B0C43EA01239BB203837047DA
:1042E000838B23F004031B041B0C19438183704749
:1042F000838B23F480631B041B0C43EA01239BB2D2
:1043000083837047038B23F080031B041B0C19432A
:1043100001837047038B5B045B0C43EA01239BB270
:1043200003837047838B23F080031B041B0C19430A
:1043300081837047838B5B045B0C43EA01239BB250
:1043400083837047038C23F002031B041B0C194367
:1043500001847047038C23F008031B041B0C1943D2
:1043600001847047038C23F020031B041B0C43EAD9
:1043700001139BB203847047038C23F080031B045A
:104380001B0C43EA01139BB203847047038C23F494
:1043900000731B041B0C43EA01239BB20384704788
:1043A000038C23F400631B041B0C43EA01239BB220
:1043B00003847047038C23F400531B041B0C43EA53
:1043C00001339BB20384704701238B408A40B0F8CD
:1043D00020C01FFA8CFC2CEA030CA0F820C0038C30
:1043E0001A4392B20284704704238B408A40B0F88B
:1043F00020C01FFA8CFC2CEA030CA0F820C0038C10
:104400001A4392B20284704701238B409446028C77
:1044100082B092B222EA0302082914BF00230123CA
:10442000002908BF43F00103019002846BB110F131
:104430001802490850584FF68F7300EA030353508F
:10444000535843EA0C03535010E001980A1F92B2EC
:1044500018305208815848F6FF7301EA030383506D
:1044600081584FEA0C239BB21943815002B0704728
:1044700021B103889BB243F0020304E0038823F0D8
:1044800002039B059B0D03807047C04621B1038842
:104490009BB243F0040304E0038823F004039B056C
:1044A0009B0D03807047C04621B183889BB243F0C7
:1044B000800304E0838823F080031B041B0C8380AB
:1044C0007047C046038823F008039B059B0D0380BB
:1044D00003889BB2194301807047C046838823F04C
:1044E00070031B041B0C838083889BB2194381805B
:1044F0007047C046038923F007031B041B0C03818C
:1045000003899BB2194301817047C046038923F098
:1045100080031B041B0C038103899BB21943018197
:104520007047C04681847047818570478186704797
:104530000187704781877047A0F840107047C046D8
:10454000038B23F00C031B041B0C0383038B9BB214
:10455000194301837047C046038B23F440631B0457
:104560001B0C0383038B9BB243EA01239BB203839F
:104570007047C046838B23F00C031B041B0C838302
:10458000838B9BB2194381837047C046838B23F48E
:1045900040631B041B0C8383838B9BB243EA012380
:1045A0009BB283837047C0460388DBB203800388D5
:1045B0009BB2194301807047808E80B27047C0461D
:1045C000008F80B27047C046808F80B27047C0466F
:1045D000B0F8400080B27047808C80B27047C0460F
:1045E000008D80B27047C046038A19420CBF00207C
:1045F000012070476FEA010189B201827047C0460D
:10460000038A828919420CBF0020012011420CBF8D
:10461000002000F0010070476FEA010189B20182B9
:104620007047C04600B52F4B83B09842019037D0F9
:104630000BD8A3F50063984226D003F58063984217
:1046400028D0B0F1804F4AD118E0274B984233D0A0
:1046500004D8A3F58063984241D127E0234B9842C8
:1046600004D003F50063984239D12EE04FF4006086
:104670000121FEF733FF4FF400602DE001200121FE
:10468000FEF73AFF01201CE002200121FEF734FF73
:10469000022016E004200121FEF72EFF042010E086
:1046A00008200121FEF728FF08200AE01020012140
:1046B000FEF722FF102004E020200121FEF71CFF5E
:1046C00020200021FEF718FF09E04FF400500121DF
:1046D000FEF704FF4FF400500021FEF7FFFE03B089
:1046E00000BDC046000C004000140040002C0140FA
:1046F0004FF4165303604FF000038380C38003819F
:104700004FF00C0343814FF0000383817047C04694
:10471000B1F800C04B88028A43EA0C03B1F804C028
:10472000C98822F4706243EA0C0312040B43120C92
:104730009BB21343038270474FF000030380438012
:104740008380C3807047C04621B183899BB243F404
:10475000005304E0838923F400531B041B0C838162
:104760007047C046CBB24FEA531C01F01F01012332
:1047700082B013FA01F1BCF1010F019001D10C30AC
:1047800005E0BCF1020F01D1103000E0143012B18D
:1047900003680B4302E0036823EA0103036002B0ED
:1047A0007047C04622B1838A9BB241EA030303E00B
:1047B000838A9BB223EA010383827047038A23F032
:1047C0000F031B041B0C0382038A9BB20B4303825F
:1047D0007047C046838923F400631B041B0C83814C
:1047E00083899BB2194381817047C04621B1838977
:1047F0009BB243F0020304E0838923F002031B040D
:104800001B0C83817047C046038A23F020031B04DE
:104810001B0C0382038A9BB2194301827047C04676
:1048200021B1038A9BB243F4804304E0038A23F45A
:1048300080431B041B0C03827047C046C905C90D89
:10484000818070478088C005C00D704783899BB206
:1048500043F0010383817047038BDBB20383038B37
:104860009BB243EA012303837047C046038B03F4E2
:104870007F430383038B9BB20B4303837047C04684
:1048800021B1838A9BB243F0200304E0838A23F0A2
:1048900020031B041B0C83827047C04621B1838A0E
:1048A0009BB243F0100304E0838A23F010031B043F
:1048B0001B0C83827047C04621B1838A9BB243F0B0
:1048C000080304E0838A23F008031B041B0C838283
:1048D0007047C046838A23F004031B041B0C8382A9
:1048E000838A9BB2194381827047C04621B1838A73
:1048F0009BB243F0020304E0838A23F002031B040B
:104900001B0C83827047C046038819420CBF0020ED
:10491000012070476FEA010189B201807047C046EB
:10492000CBB24FEA531C01F01F02012313FA02F22B
:10493000BCF1010F08BF838904D0BCF1020F0CBF8A
:10494000038A838A9BB202EA030C0B0A01229A4073
:1049500003889BB21A420CBF00200120BCF1000F5B
:104960000CBF002000F001007047C046090A012377
:104970008B406FEA03039BB203807047038ACA88A7
:1049800023F440531B041B0C13430382828970B52C
:104990000B890E46898822F4B0520B43718922F0AC
:1049A0000C020B431204120C9BB213438381838AC3
:1049B000B28923F440731B041B0C88B013430546D3
:1049C00083820190044603A8FEF702FD104B1148B4
:1049D0009D420CBF069B059B03EB8301336801EBF3
:1049E00081019B00B1FBF3F1A1FB002364224FEA9C
:1049F000531C0CFB121212013232A2FB00235B0982
:104A000003F00F0343EA0C139BB22B8108B070BD77
:104A1000003801401F85EB5100B5224B83B098420E
:104A200001902BD008D8A3F50063984216D003F567
:104A30008063984234D119E01B4B984226D003F58D
:104A4000684398422CD101214FF48040FEF746FD87
:104A50004FF480400021FEF741FD21E04FF400308B
:104A60000121FEF749FD4FF4003016E04FF480209D
:104A70000121FEF741FD4FF480200EE04FF40020AD
:104A80000121FEF739FD4FF4002006E04FF48010BD
:104A90000121FEF731FD4FF480100021FEF72CFDBF
:104AA00003B000BD004C00400050004030BF7047D4
:104AB00020BF704740BF7047BFF36F8F7047BFF391
:104AC0004F8F7047BFF35F8F704701DF7047EFF381
:104AD0001480704780F31488BFF36F8F7047EFF333
:104AE0000980704780F309887047EFF308807047AA
:104AF00080F30888704772B6704762B6704771B627
:104B0000704761B6704780F311887047EFF31280E9
:104B1000704740BA704700BA704700002DF0070197
:104B200068468D4601B500220C49DFF834C00D48B7
:104B300002E083588B50043201EB02036345F8D343
:104B4000094B0A49002201E043F8042B8B42FBD3B6
:104B5000FBF7F6FBBDE801408546704700000020EA
:104B600064010020B07C020864010020141E0020B3
:104B70000000000001020304010203040607080903
:104B8000020406080D0A0D0A2D2D2D2D2D2D2D2D7B
:104B90002D2D2D2D202052582D32384D205570644A
:104BA000617465722076312E322D2D2D2D2D2D2DF7
:104BB0002D2D2D2D2D2D0D0A000D0A5B4241554442
:104BC00052415445203A203130303030303020428C
:104BD00050535D0D0A000D0A5B4241554452415449
:104BE00045203A203537363030204250535D0D0A8B
:104BF000003A005D000D0A204E6F2041637475611C
:104C0000746F722121000D0A5B003A3032395D2049
:104C10005374616E6462792E2E2E00204472657387
:104C200065742E2E2E00230020456E74657220625E
:104C30006F6F746C6F616465722E2E2E000D004CC8
:104C40000052656164792E2E0020446F776E6C6F80
:104C500061642E2E2E0053756363657373002053B9
:104C6000756363657373212121004572726F720051
:104C7000204572726F72212121000D0A44584C2088
:104C8000506F776572204F46462E2E2E00204F4ED5
:104C90002E2E2E000D0A0D0A446F776E6C6F616424
:104CA00020436F6D706C6574652121210000000048
:104CB0000100000064000A0370300C0040420F0045
:104CC00000E1000000E10000000102030405060706
:104CD00008090A0B0C0D0E0F1011121314151617DC
:104CE00018191A1B1C1D1E1F2021222324252627CC
:104CF00028292A2A2B2C2D2E2F30313233343536C9
:104D00003738393A3B3C3D3E3F40414243444546BB
:104D10004748494A4B4C4D4E4F50515253545556AB
:104D20005758595A5B5C5D5E5F606162636465669B
:104D30006768696A6B6C6D6E6F707172737475768B
:104D40007778797A7B7C7D7E7F7F80818283848582
:104D5000868788898A8B8C8D8E8F9091929394957B
:104D6000969798999A9B9C9D9E9FA0A1A2A3A4A56B
:104D7000A6A7A8A9AAABACADAEAFB0B1B2B3B4B55B
:104D8000B6B7B8B9BABBBCBDBEBFC0C1C2C3C4C54B
:104D9000C6C7C8C9CACBCCCDCECFD0D1D2D3D3D43D
:104DA000D5D6D7D8D9DADBDCDDDEDFE0E1E2E3E43B
:104DB000E5E6E7E8E9EAEBECEDEEEFF0F1F2F3F42B
:104DC000F5F6F7F8F9FAFBFC0A0000000B0000000A
:104DD0000C0000000D0000000000000001000000B9
:104DE00002000000030000000400000005000000B5
:104DF00006000000070000000E0000000F00000089
:104E00000800000009000000E8FFFFEAFFFFECFFD8
:104E1000FF000000FFFFFFFFFFFFFFFFFFFFFFFF9F
:1060000000500020917F00082558000829580008FA
:106010002D580008315800083558000800000000CD
:106020000000000000000000000000003D580008D3
:106030003958000800000000415800084558000881
:10604000595800085D580008615800086558000854
:10605000695800086D580008715800087558000804
:10606000795800087D580008815800080000000099
:106070000000000000000000000000000000000020
:106080000000000000000000E1590008A1580008CD
:10609000A5580008A9580008AD580008B1580008D4
:1060A000B5580008B9580008BD580008C159000883
:1060B00079590008C1580008C5580008C958000897
:1060C000CD580008D1580008D5580008D958000804
:1060D000DD58000839590008E1580008E558000863
:1060E000E9580008ED580008F1580008F558000874
:1060F000F9580008FD580008015900080559000822
:10610000095900080D5900081159000815590008CF
:10611000195900081D59000821590008255900087F
:10612000295900082D59000831590008355900082F
:106130005FF800007047C046F0B55B4B83B01B783A
:106140000546002B00F0AC80584B1A78FF2A3CD152
:10615000DFF85CC1002200213CF801305448B5EB67
:10616000830F05DB931C9AB20231162AF4D10AE0A0
:1061700091B229B903888AB298004FF0000C10E060
:1061800011B2162907D14B4B40F6FF701B8816221F
:106190004FEA830C05E0831E5B5A4FEA830C435A97
:1061A0009800CCEB050112B2C1EB0131C2EB023217
:1061B0004900CCEB0000B1FBF0F10C3252183E4923
:1061C000A2FB01231B0999B26BE0531EDBB2012B2A
:1061D00046D805F57E67002601201F374028B1B25A
:1061E00018BF83B2009108BF002334491BB231F8B5
:1061F000162031F813302C46B3EB020C019006D573
:1062000003F57E630CF57E6C1F330CF11F0CA91A8D
:1062100003D501F57E611F313C469C428CBF0023B3
:106220000123A2428CBF002303F001033BB9431CAE
:1062300098B201364128D1D1019B9BB200930CEB5F
:10624000DC7300985B1003EB814301B209034FEA52
:106250008C1201FB023292FBFCF2121391B220E08D
:10626000032A1DD11648002400F10806B0F800C02A
:10627000AC450ED843889D420BD8CCEB03039BB2B0
:10628000CCEB05015A0802EB812292FBF3F2224487
:1062900091B2023004F58063B0429CB2E6D100E0D6
:1062A0002946084603B0F0BD7C0300200806002004
:1062B000681900207C190020ABAAAAAA1E0600209B
:1062C0009619002070B5524B04461B78002B00F045
:1062D0009C80504B1A78FF2A48D102F1004202F507
:1062E000FE2200EB400102F578628900023281FB58
:1062F0000223C918890A4FF6FE7001EA000030B97E
:10630000454B4FF0000C1B889B009AB218E01628F2
:1063100007D1424B40F6FF721B889B001FFA83FC9B
:106320000EE0182803D140F6FF7C624608E03C4BA3
:106330001A5A02331B5A92009B001FFA82FC9AB22F
:10634000C0EB005100EB013104EB4403CCEB020243
:1063500001EBC30101FB02F1324A81FB02230B4432
:10636000C917C1EB2331614488B24FE0531EDBB241
:10637000012B22D881092C4A4B1C3F2908BF00233E
:1063800032F8110032F81330B3EB000C48BF0CF5B3
:106390007E6CC1EB816348BF0CF11F0C14EB8312C0
:1063A00044BF02F57E621F320CFB02F283032033EE
:1063B00003EB02239B0B98B228E0032A25D1DFF8D8
:1063C0006CC000210CF10806A142BCF800203CF88A
:1063D000025C13DC01F580639C420FDC521BC1EBB5
:1063E000040392B202FB03F202F5BE630F3312F50F
:1063F000007258BF134605EBA32398B20CF1020CB0
:10640000B44501F58061DFD100E0204670BDC04693
:106410007C03002008060020681900207C19002059
:1064200066190020810008801E06002098190020AF
:106430007047C046F0B5224B22491A788B5C002B7E
:106440003BD0214B1D7801EB05039B1813F8023C50
:10645000022B32D01D484FF0010C1D4C1D4E28E080
:1064600094F82F3023B1A2F11803DBB20B2B24D800
:10647000442A22D8417816F812308B421DD806EBF8
:1064800042035B788B4218D31F2A0BD1124F01882D
:106490003B888B4203D3114F3B888B4202D9038048
:1064A00002200BE00CF101035FFA83FC531CDAB20B
:1064B0000130AC45D4D3002000E00820F0BDC04638
:1064C000581100208F000020200D0020D003002054
:1064D000C40C002003000020CC0C0020CA0C0020BB
:1064E0007047C046064A138801339BB21380138855
:1064F000044A9B059B0D32F81300C0B27047C0469A
:106500003C0D00205A1100207047C046054B1A6808
:10651000002301E0D21801338342FBD3014B1A6000
:106520007047C04694030020400000F1006000F571
:106530007C4000887047C046334BF0B51D88A3F5FA
:1065400080631F8803F5806302334FF6FF721C8857
:10655000954214BF00260126A3F58063974214BF1D
:1065600000210121B3F800C002330E4218880BD07D
:10657000944514BF00230123944214BF002303F069
:1065800001030BB190423DD04FF6FF72AD1A18BF18
:1065900001250D420DD0944514BF002301239442E0
:1065A0000CBF002303F001031BB1904201D1012075
:1065B00029E04FF6FF72B91A18BF01210D420ED023
:1065C000BCEB020318BF012394420CBF002303F06D
:1065D000010323B1904214BF0320022013E00E42B6
:1065E0000FD04FF6FF72BCEB020318BF0123944299
:1065F00014BF002303F001031BB1904201D004201B
:1066000001E000E00020F0BDFAFF000870B54FF493
:10661000405182B04FF0006003F05AF801AD4FF4E2
:10662000A06002F0B7FF00242523012628468DF83C
:1066300004308DF805408DF806408DF8076002F0B3
:10664000B3FF1C238DF80430284602238DF8053053
:106650008DF806408DF8076002F0A6FF02B070BD0D
:1066600070B54FF4407182B00446254802F08CFEAC
:1066700024484FF4C04102F087FE01AEFCB14FF454
:10668000C0430125102431461E48ADF804308DF872
:1066900006508DF8074002F007FE4FF44073314674
:1066A0001748ADF804308DF806508DF8074002F019
:1066B000FBFD13484FF4805102F068FE1EE04FF4DA
:1066C000C043012518240F483146ADF804308DF839
:1066D00006508DF8074002F0E7FD4FF4407308487C
:1066E0003146ADF804308DF806508DF8074002F0C1
:1066F000DBFD03484FF4805102F046FE02B070BD4E
:1067000000080140000C0140F0B5042083B00121D5
:1067100002F064FE0121544801AE02F05FFE4FF02A
:106720008003ADF804303146042350488DF807301B
:1067300002F0BAFD4FF04003ADF8043003234C4C97
:106740008DF806303146182348488DF8073002F09E
:10675000ABFD4FF480431027ADF8043020464FF0D6
:10676000010331468DF806308DF8077002F09CFD6C
:1067700048F20003ADF8043020464FF001033146E3
:106780008DF806308DF8077002F08EFD4FF400533F
:10679000ADF8043020464FF0010331468DF8063045
:1067A0004FF480558DF8077002F07EFD4FF0010325
:1067B000204631468DF80630ADF804508DF807704C
:1067C00002F072FD2946204602F0E0FD0120FFF7AD
:1067D00047FF4FF05803ADF8043020464FF0010357
:1067E00031468DF8063048258DF8077002F05CFDC3
:1067F0004FF0A00320463146ADF804308DF8075025
:1068000002F052FD4FF0010331461848ADF8043054
:106810008DF8075002F048FD2046082102F0B4FD33
:106820002046102102F0B0FD2046402102F0AEFDCE
:106830004FF00603ADF804302046002331468DF8B2
:10684000073002F031FD20464FF4804102F09EFDFA
:1068500020464FF4004102F097FD20464FF40051CE
:1068600002F094FD03B0F0BD00043000000C0140C4
:1068700000080140F0B5324C002581B04FF460278C
:10688000012630482146256025716571A760E560C5
:10689000267402F0ABF8012203232A48012102F0FA
:1068A0002DF929482146256025716571A760E560AD
:1068B000267402F09BF8244801210122032302F0F0
:1068C0001DF92048012102F0BFF81E4802F0DCF853
:1068D0001C4802F0DFF80028FAD100F1804000F5F2
:1068E000923002F0DDF8174802F0E0F80028FAD103
:1068F00000F1804000F59430012102F0A5F8124823
:1069000002F0C2F8104802F0C5F80028FAD100F1F0
:10691000804000F5943002F0C3F80B4802F0C6F84E
:106920000028FAD100F18040012100F5923002F0F8
:10693000C3F80548012102F0BFF801B0F0BDC04620
:10694000A0060020002401400028014018494FF013
:10695000FF3310B58B804FF080444FF000030B8065
:10696000CB804B80204603F039FA012220460421D7
:1069700003F026FE0F494FF000030B804FF0010398
:106980004B800D4B20461B88CB804FF000030B81C2
:1069900003F04EFA2046002103F0A6FE2046022115
:1069A000012203F05DFD2046012103F03DFD10BDF5
:1069B000B2030020100D00200000002010B5374B5E
:1069C0001B78012B03D1364B4FF003020AE0022B58
:1069D00003D1334B4FF0020204E0032B03D1304BC1
:1069E0004FF001021A802E494FF000034B8040F215
:1069F000FF32CB8000232B4C8A800B722A4803F095
:106A0000EDF94FF0700323804FF001024FF00403C3
:106A10006280A3804FF000024FF00203E2802381E6
:106A20004FF008024FF480731F482146A381E38191
:106A3000628103F0FDF940F2FF321B482146E280FB
:106A400003F04EFA194A4FF4006313804FF4806349
:106A500053804FF000039380104B1B78012B07D01D
:106A6000022B08BF012303D0032B02D14FF00003F8
:106A7000D3800E494FF000024FF400530A814B813E
:106A80008A81094803F090FC0121074803F0CCFCFF
:106A90000548012103F0D6FC10BDC04602000020CD
:106AA000280D0020E4040020002C0140BE0300203B
:106AB00000B581B0FFF74AFFFFF780FF01B000BDCE
:106AC00000B581B002F066FF4FF4803002F082FF23
:106AD00002F09AFF264B0128187036D1102002F0E0
:106AE00067F9022002F04CF9002002F0D7FF0020E5
:106AF00002F0E8FF4FF4806002F0DAFF1D4B1B78D4
:106B0000012B04D14FF480304FF4E0110CE0022B44
:106B100004D14FF480304FF4801105E0032B05D1F0
:106B20004FF480304FF4002102F096FF012002F074
:106B30009DFF392003F0C6F80028FAD0022002F0A9
:106B40009BFF02F0A3FF0828FBD14FF4804002F026
:106B5000D7FF012144F60D6003F06AF806480121D1
:106B600003F074F8012002F0A5FE01B000BDC0469C
:106B7000AC030020020000200100001800B504480A
:106B800083B002F06DFB8DF8070003B000BDC04676
:106B900000F8000800B583B002F016F9352002F0C5
:106BA00061F9044802F05CFB8DF8070002F018F967
:106BB00003B000BD00FC0008F0B5134B83B01C8887
:106BC000124802331E8802F04BFB65008DF8070067
:106BD000002440F2FA37AC421DBF04F1006303F514
:106BE0007843198831464FF6FF73994207D004F174
:106BF000006000F57C4002F099FA8DF8070002343D
:106C0000BC42E8D103B0F0BDFAFB000800FC00086C
:106C100000B5044883B0012102F088FA8DF807001E
:106C200003B000BDFEFB000870B50C4882B002F056
:106C300017FB0A4C0A4D8DF807004FF6FF76B4F8A3
:106C40000014B14204D0204602F070FA8DF807001B
:106C50000234AC42F3D102B070BDC04600F8000867
:106C600000FC000810B583B282B00C4606481946F5
:106C700002F05CFA21468DF80700044802F056FA4B
:106C80008DF8070002B010BDFAFF0008FCFF0008F5
:106C9000430070B503F1006404F57C44238882B09E
:106CA0008B4206460D4623D040F2062398421FD859
:106CB00002F08AF8352002F0D5F825B122884FF687
